:041000006F00402518
:1010D00000100000000000002E1600003016000076
:1010E000000000005212000000000000000000009C
:1010F0005212000052120000000000000000000028
:1011000064170000000000001A1800000000000032
:10111000521200005212000052120000521200003F
:10112000521200005212000052120000521200002F
:101130005212000074170000B217000032160000AF
:101140005212000052120000521200005416000009
:1011500052120000D016000052120000521200007D
:1011600052120000521200005212000052120000EF
:1011700052120000521200005212000052120000DF
:1011800052120000F017000052120000521200002C
:1011900052120000521200005212000052120000BF
:1011A00052120000521200005212000052120000AF
:1011B000521200005212000052120000521200009F
:0C11C000521200005212000052120000F7
:1011CC00397101436EC619A0397141536AC866CA98
:1011DC0062CC5ECE19A0397101535AD056D252D47A
:1011EC004ED64AD826DA22DC06DE330161408282F2
:1011FC0041114AC026C222C406C68282B24D4101A8
:10120C00024D924C224CB24B4101024B924A224A63
:10121C00B2494101024992442244B24041018280C8
:10122C002A8309CA83830500230073007D160503F6
:10123C0085056DFA82802A8311C62300B3007D16C2
:10124C00050365FE828001A09701002093814190E7
:10125C0017410020130141CA174500001305C5743E
:10126C0097F5FF1F938545D91386018763FAC5004F
:10127C008322050023A0550011059105E3EAC5FE64
:10128C0013850187938541CF6377B5002320050033
:10129C001105E36DB5FEFD42739002BC8D42739057
:1012AC004280930280087390023097020000938270
:1012BC00A2E193E2320073905230EF00F076973255
:1012CC00000093824258739012347300203093873D
:1012DC000187D6232392D18E96232391D18EBA23C4
:1012EC002390E18E8280EFF2BFF01D711306400255
:1012FC008145681889371306000281454808253F47
:10130C00372401409307C4443EDA938701873EDCBF
:10131C0093070008BEC493070010BEC69307004095
:10132C00B7040240BEC893070002138584000D4920
:10133C00BECA4C188567BECC02C402C602C8CAC05D
:10134C00EF104022054613858400A945EF10402676
:10135C00138584008545EF106024B7E700E0130780
:10136C0000FCA38DE7403707000823A0E710854554
:10137C0013050020EF1060610145EF10005E37157A
:10138C000140930720042C00130505807C8402C8BF
:10139C00EF10803713050440EF00107C85473ECCDE
:1013AC004C08B7070E00130504403ED002CA02CE0B
:1013BC0002D223042103EF00307E85460546854585
:1013CC0013050440EF10800885460946994513051E
:1013DC000440EF10A00785460D46C1451305044097
:1013EC00EF10C006854513050440EF1040018545FC
:1013FC0013050440EF00B07F814513050440EF1046
:10140C00E01413050440EF10A0009304044026855B
:10141C00EF10A0006DFD1305044037240140EF10C0
:10142C004000930404402685EF1040006DFD854577
:10143C0013050440EF1080110545EF10A00C256139
:10144C00D1BB372501408545130505406F00907EC3
:10145C00EFF21FDA03D5418E8567938747CE3305AC
:10146C00F5023185EF10000C4205418565B3EFF2B2
:10147C003FD8B717014093870780054480CB98432A
:10148C0085450545419B98C398431367370098C31E
:10149C0098431367870098C3EF10C05481450545E6
:1014AC00EF104054B7070040130700069AAF0D47E2
:1014BC009AB3038741948545370500409AB71307C3
:1014CC00F003DAB7238B8186EF10B00EA1B3EFF2E5
:1014DC003FD285450545EF10E05081450545EF109D
:1014EC00605037070040B71701402310070293875D
:1014FC000780054690CB9443C19A94C3944393E6DA
:10150C00460094C38387018B8DC712AFB7070020A9
:10151C0003879735B707004085459AB77D57DAB7EB
:10152C002398070037050040EF10B008238B018685
:10153C00D5B18D471EAF930700041EA7C1BFEFF2B4
:10154C003FCB0387018B8547631BF70037070040B0
:10155C001E33C207C183F19B93E717001EB3853F6F
:10156C0037070240938781957CD3B70700401386D9
:10157C00470330D303C6618685669386B69870CFD1
:10158C0034CF23920702D62793E60620D6A79633AC
:10159C0093E6160096B3962393E6160096A33C4F5B
:1015AC0093E747003CCFBDB1EFF29FC4C9358567C7
:1015BC00370702409387A7993CCF938781A57CD3AB
:1015CC00B70700401386470330D337060020034685
:1015DC0086355D0670CFD62793E60620D6A79633C0
:1015EC0093E6160096B3962393E6160096A33C4F0B
:1015FC0093E717003CCF39B9B717014093870780A1
:10160C00884705898280B7170140938707809843E4
:10161C00D447419B93E61600D4C71367870098C341
:10162C00828001A001A00945EF00307B09C5194556
:10163C00EF00307A69392145EF00307A01C5214538
:10164C00EF00307973002030B70702409C43411102
:10165C003707040022C626C4F98F89CF8387018BF4
:10166C0089C7B70700400D479AB3B7070240370741
:10167C000400D8C3370402401C40B7040200E58FB5
:10168C0091CB3C4CF99B3CCCEF30304C44C00547E3
:10169C00238FE188B70702409843B7060800758F7F
:1016AC0009CFB84F37050800799BB8CFEF0070729F
:1016BC00EF30B0490547238FE1883244A244410101
:1016CC007300203041113705000222C6EF00F07084
:1016DC0015CD37440040014693050008130504401E
:1016EC00EF10F01A37050240130505088145EF008D
:1016FC00F06A8357C44037050002C207C183CD9BF3
:10170C00C207C1832316F440EF00B06C3705000804
:10171C00EF00B06C15CD374400400146930500082E
:10172C0013050440EF10B0168357C4403705024030
:10173C0013050508C207C183CD9BC207C1832316BD
:10174C00F4408145EF00906537050008EF007068A4
:10175C003244410173002030B7F700E023A20700A8
:10176C00EF20705973002030B717004003D7478221
:10177C0083A7418F858363FCE700B70701409387FC
:10178C0007402147D8CBEF20403873002030512040
:10179C008387A181E31BF5FEB707014093870740C0
:1017AC002147D8CBDDB7B717004003D7478283A7B3
:1017BC00418F858363FCE700B7070140938707409F
:1017CC004147D8CBEF2060347300203099208387B9
:1017DC00A181E31BF5FEB707014093870740414702
:1017EC00D8CBDDB7411122C637040040854513051F
:1017FC000440EF10900701C9EF20C0288545130560
:10180C000440EF1010083244410173002030730083
:10181C002030B717014037070020938707809C477B
:10182C000355A7357D8D1375F50F8280B7070140E1
:10183C009387074098431D9B98C36147D8CB828000
:10184C00B7070140938707406147D8CB3707002083
:10185C000346C735944305473317C700558F98C3C4
:10186C00828083870181054637070020639EC7026B
:10187C00B746024023A2F6808D47230EF734A146CB
:10188C00B7070020239DD7348347C7350547331747
:10189C00F7008386A181B707014093870740A5C253
:1018AC0023A40700D8C7828091466397D700B74717
:1018BC00024023A2C780C9B709466385C7001546F5
:1018CC00639EC700B74702401306000723A2C780D8
:1018DC00230ED734B7070020C1466DB78D46639CE5
:1018EC00D700B74702409306000323A2D780914745
:1018FC00230EF734C5B79946E385D7FE71B723A6F7
:10190C00070098C78280B367B6008D8BA1EFEFF20A
:10191C009F8C9377F60FAE97130700101171AE845E
:10192C003284636EF702137904F0AA89EF00F05148
:10193C0013060010CA850A85EFF09F8E1374C40F2E
:10194C002686CE8533058100EFF09F8D4A85EF000A
:10195C0090528A854A85EF00F054EF00F0501161E7
:10196C006FF0BF8A82806FF0BF8B8280EFF2BF86F0
:10197C00011137140140930400024C00130504803C
:10198C006482231301002314010023150100231684
:10199C0001002317010002C802CA02CC02CEEF00DC
:1019AC00B056F577938707C04C00130504C07C82B2
:1019BC0002C6EF007055E14711494C001305048035
:1019CC007C824AC6EF0050544C001305048023124D
:1019DC0021014AC6EF0050530547B747024023A2E6
:1019EC00E7808D450145EF003072A1474149080859
:1019FC003EC84ACC02CA02CEEF00503E2145EF0051
:101A0C00104437E400E0E547A308F40485679387A6
:101A1C00477793E717007CD0A30C9440B7070002DC
:101A2C002320F41091450145EF00106E08084AC8B8
:101A3C004ACC02CA02CEEF00703A4145EF0030406A
:101A4C00E9472309F40485679387277B93E71700FD
:101A5C003CD4230D9440B70700042320F4109309C1
:101A6C00041005616FF06FFAEFF28FF81567B73756
:101A7C0000401307575598C30D47D8C30567130784
:101A8C0007FA98C7EF00106BEF00B06B6FF08FF890
:101A9C00EFF20FF60565397185451305158002C403
:101AAC0002C62318010002D802DA02DC02DE02D0E0
:101ABC0002D202D42316010202CA02CC02CEEF00DB
:101ACC00D06C3705160085451305050437340140E5
:101ADC00EF0070529307F07C2C00130504C03EC637
:101AEC0002C4EF10E000130504C08545EF10C02CB4
:101AFC00130504C0A145EF10C02D930700060C1868
:101B0C00130504C03ED802DA02DC02DEEF10E0045A
:101B1C00130504C08145EF104030130504C0A145E6
:101B2C00EF10002C0C18130504C023190102231A02
:101B3C000102EF102009130504C08145EF10C02EDF
:101B4C00130504C0A145EF10002B0C18130504C09D
:101B5C0023190102231A0102EF100010130504C00F
:101B6C008145EF10C02D130504C0A145EF1080294D
:101B7C000C18130504C023190102231A0102EF10DB
:101B8C00C016130504C08145EF10402CB7074B005D
:101B9C003ED20C10B7070020130504C03ED43714F6
:101BAC00014002D023160102EF10A01A61498D44A6
:101BBC0089474C08130504C0FC824ACE26CCEF00A2
:101BCC00B03485474C08130504C0FC824ACE26CCA1
:101BDC00EF009033930700084C0813050480FC8237
:101BEC004ACE26CCEF005032930700404C08130528
:101BFC000480FC824ACE26CCEF00103193070020E3
:101C0C004C0813050480FC824ACE26CCEF00D02F62
:101C1C00930700104C0813050480FC824ACE26CC96
:101C2C00EF00902E21616FF0EFDEEFF26FDC854557
:101C3C001145EF007057B71700407D572396E78288
:101C4C005D472394E7826FF0EFDCB7F700E023A049
:101C5C00070023A20700814694C70147D8C783A574
:101C6C0081801567130707E233D6E50281463D47AD
:101C7C0090CBD4CB98C3B7E700E001572386E7405D
:101C8C00056723A0E7108280EFF28FD685450945C2
:101C9C00EF009051B70700405D472394E74205677A
:101CAC00130707FA2396E742B7E700E0A38607423B
:101CBC00096723A2E7106FF0EFD5EFF26FD38545DC
:101CCC000545EF00B04A37E700E0930700FCA30F8F
:101CDC00F740B70700802320F710FD472308F704CF
:101CEC0085679387476593E717003CD36FF08FD2D6
:101CFC00854535456F007049EFF28FCF7971854579
:101D0C00054502D202D402D602C602C8231A01002B
:101D1C0002CC02CE23100102EF001049854511457B
:101D2C00EF00B04691473715014005443ED64C10A4
:101D3C008D4713050580231281023ED4EF00D01C81
:101D4C00C167FD176C00370500403EC802C6EF00A6
:101D5C00305A854537050040EF10000681453705A0
:101D6C000040EF1000142C083705004022CE02CCA6
:101D7C0023100102EF10601A054693050020370569
:101D8C000040EF10400345616FF0CFC8EFF24FC633
:101D9C00A123B93F1D37ED39493D453DC13EED35D8
:101DAC00A13F6FF02FC7B7370140239AA7C282809B
:101DBC00B7370140239CA7C28280B7370140239ECE
:101DCC00A7C28280B737014003D747C113671700FA
:101DDC00239AE7C08280B70700402396070223921C
:101DEC0007028280EFF2CFC037340140130504C0E4
:101DFC0005468145EF10E006130504C005469145E4
:101E0C00EF102006130504C00546A145EF10600530
:101E1C00130504C011468145EF10A006130504C03C
:101E2C0011469145EF10E0051146130504C0A1457C
:101E3C00EF102005130504C08545EF0090731305C2
:101E4C0004C08545EF007074130504C08545EF0090
:101E5C00507637040040130504408545EF0070713F
:101E6C00130504408545EF00D0748357C440854565
:101E7C00C207C183F99BC207C1832316F4403714F0
:101E8C00004013050480EF00D06E130504808545D7
:101E9C00EF003072EFF02FC5054681453705004045
:101EAC00EF00307C854537050040EF00906C6FF0FB
:101EBC006FB63717014093070780D4437D7613061E
:101ECC00F60FF18ED4C3D443130707C093E6063044
:101EDC00D4C393060040D4CBD44393F6F6F0D4C3CA
:101EEC00D44393E60603D4C393060020D4CBD44347
:101EFC00C19AD4C3D44393E63600D4C393060010DE
:101F0C00D4CB144393F6F6F014C3144393E6060BA8
:101F1C0014C31443C19A14C3144393E6B60014C3F8
:101F2C009843B70600B01207118398C39843558F96
:101F3C0098C3828003C781C4B7170140938707C039
:101F4C001DE79843419B98C398431367370098C388
:101F5C000547D8CBB717014093870780D843137731
:101F6C00F7F0D8C3D8431367070BD8C382809843C4
:101F7C00419B98C398431367B70098C3E1BFB71749
:101F8C000140138707C0144393870780C19A14C379
:101F9C00144393E6360014C3854654CBD8431377C9
:101FAC00F7F0D8C3D84313670703D8C3130700202F
:101FBC00D8CB8280B7170140138707C0144393878F
:101FCC000780C19A14C3144393E6360014C38546A4
:101FDC0014CBD8431377F7F0D8C3D8431367070350
:101FEC00D8C313070020D8CB828003C781C4B7178E
:101FFC000140938707800DEB9843B706003012071A
:10200C00118398C39843558F98C313070008D8CBF6
:10201C00B717014093870780D843419BD8C3D84357
:10202C001367B700D8C382809843B70600B0120775
:10203C00118398C39843558F98C3D9BFB7170140E4
:10204C00938707809843B70600301207118398C313
:10205C009843558F98C313070008D8CBD843419B9E
:10206C00D8C3D84313673700D8C313070010D8CB95
:10207C008280B7170140938707809843B7060030DA
:10208C001207118398C39843558F98C31307000800
:10209C0098CBD843419BD8C3D84313673700D8C3D8
:1020AC0013070010D8CB828003C781C4B717014037
:1020BC00938707C005EF98431377F7F098C39843BD
:1020CC001367070398C30947D8CBB7170140938709
:1020DC000780D843FD769386F60F758FD8C3D84307
:1020EC008566938606B0558FD8C382809843137744
:1020FC00F7F098C398431367070B98C3F9B7B71752
:10210C000140138707C014439387078093F6F6F0BA
:10211C0014C3144393E6060314C3894654CBD84323
:10212C00FD769386F60F758FD8C3D84313670730A7
:10213C00D8C313070040D8CB8280B7170140138750
:10214C0007C014439387078093F6F6F014C3144327
:10215C0093E6060314C3894614CBD843FD769386C5
:10216C00F60F758FD8C3D84313670730D8C313073E
:10217C000040D8CB8280EFF2AF87513709357D3DD7
:10218C006FF04F897D15954763E1A704EFF24F86F9
:10219C0099679387478E0A053E951C418287793D46
:1021AC00113D193721A0A13F313581356FF08F8654
:1021BC00F9336137DDBF59354937AD3BC5BF813781
:1021CC004D3DE5BF6D3B7535E9BF8280EFF24F8227
:1021DC00AD37CD33793D6FF0EF83EFF26F81E93599
:1021EC00913B21356FF00F83EFF28F80B7470040A2
:1021FC002A87138507405E25370402401304040820
:10220C00C207C183CD9B93E787005EA558C0938717
:10221C00C1B25CC4054693050008EF0050678545C4
:10222C002285AD2E6FE01FFFB71702409843B7060B
:10223C00FFF01367170098C3D843758FD8C3984322
:10224C00B706F7FEFD16758F98C39843B706FCFFCB
:10225C00FD16758F98C3D843B70601FFFD16758F11
:10226C00D8C337079F0098C737470240130707802A
:10227C00144393E6060114C3D8438D6693860680F7
:10228C00D8C3D843558FD8C3D843B706C1FFFD1662
:10229C0013670750D8C3D843758FD8C3D843B70634
:1022AC002800558FD8C39843B7060001558F98C3A3
:1022BC00B70600029843758F75DFD843B7160240F6
:1022CC00719BD8C3D84313672700D8C32147DC427E
:1022DC00B18BE39EE7FE8280371702405C43A14638
:1022EC00B18B6396D7065C435843C166C983BD8BDB
:1022FC00758F8907C5466393D700C94701EF3747E8
:10230C00024003270780418B09CF37177A00130748
:10231C00072021A8371702405843B7060200758FD3
:10232C006DD737173D0013070790B387E7023717B0
:10233C000240544337070020130707009182BD8ADF
:10234C0036971823B3D7E70023A4F1808280B71700
:10235C007A0093870720E1BFEFE29FE9B72701409E
:10236C0093870740631CF500854513050020A12DBC
:10237C00814513050020812D6FE0DFE9B73701405F
:10238C0093870780E31AF5FE854513050040252D3C
:10239C00814513050040C5B75841B707F1E0938755
:1023AC00F7EF944D7D8F9C41D58FD44DD58FD44173
:1023BC00A206D58FD98F5CC11845B7F7F1FF93876B
:1023CC00D77FD4457D8F9C49D58F94458606D58F74
:1023DC00D98F1CC55855B70710FFFD177D8FDC2909
:1023EC00FD1793F7F70FD207D98F5CD582801C4568
:1023FC0089C593E717001CC58280F99BEDBF1C456E
:10240C0089C593E707101CC5828093F7F7EFE5BFEA
:10241C001C4593E787001CC5828008450D81058902
:10242C0082801C4593E747001CC5828008450981C2
:10243C00058982801C4591C537075000D98F1CC572
:10244C0082803707B0FF7D17F98FD5BFA54763F79B
:10245C00B7048D47138765FF3307F7020328C500C0
:10246C009D47B397E70093C7F7FFB3F70701B39600
:10247C00E600DD8E54C5994763E3C70495477D1686
:10248C003306F6025859FD47B397C70093C7F7FFB9
:10249C00F98F3396C5005D8E50D982800D473387F6
:1024AC00E502032805019D47B397E70093C7F7FFA3
:1024BC00B3F70701B396E600DD8E14C96DBFB147C3
:1024CC0063E2C702954765163306F6021859FD47B5
:1024DC00B397C70093C7F7FFF98F3396C5005D8E8E
:1024EC0010D9828095474D163306F6025855FD4794
:1024FC00B397C70093C7F7FFF98FB395C500DD8D70
:10250C004CD58280B727014093870740984711C567
:10251C00B7068000558F98C78280B70680FFFD16DE
:10252C00758FD5BFB7F7FF1F83A7077213D70701A6
:10253C00C207C1831D8DA9473305F5029307B0026D
:10254C0055053345F5023305A74082805C4191C5A2
:10255C0037070004D98F5CC18280370700FC7D17D8
:10256C00F98FD5BF1841E177BD0794517D8F9C45FC
:10257C00D58F9449D58FD449D58F944DD58FD44DC3
:10258C00D58FD451D58F9455D58FD98F1CC1DC459F
:10259C005CC19C411CC5DC415CC582801C4189C569
:1025AC0093E717001CC1828041677917F98FDDBF53
:1025BC001C4101C6CD8F1CC1828093C5F5FFFD8DDA
:1025CC000CC18280B70702409C437D8D3335A0003F
:1025DC008280B7070240C8C38280EDB758410C41D6
:1025EC005045B7070140938707403E9793C6F5FFC8
:1025FC0039C29043758E90C3D043F18ED4C314432B
:10260C00CD8E14C3184190479346F7FF758E90C733
:10261C00D047F18ED4C7144541466399C600944700
:10262C00D98E94C7D447558FD8C78280B697944318
:10263C00558F98C382801C43F58F1CC38280B707CB
:10264C00014093870740C8CB8280B7066745B72700
:10265C000240938636123797EFCDD4C31307B79A3F
:10266C00D8C3D4D3D8D38280372702401C4BA16661
:10267C00D58F1CCB8280B7270240984BB70602003F
:10268C00137505F0558F98CBC8CB984B136707047F
:10269C0098CBD847058B75FF984B8176FD16758FB7
:1026AC0098CB8280372702401C4BC166137505F00E
:1026BC00D58F1CCB5C47858BF5FF372702405C47D9
:1026CC00898BF5FF3727024013060010B386F500FF
:1026DC0003A80600B386A70023A006015447898AE5
:1026EC00F5FE9107E394C7FE1C4BB7062000D58F6F
:1026FC001CCBB7270240D847058B75FF984BC1768A
:10270C00FD16758F98CB82809C4513F7070113F843
:10271C00F70001C7D8413368E80037270240145B43
:10272C003707000F758F45EB8546A38BD18637177E
:10273C0001406315E5009A2135839AA18E2113F788
:10274C00F50F31C318418146054E930E80023D4F63
:10275C00930F800421433316DE00B3F8C5006310D9
:10276C0016036392D70950C913962600B318CF00ED
:10277C0093C8F8FF33F7E8003316C800518F85066D
:10278C00E39B66FC18C11307F00F6375B704544143
:10279C000146054E930E8002130F8004214313074C
:1027AC0086003317EE00B3F8E5006311170363904E
:1027BC00D70558C9931826003D47331717011347FF
:1027CC00F7FFF98EB3181801B3E6D8000506E31825
:1027DC0066FC54C1828037170140E311E5F603C74C
:1027EC00718729DF89BFE391F7F910C9B5BFE3936E
:1027FC00E7FD18C9C1B7B70630001356050113170A
:10280C0005013378D5003D8A4183B70701406351F8
:10281C000502DC4F6317D80641068D46B396C600F9
:10282C0093C6F6FFF58FF1E9370701405CCF828044
:10283C00D443B727024083A80703B707000FB3F7A9
:10284C00170189EB93D71600F978CE06B3F7170169
:10285C00CD82DD8EB70730006314F806370600F121
:10286C007D1637080140B3F7C60083264800F18E69
:10287C002322D800BDCD558112053315A700C98F71
:10288C008DA8B7061000E98E85C28D46B396C6009A
:10289C0093C6F6FFF58FC9D955811375F53F12050F
:1028AC003315A700C98F49B755811375F53F12052C
:1028BC003317A7009346F7FFF58FBDD5D98FADB76A
:1028CC00B7071000E98F99CB8D47B397C70093C713
:1028DC00F7FFF58FB706000FD58F69BF558112052D
:1028EC003315A7009347F5FFF58F3707000FD98FE6
:1028FC00D9F5370701405CC3828055811375F53FCC
:10290C0012053317A7005DBF93F63500370701405A
:10291C0093F5C50F2E9710478A06BD47B397D7007E
:10292C0093C7F7FFF18F1CC71C473315D5005D8D7E
:10293C0008C78280AD67373700409387A7AA1CC3AE
:10294C008280B567373700409387C7CC1CC33717D5
:10295C0002405C53898BF5DF8280B7160240DC4263
:10296C0051777D17F98FC98FDCC2828099C53717D3
:10297C0002405C4BC98F5CCB8280B7170240D84BAE
:10298C001345F5FF798DC8CB828099C53717024066
:10299C001C4FC98F1CCF8280B7170240984F13452C
:1029AC00F5FF798D88CF828099C5371702405C4F2F
:1029BC00C98F5CCF8280B7170240D84F1345F5FF03
:1029CC00798DC8CF828099C5371702405C47C98F73
:1029DC005CC78280B7170240D8471345F5FF798D45
:1029EC00C8C7828099C5371702401C4BC98F1CCBB6
:1029FC008280B7170240984B1345F5FF798D88CB31
:102A0C0082801E319206558EC207C183F99BC20784
:102A1C00C1831EB11A2D1E31B736014042074183C6
:102A2C001377C7F0518FC2074207938606C0C18344
:102A3C0041836304D502B70600406300D502938638
:102A4C000640630CD500B71600401386068063065B
:102A5C00C500938606C06319D500F59BDD8D93E503
:102A6C0015001AAD0EB18280D59BCDBF1E31856885
:102A7C009388F8CFC207C183BD9BC207C1831EB127
:102A8C001A2DB2061E312206D18E33771701558FBF
:102A9C0013984500B7360140C20742084207938697
:102AAC0006C0C1831358080141836304D502B706DD
:102ABC0000406300D50293860640630CD500B71620
:102ACC000040138606806306C500938606C0631B10
:102ADC00D50093F7F7FD3368F800936508011AAD3C
:102AEC000EB1828093F7F7F5DD8D93E50501C5BF37
:102AFC001E2137370140130707C0C207C183630487
:102B0C00E502370700406300E50213070740630C3A
:102B1C00E50037170040930607806306D5001307BE
:102B2C0007C06316E500BA2193F7F7F8D98FFA219D
:102B3C0093F7F7CFC207C183D98F1EA1DE215EB5F3
:102B4C009E211EB5B7370140938707C06314F5006B
:102B5C009C251EB985475EA982801E31922103D81F
:102B6C002500C207C183F99BC207C1831EB11E3168
:102B7C0056211A2DC207C183420741831377C7F828
:102B8C00518F9225F59BC20633660601D18F3736DD
:102B9C000140130606C0C1826310C502B225DD9B3D
:102BAC0003D8E500D18FD221ED9B93F6F6CFD18FD0
:102BBC00D22533660601D18E56A11AADFA215AB927
:102BCC001EB182801E31E5769386F6CFC207C18393
:102BDC00BD9BC207C1831EB11E3152211A2D03D8D1
:102BEC008500C207758F9621C18393F7F7FDA20666
:102BFC00558FB62142064207B3E606019206D58FE1
:102C0C00B7360140C207938606C041824183C18317
:102C1C00631ED502B62593F7F7F703D8C5009206C5
:102C2C00D58FD621C207C183920693F7F7FBD58FB8
:102C3C00FD769386F63FF18EF225C207C18333668B
:102C4C0006010A06D18E13960601418252A11AADD5
:102C5C00FA211ABD1EB182801E31962103D885003F
:102C6C00C207C18393F7F7EFC207C1831EB11E31B0
:102C7C0052215A2DC207C183420741831377C7F8EB
:102C8C00558FB62193F7F7DF4206B3E60601A2068D
:102C9C00D58FB7360140C207938606C04182C183E7
:102CAC00631FD502FD769386F67FF58FB62503D884
:102CBC00C500A206D58FD621C207C183A20693F701
:102CCC00F7BFD58FF576FD16F18EF225C207C183BD
:102CDC00336606011206D18E13960601418252A16B
:102CEC005AADFA215ABD1EB182801E317D777D17F7
:102CFC00F98F1EB11A315E21562D65761306F6CF6B
:102D0C00F18E922103D88500C2072206D18E7976E6
:102D1C007D16718FB221C206C1833366060132065D
:102D2C00518F373601404207130606C0C1824183DA
:102D3C00631AC50071767D16F18FD2251A06D18FD4
:102D4C00C207C1835EA1FE2156AD2310F5041AB152
:102D5C008280BA219E21D98FDA21D98FFA21D98F7D
:102D6C009A25D98FBA25D98FDA25D98F2312F50454
:102D7C0082801E2189C593E717001EA18280C2079D
:102D8C00C183F99BC207C183CDBF8357450491C54D
:102D9C002167D98F2312F5048280C607C583DDBF56
:102DAC005E2501C6CD8F5EA5828093C5F5FFED8FA4
:102DBC00DDBF4EA98280EDB71E2189C593E70708B8
:102DCC001EA18280C207C18393F7F7F7C207C183A4
:102DDC00C5BF1E2DC207C183DD9BCD8F1EAD82806A
:102DEC001E2D7D771307F77FF98FA205CD8FC207B4
:102DFC00C1831EAD82805E2DC207C183DD9BCD8F4A
:102E0C005EAD82805E2D7D771307F77FF98FA2056B
:102E1C00CD8FC207C1835EAD82801E2DC207C183D8
:102E2C00ED9BCD8F1EAD82801E2DA205C207C183E6
:102E3C0093F7F7BFCD8FC207C1831EAD82805E2D85
:102E4C00C207C183ED9BCD8F5EAD82805E2DA20546
:102E5C00C207C18393F7F7BFCD8FC207C1835EADA5
:102E6C0082801A318547B397B70093C7F7FFF98F64
:102E7C001EB11E313316B600D18FC207C1831EB1ED
:102E8C0082801A319147B397B70093C7F7FFF98F38
:102E9C001EB11E313316B600D18FC207C1831EB1CD
:102EAC0082805E21C207C18393F7F7F8C207C18302
:102EBC005EA15E21CD8F5EA182801E2DC207C183D3
:102ECC00CD9BC207C1831EAD1E2DCD8F1EAD828042
:102EDC001E2D7D771307F73FF98F1EAD1E2DA20512
:102EEC00CD8FC207C1831EAD82805E2DC207C18308
:102EFC00CD9BC207C1835EAD5E2DCD8F5EAD828052
:102F0C005E2D7D771307F73FF98F5EAD5E2DA20521
:102F1C00CD8FC207C1835EAD8280EFE26FAD9A2187
:102F2C00BE21D22196252A84AE8409EBBE85EFF012
:102F3C005FADEE20228551376FE0CFAD914563191F
:102F4C00B700BE85EFF09FB2EE2022855137EDB76A
:102F5C002145EE206317A7081A30920613988700B4
:102F6C00420741831377F7EF420741831AB04A2C8B
:102F7C001A304208420541811375C5F0518D558DAB
:102F8C00B736014042074205938606C04183135869
:102F9C00080141816304D402B70600406300D402E7
:102FAC0093860640630CD400B71600401386068047
:102FBC006306C400938606C0631DD4001377F7DF45
:102FCC003368E800136708104AAC1AB02285313F09
:102FDC00A5B7FD769386F65F758F5D8F1367071027
:102FEC00E5B71A307D757D15698F1AB04A2C856846
:102FFC00B2061A309388F8CF2206558E3375150118
:10300C001398C700518DB73601404207420842055C
:10301C00938606C041831358080141816304D4028E
:10302C00B70600406300D40293860640630CD400BC
:10303C00B7160040138606806306C400938606C04C
:10304C00631FD400F977FD177D8F3368E80085671F
:10305C00B367F8004AAC1EB022855D35F1BD13771D
:10306C00F7DFD98F0567D98FF5B71E294A25ED8F64
:10307C004205418189C76D8D3335A00082800145A1
:10308C00828093C5F5FFC205C1810EA982805E299D
:10309C0001C6CD8F5EA9828093C5F5FFED8FDDBF94
:1030AC0093868195F85E9442158F42074183239451
:1030BC00E18813565700239FC18683D6619363FF23
:1030CC00E62E83D64186637BD72EEFE2CF90938793
:1030DC0081959386C1AE2390018A9385070813844A
:1030EC00C1AED8438843A107098F420741833337C8
:1030FC00E60098C29106E396F5FE1C480440584839
:10310C0003290403BD8C1C500E09BD8C5C408E043D
:10311C00B98F5850B98F8A07584CDD8C5C44B98FE5
:10312C005854B98FDD8C184C1C44B98F1854B98F76
:10313C008607DD8C5C580387A18B93F4F40F8A0708
:10314C003369F9005C5C3369F9001C5C86073369F0
:10315C00F9001379F90F8387B18D0DEB95E3EFE04F
:10316C00AFC90DC583C7A188850793F7F70F2385D2
:10317C00F18813074006637BF7008547A38DF18C1C
:10318C00BD47B387274113F9F70F21A08387B18D72
:10319C00E5FB1C40832E4400032E84000323C40053
:1031AC008328040103284401084C4C4C1050545003
:1031BC0083228402631E991E03DF61882390018A97
:1031CC00050F2393E189032FC402854F6314FF017C
:1031DC00A38EE18DAA07A60EB3E7D701B3E757007C
:1031EC00220EB3E7C7011E03B3E767009A08B3E7E3
:1031FC0017011608B3E707011205C98F8E05CD8F8D
:10320C000A068606D18FD58F83C6C187A1C605460F
:10321C006399C600239DF1868947238EF1866FD072
:10322C00DFFE09466396C600238CF1868D47F5B701
:10323C000D46E396C6FE93065002E392D7FE83D664
:10324C00A187938741C3B69783C6818794A3238EA6
:10325C000186F1B79306F00263DCF6008386C18920
:10326C0095C2239AF18AA38D018A2386018845BFD2
:10327C009386F7FF1306E0026368D604239A018A4B
:10328C00A38DF18A83C7B18BD9DB83C6E18CC1FADC
:10329C008386A18BC9D683C5B1886386F500A385C7
:1032AC00F18823860188914663E5F60099462386CA
:1032BC00D18883C6C1889545850693F6F60F63E4DD
:1032CC00D5022386D188A1BFD5FF8386D1898547B6
:1032DC006394F600238E0188239A018AA38D018AB8
:1032EC002386018845B7FD172386018893F7F70FCE
:1032FC009306300263ECF60099668A079386C68FB4
:10330C00B6979C4382870547A38CE18E03C7B18B8C
:10331C00A38D018A238DE18C19B70947F5B70D47A9
:10332C00E5B71147D5B71547C5B70547238AE192CD
:10333C00F1BFA38201C40547238BE180C1BF0547C0
:10334C00A382E1C4238B0180D1B7238301C47DBF49
:10335C0005472383E1C45DBFF12383C751C48507AF
:10336C00A38CF18E65B705472381E1888567938728
:10337C0007E02390F1888387D189E399E7F8238EBE
:10338C00F18869B72381018885679387F7EF2390CC
:10339C00F188ADBF03C751C48547998F238BF1804A
:1033AC00B5B703C751C449BF8547238EF186B9BF52
:1033BC0083D7418885072392F18851BD828003D73A
:1033CC00018869C323A8E1882390018883A7018918
:1033DC001305000405431397070141839355870098
:1033EC0093564700AD8E358F1347F7FF3D8B9207F1
:1033FC00D98F99669386C69813D7C74023A8F188AE
:10340C00369713F6F70036960307070003060600F7
:10341C00FD583E07518F13D687403D8A91873696CB
:10342C00BD8BBE9603060600838706002A06518FC5
:10343C009607D98F23AAF188370700208345873553
:10344C00938681A5138615000A0636968A0508C24E
:10345C00AE964D45138681A503A846003317A300ED
:10346C007D8F3357A70013586800334707011A079D
:10347C0098C67D159106E31115FF3307B60023207E
:10348C000700828083C7E18C95CB1357F540BD476D
:10349C0011EBA1460546FD176388D700B355F540DF
:1034AC00E39BC5FE138787FF23ACE1883355E540CA
:1034BC0093179700C98F23A8F18809BF41657D1523
:1034CC00BD47CDB72A88368519A036873E8663530B
:1034DC00C80263D405036302A702B307B600B306A0
:1034EC00A700858785866389B700E3D007FF93859E
:1034FC001700D1BF3A85828036858280AA870D8DD0
:10350C00635405003385F54082803717004083569D
:10351C004782420513070780858241815E3385838C
:10352C00958FC207C183E3EBA7FE8280EFD25FCCFD
:10353C002A8419E06FD01FCE1305803EF9377D1415
:10354C00CDBF2D8DA1479316850113171500E1866C
:10355C001375F70F63D60600134777001375F70F33
:10356C00FD1793F7F70FE5F38280EFD27FC82A841B
:10357C00B304B5000145631494006FD0BFC9AA858C
:10358C00082005047D3FC5BFEFD29FC6130600037C
:10359C00938541C31385C1B2EFD09FC89305000337
:1035AC001385C1B2D9379384C1B22388A4026FD0DA
:1035BC007FC61845918D10493387E50214510CC113
:1035CC00AA87329763D3E6003687B306D04063539D
:1035DC00D7003687904FD447C8433386C54033064F
:1035EC00D6028CCFD45398CBB385A502D0CBB29551
:1035FC003385E50063D3A6003685B306D04063530C
:10360C00D5003685C8CF8280EFD2FFBC83A58185DB
:10361C00138541C31306000CEFE0EFB4938741C34D
:10362C00F83B8D47138441C363F4E70089477CB8AA
:10363C00082C13078002930785FF93F7F70F636835
:10364C00F722930785FE93F7F70F6147636CF7003A
:10365C001307703E9306F07C13060003E1459D357D
:10366C002394A182082C2D47930745FF93F7F70F5E
:10367C00636CF70085661307F07C9386E6F9614668
:10368C00B14589352394A182082C0D47930785FFFA
:10369C0093F7F70F636CF7008566138756BB4146AB
:1036AC009386D6769D45393D2394A18203D781829A
:1036BC00B73701402396E7C21C3C9306400613879C
:1036CC00E7FC1377F70F63EDE61A50289396270063
:1036DC00239BD1826312061A85832397F182A90753
:1036EC002396F1823C2C13078002B387E70209452D
:1036FC00D1072398F184EF10705B1C30638B071C8F
:10370C00682CAD4763F3A7001545EF10305A83477B
:10371C000402A30304029387771786072394F1848A
:10372C00834714029387B73686072393F184834724
:10373C0024029387E7552392F184034734022381B3
:10374C00E18483474402FD1793B71700A384F192D9
:10375C00834754029387A70F2390F18483478402F5
:10376C005147ED1793F7F70F6375F700954723044F
:10377C00F402834794022547FD1793F7F70F6375FF
:10378C00F700A947A304F4028347A4022147FD17BD
:10379C0093F7F70F6375F700A9472305F4028347E6
:1037AC00A4022547636EF704D956B387D7021306D4
:1037BC00800C8517BE8693F7F70F6374F60093069B
:1037CC0080FC2387D18403D7618393F7F60F3E9750
:1037DC00239BE18203D7E1823E972397E18203D7B3
:1037EC0001823E972390E18203D701833E97239871
:1037FC00E18237370140835647C4D58F2312F7C473
:10380C008347B402130760049387A7FB93F7F70F62
:10381C006375F700FD57A305F4028347C402130731
:10382C002006FD1793F7F70F6365F7000547238E06
:10383C00E1908347D4022547FD1793F7F70F637583
:10384C00F7009547A306F4028347E4022547636318
:10385C00F70C09476384E70A636DF702C1EF23880D
:10386C00018AA388018A8547238EF18835A0130726
:10387C00F07C2395E1822DBD8D46B387D702B1BD77
:10388C0093076009239BF182930750052397F182DC
:10389C0091BD11476388E70683D701851307B012E2
:1038AC006364F700238D0182383C93060002B3C693
:1038BC00E6021307001933D7E7023347D7022392E6
:1038CC00E18213070003B3D7E702B3C7D7022391F2
:1038DC00F18203D5018505661307401F9306803ED0
:1038EC00130686BB9305C012EFF0DFBD239EA182A9
:1038FC006FD0BF918547A388F18ABDB70547238850
:10390C00E18A59BF8547A38EF188238E0188A3884D
:10391C00F18A59B7A388018A2388018A0547238E27
:10392C00E1889DBF03C74185938741C398B303A624
:10393C0081859305000C138541C36FD0DFFC83C7D1
:10394C00418D03D8018E938601B69398170003A579
:10395C00018DC696962242958507158D93F7F70F24
:10396C0093063006138701B663F3F6008147238A6A
:10397C00F18C9307400623A8A18C3355F50246978A
:10398C002310070142054181239BA18C8280EFD239
:10399C003F86EFD01FE88387A18189CB09E983C7D4
:1039AC00A18A85072385F18A6FD0DF866DF983C7DD
:1039BC00C18B850793F7F70F238EF18A03C73181EB
:1039CC00E374F7FE2385018AC5B7EFD27F820387A4
:1039DC006181854683C701816313D7088507E20798
:1039EC00E187994663C8F6062388F18083870181B5
:1039FC000947B3E7E702238DF18089679387078036
:103A0C00739007808387C18D89E703850181EFE07F
:103A1C006FF789679387878873900780EFD07FE46F
:103A2C0003A7418F85679387479C63F5E70005479C
:103A3C00A38EE180038701812385018AA385018AF6
:103A4C007D170607938781C2BA9703A7C1809AA3F3
:103A5C006FD04FFC2388E180238CE18E41BFFD1792
:103A6C00E207E187635AF0002388F18083C7018164
:103A7C0093C7F7FF858B41B799472388F180238C37
:103A8C00D18EEDB7EFD2CFF6370700408357C74042
:103A9C00C207C183F99BC207C1832316F740353790
:103AAC0003D7818A83D7618A3E9783A6C180058715
:103ABC0036979356170023A6D18083C731C6A1E34E
:103ACC008386218593574700B387D702C207C183EA
:103ADC0009831D8F2396F18C2391E18A8387D181F1
:103AEC0099E3EFD0FFD583A7C18A09671307F77055
:103AFC006365F700850723A6F18A6FD0AFF183C702
:103B0C00A192B387D7029983D1B7EFD26FEE03A7F7
:103B1C00418F9307D00763E2E706014483C7B18165
:103B2C006342F40A09649307048073900780EFD012
:103B3C00FFCF83D6618A130484882394D18AB71764
:103B4C00004083D647822393D18A23920782B707FA
:103B5C0000402392074203D7218A0507420741837D
:103B6C002396E7422398074003D7C74013671700F3
:103B7C002396E74073100480A1A0B717004003D729
:103B8C0047829307C00763EEE70003D7418A930788
:103B9C00702563E8E70003A7C18A9307301F63F120
:103BAC00E70283C7418C850793F7F70F2382F18CCB
:103BBC0013074006E373F7F6EFD05FC723A6018A1D
:103BCC006FD04FE5EFD0FFC48387A181E30AF5FEE8
:103BDC000504A9B7EFD2CFE183C7E18C95E3EFF0F1
:103BEC00DFDE89679387077123A6F1800567B71716
:103BFC000040130787382392E78285472387F18C8F
:103C0C00EFD01FC46FD00FE1EFD20FDC938741C30D
:103C1C00BC2B03D5418B138441C36388073E838738
:103C2C00118BD1CB03D7418B9307704163EBE736F4
:103C3C0083D7418B1307703E938707FDC207C1835F
:103C4C006360F7061438038661818547958F631D81
:103C5C00F60203D6C18383A7C1806378F60003D62E
:103C6C00418A9307700C63F6C7008387518C638B72
:103C7C00073823A6018A0546A38EC180238BD180E9
:103C8C00EFD0DFBA2385019083D7418B0387418323
:103C9C00938707FD8607998F9387F702239CF18CF6
:103CAC0003D7418B9307F00263EDE70E239C018C45
:103CBC0023850190FDA083C521848347640286057A
:103CCC009385853E6381071C63D5A504183803864C
:103CDC006181631DE602239C018C0547238EE18CD8
:103CEC00038781921DC70547118F238BE180238E9B
:103CFC00018C1307F07F9306F0021306007D2384DA
:103D0C000192EFF02FFC239CA18C21A08387C18D05
:103D1C00EDD383C7218403D5418B1306803E8607E0
:103D2C001D8E6354C504143883886181854533889E
:103D3C00D54063990803238EB18C83858192239C93
:103D4C00018C85C5238BD180238E018C1307F00247
:103D5C009306F07F814523840192EFF0AFF6239C0C
:103D6C00A18C21A08387C18DF5D383C7218483D6F1
:103D7C00418B1307803E86071D8F63C0E602938735
:103D8C00873E63CCD700239C018C0387C18D11C760
:103D9C00238E018C05472384E1928387118BE39357
:103DAC0007E803C7F18C8387518363D3E7267C280C
:103DBC0063800726EFE02FBCEFD05FA7239B018A1F
:103DCC0093076006A387F18C8387518C6397073A1E
:103DDC008387A18B6383073A3C3813070005B387AD
:103DEC00E70203D7618B9387E70263CFE7308387C2
:103DFC00918F639B0738582883C7E18C631F073E5C
:103E0C00239D018E99EB0547A38EE18023A6018AA1
:103E1C005C2C6386073AEFE06FBB03476402838731
:103E2C00C18D630807346393073A03D7618B9307FB
:103E3C00E00283D6A18F63EDE74683D7618283D6F8
:103E4C00A18F63F4D700239DF18E8387C19189CB19
:103E5C008397E18383D6A18F63D4D700239DF18E02
:103E6C0083A78191635BF0309306F00263F7E63031
:103E7C00096713070771B3C7E70203D7A18FBA9776
:103E8C00239DF18EDDAC63D5A50614388387618143
:103E9C00639FD70203D6C18383A7C1806378F600E2
:103EAC0003D6418A9307700C63F6C7008387518C45
:103EBC00638F070C8547958F238BF18023A6018A8E
:103ECC000547A38EE180EFD07F962385019083C5B3
:103EDC00218403D5418B1307F07F86059306F002EE
:103EEC001306007D9385853EEFF0CFDD239CA18CDE
:103EFC0003C7218483D6418B9307803E0607998F95
:103F0C0063D4F6061438038661818547958F631C4C
:103F1C00F60203D6C18383A7C1806378F60003D66B
:103F2C00418A9307700C63F5C7008387518CADC72A
:103F3C0023A6018A0546A38EC180238BD180EFD0A6
:103F4C00FF8E2385019083C7218403D5418B1306F3
:103F5C00803E86071D8E1307F0029306F07F814585
:103F6C00EFF04FD6239CA18C83C7218483D6418B41
:103F7C001307803E86071D8FE3C1E6E29387873ED9
:103F8C00E3CDD7E0239C018C2385019039B59307B1
:103F9C00803E239AF18A25BF9307803E239AF18AAB
:103FAC005DB7143883876181639ED70203D6C183C2
:103FBC0083A7C1806378F60003D6418A9307700CFF
:103FCC0063F5C7008387518C9DCB8547958F238BD9
:103FDC00F18023A6018A0547A38EE180EFD01F85CF
:103FEC002385019083D7418B03874183938787BEB9
:103FFC008607998F9387F702239CF18C15B9239A26
:10400C00018ACDB7239A018A41B1239CA18C51BB63
:10401C003C38A5C303D5818DF5470346840263E87C
:10402C00A702239B018A83458402D14703D5818D46
:10403C00B385F502E34AB5D81307F07F9306000A5F
:10404C001306F07FEFF00FC8239BA18AB5BBF9478D
:10405C00E30BF5FCD1473306F602E356C5FC130718
:10406C00000A9306F002F945EFF0CFC5239BA18A15
:10407C005DBF83874192D1C783C75193A1CB03A75F
:10408C00018683A6C18503D5818D1306F07F930528
:10409C00F002EFF02FC3B787930393870770B3C772
:1040AC00A702383C0583B3C7E7022393F19203D7E9
:1040BC00818D9307E00263EBE700B7070020239B99
:1040CC00018A23A8073223A00192FDB983A701928C
:1040DC00096713070771B3C7E7021307F07FC2071D
:1040EC00C183239BF18A6377F7009307F07F239BAF
:1040FC00F18AD9B91307F002E368F7CC93070003F0
:10410C00FDB783D7818DE5B783C7E18C99EFEFE0DD
:10411C008F868387D18199E3EFF0DFAB85472387C7
:10412C00F18C03D76183239EE18E83D6E1823C38E8
:10413C0003D5618B1307007DB9C3938686021306E2
:10414C00F07F93059008EFF0EFB7420583476402C8
:10415C004181239DA18E99E3238E018C3C3813075A
:10416C000005B387E70203D7618B9387E702E3D09F
:10417C00E7C88387C18DE38A07CA6FD06F8813069F
:10418C00F07F9305F002C1B7FD1793F7F70F1147B6
:10419C00636BF70019678A071307C799BA979C4393
:1041AC008287EF10605FA38C018EB1B1EF10A06419
:1041BC00DDBFEF10406AC5BFEF10E04DEDB7838750
:1041CC00C18DE39C07C4EFD01FFB81B983D5418B14
:1041DC001305803EEFF08FB21305853E42054181F9
:1041EC002399A19283D78182FD176345F500EFD007
:1041FC00FFFD41B7EFD0FFCBADBF9DE7854AA38E46
:10420C00518123A6018A238E018A5C2CD9CF3C389C
:10421C0081EF834794029387E73D86072399F192B8
:10422C00EFD03FC9238E518D838701811307C003C3
:10423C0093067016FD17B387E70203D7A184BA97CC
:10424C0013970701C207C187418363D6F600930712
:10425C0087E9C207C1872395F18CC207C1831387F5
:10426C007707420741879306701663D6E6001387DB
:10427C00F7F0420741872394E18C1387F70E42072E
:10428C0041879306701663D7E600938777F81397E8
:10429C00070141872393E18C3C3805476394E70081
:1042AC00A382F18C239D018EE9B5EFD0DFECADBF7D
:1042BC00503CF947B3D7C74003A6C18AE37FF6B693
:1042CC0083D7618363F4F600239DF18E83D701833A
:1042DC0083D6A18FE3F3D7B6239DF18EB9BEEFC27F
:1042EC003FF183C7C19205476399E700EFE05FDBBD
:1042FC0023860192EFF05F9111A80947E39CE7FE3A
:10430C0003D5C18EEFF0AF8B238601926FC09FF067
:10431C00EFC29FEB8386618183D7A18C639C060ED1
:10432C008507C207C1879306701663D3F6008147D1
:10433C002395F18C83D7818C930670168507C20761
:10434C00C18763D3F60081472394F18C83D7618CAA
:10435C00930670168507C207C18763C5F6002393C1
:10436C00F18C19A02393018C8397A18C3704002026
:10437C00130404018607A2970395070083D7418194
:10438C00930A007D3E9583D78182138941C33305FF
:10439C00F5028347D902294A334555033305F50203
:1043AC003345450342054181EFD0FF9F8397818CB4
:1043BC008607A2970395070083D741813E9583D743
:1043CC0081823305F5028347D90233455503330502
:1043DC00F5023345450342054181EFD07F9D83971C
:1043EC00618C86073E940315040083D741813E956A
:1043FC0083D781823305F5028347D90233455503B0
:10440C003305F5023345450342054181EFD0FF9A50
:10441C006FC01FDFFD17C207C18763D40700930766
:10442C0070162395F18C83D7818CFD17C207C18739
:10443C0063D40700930770162394F18C83D7618C97
:10444C00FD17C207C187E3DC07F09307701601BFA5
:10445C00EFC21FDAB716004003D7468242074183EA
:10446C002393E18A2392068203A6C1808D47B387EA
:10447C00C702938606809145BA9713D7270023A6C7
:10448C00E18013D757000607420741838D83998F2C
:10449C002396E18CC20703A6C18AC1832391F18ABA
:1044AC00DA326374F700E3EDC5FEEFF00FD223852B
:1044BC00018A138741C3238E018A83A7C18A543F83
:1044CC0003476702850723A6F18A558F05C34D471D
:1044DC00637CF70003A7C1809307007D63E6E700C8
:1044EC00A38E0180EFD0CFB56FC0DFD203A7C18000
:1044FC009307F07CE5B7EFC21FCE83D7A18F239231
:10450C00F18A83D7819085072394F19083D7019307
:10451C0085072398F19283D7E19203C7B190850761
:10452C002397F19283C7A18BD98FBDE78387218B0A
:10453C00A5C783D7818D639E072883D74191956644
:10454C00938606E28507C207C183239AF19063F52F
:10455C00F60483D6818BF94763FBD7268547238DD9
:10456C00F18A838791926381072683D7C1901307C1
:10457C002017AD6AB3D7E7020144373B0040938A5A
:10458C00AAAAA385F1908387B1906345F42283870F
:10459C00018B99E3238D01C4938741C3F03F1384AE
:1045AC0041C315C683C7318503D7E190FD17B29778
:1045BC005146B387C7020507420741832397E19011
:1045CC0063D7E7000547A38EE18C2397019083877F
:1045DC00518C639A071C8387D18195CB83C7E18C5F
:1045EC009DC7EFD0AFA4EFF08FBA83C7B18A85E334
:1045FC008386A18183C7A18A6380061E83C621811D
:10460C0063F7F6008547A385F18AEFF07FE403D7C3
:10461C00E192D14763F5E70E8387C191239701920D
:10462C00A1CF83C7E18CA9CB0346C4029307800CAE
:10463C00370500203306F6028395E18F130585308C
:10464C00EFE03FF78967938707713345F50283D70E
:10465C00E18383D6E182898FC207C187239FF182D0
:10466C0063D4D700239FD1828396E1839307007D87
:10467C0063D4D700239FF1825C3C8DCB83C7E18C44
:10468C0095C703D6C18483A5C180370500201305C7
:10469C00052EEFE01FF203A781913A9537E716003C
:1046AC0013070736635DA71223ACE1908387419211
:1046BC00B9C783C7E18CA1C703D6619283A5C18E0C
:1046CC00B709002013850933EFE0BFEE83A70192F1
:1046DC003E95635305000145B76738019387078FF3
:1046EC0063D3A7003E8523A0A19203A7C18A930799
:1046FC00300663E6E7009389093323A80900838712
:10470C00B183B9CB03A6C18A9306500903D7C18FD5
:10471C00854763FCC60063FAE60003A6418F930647
:10472C00401F994763E3C600C14703D6418AA3895A
:10473C00F1823305E64063DCA70ABA972392F18A2B
:10474C0003A7C1809307401F63F3E70C78388547B4
:10475C002389F1822389E18483D6A1828387A18B6B
:10476C0003D7418AC5CB83C7E18CCDC703D6618BF8
:10477C009307F00263F0C70AB307D7021306007D54
:10478C00B3C7C7028507C207C183239EE18E239F4F
:10479C00F18A373701402316D7C2231AF7C2231CDC
:1047AC00F7C2231EF7C283D7018A85072390F18AAB
:1047BC006FC0BFA5EF00307613054006EFE01FD7A2
:1047CC00050423205B01C1B3EF00F074C9B3238946
:1047DC00018A239A0190C9B383C6118115B563551B
:1047EC00A00023ACA190D9B523AC0190C1B5330680
:1047FC00C7400308740163DAC7001D8F2392E18A56
:10480C00238901822389018581BF2389018523891D
:10481C00018299B78387C18D91CF83D721931306DA
:10482C000083B387D702B3C7C70203D681820506BC
:10483C00B29791BFB307D7021306007DB3C7C70267
:10484C0099B7EFC2FF97EFD04F92856781179443CA
:10485C0037E725591307A73D639BE602D443376717
:10486C00B84E1307973D6394E602DC271307B0029A
:10487C006381E756130750036388E7547D476398B9
:10488C00E700B7870008938707C023ACF184EFD00B
:10489C00EFCFEFD02FD5EFE03FD7938741C3B8339D
:1048AC008947138441C3631BF7005820C94763171A
:1048BC00F700038741851C3063D4E70289473CB07D
:1048CC00B7575242938727F15CC0B767563293872C
:1048DC0047F51CC48D67938707335EA4EFF08F8474
:1048EC001C38FD17B337F000238BF18083D78182FE
:1048FC002395F1825C2899E3A309040083476402A1
:10490C009DCF1307803E2390E1828547238DF18252
:10491C003EA883D7E182231A0400230B040093875B
:10492C0027032397F18283D7C1829387270323968A
:10493C00F18283D7618393872703239BF182EF0056
:10494C00F04B239C018AEFD02F92AD679387A7AAD7
:10495C00373700401CC3EFC09FBE83C7519381C73C
:10496C0005472382E192EFC01FCA8967938481C2F5
:10497C00138C8732BA209E20BA97DA20BA97FA2085
:10498C00BA979A24BA97BA24BA979107858723A61F
:10499C00F18E83C7E18989C7EFF07F94238F01885B
:1049AC0083A6C18A114799476373D7008D47238922
:1049BC00F180A388F180AD67373700409387A7AAB1
:1049CC001CC3583885476310F70203D7818203A5AF
:1049DC00C1801306800C9356170093050006EFE078
:1049EC007FAE2395A18258388947631FF70083A7B0
:1049FC00418F130740099386B7F9636FD73C15476E
:104A0C00B387E7022395F18203D7018A89679387DD
:104A1C00077163F0E70A8387A18BB9C3EFD0AFF5B9
:104A2C00239B018A2389018A238D018AB737014090
:104A3C00239C018A239A07C2239C07C2239E07C288
:104A4C00EFD06FB913060010814513858195EFC027
:104A5C008FFEB707EFBE37E700E0938707083CC728
:104A6C0003D7018AA967938707C463F4E704EFD0DF
:104A7C008FF0239B018A2389018A238D018AB73702
:104A8C000140239C018A239A07C2239C07C2239EC0
:104A9C0007C2EFD04FB413060010814513858195E2
:104AAC00EFC06FF9B707EFBE37E700E09387070851
:104ABC003CC703D781909567938707E263F4E704BB
:104ACC008397E18F93058016139707013347B7023D
:104ADC0083A541902E9723A2E19003872188094654
:104AEC00630BC7308D476306F7328547631AF700AF
:104AFC0083C7818E2381C18893E707202390F18897
:104B0C002394019083A6C18A1306803E03D7818D1E
:104B1C00637ED630A387018C1306700C6374E63267
:104B2C0083872191638F07349307F01863E4E700C0
:104B3C00A387018C83A5C18E8D47B3C5F5028387EE
:104B4C00818F23AAB18EADC7A94763F3D70603A5FE
:104B5C00018FEFE0BF9A83A7418F13D717006375BE
:104B6C00A7041307F07C6361F70403C7319123A6F4
:104B7C00018A0507A389E190382819E783D6618B50
:104B8C001307F0026368D70083A6C1801307803E29
:104B9C006374D7002387018C8546A38ED18003D7FD
:104BAC0061830583239EE18E238C018E23A8F18ED5
:104BBC008387D18D81EF8387419389CBEFE0DF9C95
:104BCC0013051003EFD04FE2238A019283C7E18DC6
:104BDC001307800C850793F7F70F238FF18C637EF7
:104BEC00F70CEFC01F8603D5418EEFC07F86239351
:104BFC00A18E2384A18E83D7218E8566138646CE03
:104C0C00B387C702FD169D45B3C7D70283D68183F0
:104C1C00B387D70293064006B3C7D70283D6C19099
:104C2C00B386B602B6978D872396F190EFE03FD10D
:104C3C0023A0A1908567138647CEB307C502130640
:104C4C004033B3C7C702239FF18EC207C1833E8690
:104C5C00C207C18763D30700014683879192239FC4
:104C6C00C18E8386518CA1CB03D6C19003D701840E
:104C7C008387B190B387E702635EF62083D70191F7
:104C8C008507C207C1832398F1901307C0C73387E8
:104C9C00E6029566938606E23697635EF700239BE1
:104CAC00018AEFD04FCDEFC07FB82387018C239CB6
:104CBC00018A238D018A238F018C2382018C8387A7
:104CCC00518C6390072083A7C18E372509001305EB
:104CDC00057C3345F50283C7E18C3305F5024205AB
:104CEC0041812390A18CA9473355F5022391A18CC6
:104CFC000387A1839307007D11CF03D7E18183D66E
:104D0C00018203D6218283D54182EFE0AFFB93175A
:104D1C000501C1832393F1828345B40203C5818EBF
:104D2C0063FDA50083D6E1811386A5000547858226
:104D3C00D915EFE02FF92393A18203A7C18A93071A
:104D4C00300663ECE71403A7C1809307401F63F69A
:104D5C00E714B147A38DF1808347F40289CF03D5C3
:104D6C00418A5D47B5461306007D93054006EFE08A
:104D7C006FF52385A192B717004003D74782AD6723
:104D8C00938787FCE3F8E7BE83CAE18C8547E393FE
:104D9C00FABE83C7F18C8507A387F18CEFC01FA9DE
:104DAC00A38E518103D7618B9307F00263E9E7006F
:104DBC008567938787382387018C23A6F18023A6E8
:104DCC00018AEFF0EFE87DB6B707010893870780FB
:104DDC006DBCB7070208DDBFFD171307200663651E
:104DEC00F7009307401F39B91307800FE37EF7C014
:104DFC009307204E01B91307200393F7F70FB3D78E
:104E0C00E70293E707602390F1888D472381F188AF
:104E1C00C5B983D7C1906547B3D7E70293F7F70FAE
:104E2C0093E707402390F1888547CDB70DEB838737
:104E3C002191A387018CE39D07CE13074006A38A1B
:104E4C00E182CDB9A387018C303805E683872191A7
:104E5C00E39007CE93075009E3F1E7FE1DA013067C
:104E6C004006E36BD6CA303819EE83872191FDD307
:104E7C0065B91306F009637CE60083872191E399F9
:104E8C0007CA29476DBF1306F009E36BE6C8A38771
:104E9C00018C6DBF2398019039BD03A5418F31471B
:104EAC008D461306401F93054006EFE0AFE103A7C4
:104EBC00C180A38DA18093071003E3EFE7E8894736
:104ECC0051BD83D7618B9306000363FCF610838678
:104EDC00A18B638806109387F7FCC207C1839306E6
:104EEC00700563E1F6088387B19295CBB706004055
:104EFC0083D7C640C207C183F99BC207C1832396DF
:104F0C00F640EFC0BF92B7370140239A07C2239CEB
:104F1C0007C2239E07C2EFD04FACA3850192EFF0DE
:104F2C002FBF3C3C0967930687B51307A032334764
:104F3C00F70203D5618B1306800793050003B3C6F4
:104F4C00F602EFE02FD8239CA18042054181EFE0CF
:104F5C00CFDB03D7818193078025B3C7E70223906A
:104F6C00F18C09BC8547A385F192EFF06FBA03D79A
:104F7C00618B9307800C63F8E7009307000523957A
:104F8C00018C239CF18003D58181EFE00FD88397AE
:104F9C00A18CE391079E85472387F18CA38EF1802A
:104FAC0023A8818FA382018CB717004023A681818F
:104FBC0023AA818F23928783D14723A6F18A238E3C
:104FCC00018C03C7C1812388E1805C3C89C703D76E
:104FDC00C182239EE18EEFE05F9FEFC0BFDE6FF0DA
:104FEC007F995C2C054AA3854193B9CB03D681826A
:104FFC00834794021307D6FE8607BA97C207C1836C
:10500C002392F18A03D7A18293061600B307F70205
:10501C00B3C7C702B387F640239FF18AEFC07FE97D
:10502C0003D7E18BB7370140239AE7C2239CE7C231
:10503C00239EE7C2238E418D2390018C6FF09F93AA
:10504C00B7370140239A07C2239C07C2239E07C28D
:10505C00EFD06F92D5B7EFC22F9793878195C84346
:10506C009C431D8D1307F5CD9307605763E1E7183B
:10507C0083C7E1942390018A6380071283C7C1948C
:10508C0013898195B9C783270900032749001D8F10
:10509C009307104E63F3E70E03C781949307B00494
:1050AC0063F4E70683D7818423870194E507C2075D
:1050BC00C1832394F1840947938727D1B3C7E702AF
:1050CC00238AF1C4EFE01F8623840194EF00A072C1
:1050DC0025A883C7D19499E32395A19483D56184A2
:1050EC0003D5A1948507A386F194EFE02FC1930615
:1050FC00200363FEA6022387019483D76184239542
:10510C00F19483C7C194C1F32390018A03A701953D
:10511C0083D7418B83A6C186B305F74063DCB60CFD
:10512C00B697C207C183239AF18A6FC06F8D03278C
:10513C000900832749001D46998F03D761843307E3
:10514C00C702BA978D83C20703C7D194C183239337
:10515C00F184E3F4E6FA9D17C207C1832393F1842B
:10516C0009479387A792B3C7E702A38AF1C485477F
:10517C002386F194EF00406249B783C781941D46A2
:10518C0085072384F19483D78184B387C702BA97A8
:10519C008D832394F18409B783C761C485CB83D5F0
:1051AC00418463EDA5002E8683D581841307803E50
:1051BC008146EFE02FB123A8A194B9B703D661843F
:1051CC001307007D9306903E8505E5B703D66184F1
:1051DC0083D581841307F07F9306F002EFE08FAE46
:1051EC0093070003E3C9A7FC23A8019431BF239CB8
:1051FC00018A29BFB385E74063D4B600958F15B7F4
:10520C009317070105B783D7818689461387F7FF64
:10521C004207418363EDE60203A701949307B003B1
:10522C0063E6E702B7070020A38C073423820194BE
:10523C008547A388F18AB94637070020230CD73459
:10524C00930600022383D1862389F18A8280F11789
:10525C00C207C1831147E36BF7FE03A701949307C1
:10526C003006E3E5E7FE8547A388F18A370700207F
:10527C00A30CF7342382F1949D46370700207DBFA1
:10528C0083D781861567130767D5938777F3C20792
:10529C00C1836360F70285479306F0022388F18A85
:1052AC0037070020A30CD73489462383D186238962
:1052BC00F18A8280EFB2DFF39386819595679442F1
:1052CC00938707E2138781952394F18623A0019499
:1052DC00130E87070143814581484843630CD50071
:1052EC00B306D54063F6F60093970601C183854853
:1052FC00B69505431107AA86E311C7FF63040300A3
:10530C0023A0B194638408002394F18683A70194AD
:10531C000387118B958323A0F19485476314F700C1
:10532C00EFF07FEE0387018B85476314F700EFF0F6
:10533C003FF583C7118B03C7018BD98F89E7EFF03A
:10534C009FECEFF0FFF36FB0FFECEFB27FEA8387D7
:10535C00A18B95C38387B18D99CF8387618781CBCF
:10536C00EFC0EF9D89472386F1926FB0BFEAEFC083
:10537C00AFA38547CDBF8387218B91E7EFF09FF3D8
:10538C00EFC0EF9BDDB70547E391E7FE0387B18DD7
:10539C0011CF8387618781CB03D5C18EEFE02F823C
:1053AC00EFD01FD0F1BFEFC02FA0C1B70387118B77
:1053BC006316F700EFD0DFCEEFC06F980387018B39
:1053CC008547631AF700EFC02FA351C10D47238304
:1053DC00E186EFC0CF968387A18BC1FB8387118BAE
:1053EC00B9CB03C7C1931D466367E60483D5818B94
:1053FC0015466372B6040507138681951377F70F6C
:10540C0003A58193238EE1927C5E1042AA97918F23
:10541C0023ACF19221466310C70213D737009D834A
:10542C004207C207C1834183B305F7001D8F239246
:10543C00B186239BE19203D5818D1DE183C7E19455
:10544C0089EF83D7818B8507239CF18A39BF094764
:10545C002383E186EFF03FC0ADBF239C018A31B7B7
:10546C00239C018A9307C05DE3F1A7F083D5619477
:10547C00EFE0CF88130720036379A700A38701947B
:10548C0083D7818D2393F194CDB583C7F194850790
:10549C0093F7F70FA387F194E374F7FE83C7C194D6
:1054AC00E5F3552E05472387E194C9BF2D47AA87FD
:1054BC006373A700AD478607238AF194828003C7E4
:1054CC004195B7370140239AE7C2239CE7C2239E3C
:1054DC00E7C2828037474900130707E03347A7022A
:1054EC00B7360140A9472394F6C22E8593170701BE
:1054FC00C1832396F6C283C7419542074183B38784
:10550C00E7021307F07CB3C7E702C207C183239AF3
:10551C00F6C2239CF6C2239EF6C26FE02F81EFB237
:10552C00BFCA0D45EFC01FC6938B41C32D64856464
:10553C0037E9A700138ACB078147B73A0040130419
:10554C00A4AA130BF00F938404FA1309098C83C6D5
:10555C004B0323A08A002390018A639C6603850772
:10556C0093F7F70F890BE3944BFFEFC0DFC0B7370E
:10557C000140239407C203D781822396E7C2AD670B
:10558C002390018A373700409387A7AA1CC36FB0BA
:10559C003FC703C75B030DE737370140231A07C228
:1055AC00231C07C2231E07C21307E00FB387E702B1
:1055BC003385F60042054181EFD05FF781475DB737
:1055CC001306700F3305C7021307E00F26953345FA
:1055DC00A902B385E702E1679387076AB3C7A702FD
:1055EC00B69542054181B385F50293074006B3C5D4
:1055FC00F502C205C181EFF0FFEDC9B7EFB25FBF95
:10560C008967938707807390078003C741C6930708
:10561C0090036301F702EFF09FF003D78182B73755
:10562C0001402396E7C28967938787887390078028
:10563C006FB05FBE373401409307F07C2316F4C281
:10564C00EFF0FFE70D45EFC0FFB393077003231492
:10565C00F4C21305800CEFD07FED1545EFC09FB25F
:10566C00930780022314F4C21305800CEFD01FECB7
:10567C001945EFC03FB1E5472314F4C21305800C64
:10568C00EFD0DFEAEFC03FAF231404C22390018AAE
:10569C00130404C059B7EFB21FB4373401401304DC
:1056AC0004C09307F07C89645EB493870480739084
:1056BC0007802D69B73900401309A9AA9307C003C5
:1056CC0023A029011EB4EFF09FDF0545EFC09FAB6F
:1056DC001305B004EFD09FE5930700051EB4130526
:1056EC00B004EFD0BFE49307A0051EB41305B004BB
:1056FC0023A02901EFD09FE3EFC0FFA723140402DE
:10570C002390018A83D78182938484885EB47390BA
:10571C0004806FB09FAFEFB2BFAD896493870480F4
:10572C0073900780373401409307F07C2316F4C242
:10573C00AD67373700409387A7AA1CC393070005B2
:10574C002314F4C2EFF0BFD70D45EFC0BFA3130570
:10575C004006EFD0BFDD930760042314F4C2130599
:10576C004006EFD0BFDC930780022314F4C213056C
:10577C004006EFD0BFDBEFC01FA0231404C2239060
:10578C00018A83D78182130404C0938484885EB415
:10579C00739004806FB01FA8EFB29FA537340140FF
:1057AC009307F07C2316F4C2930720032314F4C24E
:1057BC00EFF0FFD00945EFC0FF9C13056009EFD057
:1057CC00FFD6AD67373700409387A7AA1CC3F947AC
:1057DC002314F4C213056009EFD05FD5EFC0BF9955
:1057EC00231404C22390018A83D78182130404C03A
:1057FC005EB46FB03FA2EFB2BF9F37340140930746
:10580C00F07C2316F4C2930780022314F4C2EFF049
:10581C001FCB0945EFC01F9713056009EFD01FD1AF
:10582C00AD67373700409387A7AA1CC393070005C1
:10583C002314F4C213056009EFD05FCFEFC0BF9300
:10584C00231404C22390018A83D78182130404C0D9
:10585C005EB46FB03F9CEFB21F98B737014013078F
:10586C00F07C2396E7C28967938707807390078043
:10587C002D69EFF0DFC413047007373B00401309A8
:10588C00A9AAD14A373A0140FD5933455403232084
:10589C002B0193040AC0EFC0FF8E93571440A90745
:1058AC00C207C1832314FAC229457914EFD01FC84B
:1058BC00E31D34FDEFC03F8C23140AC22390018AF0
:1058CC0083D781822316FAC289679387878873905E
:1058DC0007806FB09F930000AA210000B221000046
:1058EC00BC210000C2210000CA210000D021000010
:1058FC0012330000263300002A3300002E33000040
:10590C0032330000363300003E3300004A330000CF
:10591C00563300005C330000183300006433000081
:10592C00723300009033000018330000183300006D
:10593C00183300001833000018330000A0330000A7
:10594C00AE33000018330000183300001833000089
:10595C00183300001833000018330000183300000F
:10596C0018330000183300001833000018330000FF
:10597C00183300001833000018330000B433000053
:10598C00191B12131D1516171A090A0B1E0D0E0FD3
:10599C00AE410000B8410000BE410000C44100000F
:0459AC00AE41000008
:1059B00000000000000000000102030406070809BF
:1059C000B400B700BA00BD00C100C400C700CA00DF
:1059D000CD00D000D300D600D900DC00E000E30009
:1059E000E600E900EC00EF00F200F500F700FA0035
:1059F000FD0000010301060109010B010E01110167
:105A00001301160119011B011E01200123012501AB
:105A100028012A012C012F01310133013501380100
:105A20003A013C013E014001420144014601470167
:105A300049014B014D014E015001510153015401E7
:105A40005601570158015A015B015C015D015E017D
:105A50005F0160016101620163016301640165012D
:105A600065016601660167016701670168016801F8
:105A700068016801680168016801680168016701DF
:105A800067016701660166016501650164016301E3
:105A900063016201610160015F015E015D015C0102
:105AA0005B015A015801570156015401530151013C
:105AB00050014E014D014B0149014701460144018E
:105AC000420140013E013C013A01380135013301F8
:105AD00031012F012C012A01280125012301200178
:105AE0001E011B0119011601130111010E010B0109
:105AF0000901060103010001FD00FA00F700F500AD
:105B0000F200EF00EC00E900E600E300E000DC005A
:105B1000D900D600D300D000CD00CA00C700C40011
:105B2000C100BD00BA00B700B400B100AE00AB00C8
:105B3000A700A400A1009E009B0098009500920081
:105B40008F008C008800850082007F007C00790037
:105B50007600730071006E006B00680065006200E3
:105B60005F005D005A005700550052004F004D0085
:105B70004A0048004500430040003E003C00390018
:105B800037003500330030002E002C002A0028009A
:105B900026002400220021001F001D001B001A0007
:105BA00018001700150014001200110010000E005C
:105BB0000D000C000B000A00090008000700060099
:105BC00005000500040003000300020002000100BC
:105BD00001000100000000000000000000000000C3
:105BE00000000000000001000100010002000200AE
:105BF000030003000400050005000600070008007C
:105C000009000A000B000C000D000E00100011002E
:105C1000120014001500170018001A001B001D00C8
:105C20001F00210022002400260028002A002C004A
:105C30002E00300033003500370039003C003E00B4
:105C400040004300450048004A004D004F0052000C
:105C5000550057005A005D005F0062006500680053
:105C60006B006E0071007300760079007C007F008D
:105C70008200850088008C008F00920095009800BB
:105C80009B009E00A100A400A700AB00AE00B100E5
:105C900000000000010000000000000032000000D1
:105CA00000000000000000000000000000000000F4
:105CB0001027000050C30000000000009001000009
:105CC00000000000E80300000000000000000000E9
:105CD0000000000000000000204E0000A08601002F
:105CE000000000000A000000000000006400000046
:105CF00000000000000000000000000000000000A4
:105D00001027000050C30000070608000300000031
:105D100000D8B805D4300000010303024B00010095
:105D2000640001050501D007840332000A00D00792
:105D3000CF07CF074B004B0020030101011E780065
:105D400014000101DC05D0074A016400DC056C0782
:105D50004C04B40064194B00D007011E020000007F
:105D600000F80008E8030000B036000050C320002F
:085D7000204E0000FA000000C3
:10F7E0004F5242545F563230330000000000000098
:10F7F0000000000000000000000000000000000009
:0400000300001000E9
:00000001FF
