:041000006F00402518
:1010D000001000000000000042160000441600004E
:1010E000000000005212000000000000000000009C
:1010F0005212000052120000000000000000000028
:1011000078170000000000002E180000000000000A
:10111000521200005212000052120000521200003F
:10112000521200005212000052120000521200002F
:101130005212000088170000C61700004616000073
:1011400052120000521200005212000068160000F5
:1011500052120000E4160000521200005212000069
:1011600052120000521200005212000052120000EF
:1011700052120000521200005212000052120000DF
:101180005212000004180000521200005212000017
:1011900052120000521200005212000052120000BF
:1011A00052120000521200005212000052120000AF
:1011B000521200005212000052120000521200009F
:0C11C000521200005212000052120000F7
:1011CC00397101436EC619A0397141536AC866CA98
:1011DC0062CC5ECE19A0397101535AD056D252D47A
:1011EC004ED64AD826DA22DC06DE330161408282F2
:1011FC0041114AC026C222C406C68282B24D4101A8
:10120C00024D924C224CB24B4101024B924A224A63
:10121C00B2494101024992442244B24041018280C8
:10122C002A8309CA83830500230073007D160503F6
:10123C0085056DFA82802A8311C62300B3007D16C2
:10124C00050365FE828001A09701002093814190E7
:10125C0017410020130141CA174500001305857E74
:10126C0097F5FF1F938545D91386818763FAC500CF
:10127C008322050023A0550011059105E3EAC5FE64
:10128C00138581879385C1CF6377B5002320050033
:10129C001105E36DB5FEFD42739002BC8D42739057
:1012AC004280930280087390023097020000938270
:1012BC00A2E193E2320073905230EF003078973213
:1012CC0000009382E25E7390123473002030938797
:1012DC008187D6232396D18EF6232390D182962311
:1012EC002395D18EBA232394E18E8280EFF25FF0A6
:1012FC001D711306400281456818353F1306000224
:10130C00814548080D3F372401409307C4443EDA19
:10131C00938781873EDC93070008BEC493070010B7
:10132C00BEC693070040B7040240BEC89307000234
:10133C00138584001149BECA4C188567BECC02C403
:10134C0002C602C8CAC0EF102023054613858400CC
:10135C00A945EF102027138584008545EF10402503
:10136C00B7E700E0130700FCA38DE7403707000840
:10137C0023A0E710854513050020EF1040620145BE
:10138C00EF10E05E37150140930720042C00130585
:10139C0005807C8402C8EF10603813050440EF0010
:1013AC00F07C85473ECC4C08B7070E001305044073
:1013BC003ED002CA02CE02D223042103EF00107FDA
:1013CC0085460546854513050440EF1060098546A2
:1013DC000946994513050440EF10800885460D46D3
:1013EC00C14513050440EF10A0079D461146C545A5
:1013FC0013050440EF10C006854513050440EF109B
:10140C004001854513050440EF00B07F814513056D
:10141C000440EF10E01413050440EF10A0009304F7
:10142C0004402685EF10A0006DFD13050440372401
:10143C000140EF104000930404402685EF1040005B
:10144C006DFD854513050440EF1080110545EF1027
:10145C00A00C2561C1B33725014085451305054016
:10146C006F00907EEFF2DFD803D5C18E856793872E
:10147C0047CE3305F5023185EF10000C420541854E
:10148C0051BBEFF2FFD6B717014093870780054495
:10149C0080CB984385450545419B98C3984313677A
:1014AC00370098C398431367870098C3EF10C05454
:1014BC0081450545EF104054B7070040130700065F
:1014CC009AAF0D479AB30387C19485453705004001
:1014DC009AB71307F003DAB723808188EF10B00EA8
:1014EC0015BBEFF2FFD085450545EF10E050814567
:1014FC000545EF10605037070040B7170140231027
:10150C00070293870780054690CB9443C19A94C3F6
:10151C00944393E6460094C38387818B8DC712AFA7
:10152C00B707002003879735B707004085459AB762
:10153C007D57DAB72398070037050040EF10B00845
:10154C0023800188C1B98D471EAF930700041EA7E5
:10155C00C1BFEFF2FFC90387818B8547631BF7007F
:10156C00370700401E33C207C183F19B93E7170076
:10157C001EB3853F37070240938701967CD3B7078C
:10158C0000401386470330D303C6A1868566938635
:10159C00B69870CF34CF23920702D62793E6062055
:1015AC00D6A7963393E6160096B3962393E61600C9
:1015BC0096A33C4F93E747003CCFA9B9EFF25FC32A
:1015CC00C9358567370702409387A7993CCF938726
:1015DC0001A67CD3B70700401386470330D33706E8
:1015EC000020034686355D0670CFD62793E606208D
:1015FC00D6A7963393E6160096B3962393E6160079
:10160C0096A33C4F93E717003CCF29B1B717014085
:10161C0093870780884705898280B7170140938795
:10162C0007809843D447419B93E61600D4C71367B1
:10163C00870098C3828001A001A00945EF00307B90
:10164C0009C51945EF00307A59312145EF00307A40
:10165C0001C52145EF00307973002030B7070240F7
:10166C009C4341113707040022C626C4F98F89CF49
:10167C008387818B89C7B70700400D479AB3B7079B
:10168C00024037070400D8C3370402401C40B7049B
:10169C000200E58F91CB3C4CF99B3CCCEF30D05405
:1016AC0044C005472383E18AB70702409843B70635
:1016BC000800758F09CFB84F37050800799BB8CF54
:1016CC00EF007072EF30505205472383E18A3244A9
:1016DC00A24441017300203041113705000222C69B
:1016EC00EF00F07015CD374400400146930500081B
:1016FC0013050440EF10F01A3705024013050508D6
:10170C008145EF00F06A8357C44037050002C207D9
:10171C00C183CD9BC207C1832316F440EF00B06C8C
:10172C0037050008EF00B06C15CD3744004001467A
:10173C009305000813050440EF10B0168357C440FE
:10174C003705024013050508C207C183CD9BC207AC
:10175C00C1832316F4408145EF00906537050008DE
:10176C00EF0070683244410173002030B7F700E09D
:10177C0023A20700EF20705D73002030B7170040E4
:10178C0003D7478283A7C18F858363FCE700B70724
:10179C000140938707402147D8CBEF204038730096
:1017AC00203051208387A181E31BF5FEB707014050
:1017BC00938707402147D8CBDDB7B717004003D735
:1017CC00478283A7C18F858363FCE700B70701407D
:1017DC00938707404147D8CBEF206034730020300B
:1017EC0099208387A181E31BF5FEB70701409387FE
:1017FC0007404147D8CBDDB7411122C63704004022
:10180C00854513050440EF10900701C9EF20C0284F
:10181C00854513050440EF10100832444101730054
:10182C00203073002030B717014037070020938712
:10183C0007809C470355A7357D8D1375F50F828066
:10184C00B70701409387074098431D9B98C3614796
:10185C00D8CB8280B7070140938707406147D8CB2C
:10186C00370700200346C735944305473317C70095
:10187C00558F98C3828083870181054637070020E6
:10188C00639EC702B746024023A2F6808D47230E03
:10189C00F734A146B7070020239DD7348347C735BB
:1018AC0005473317F7008386A181B707014093875B
:1018BC000740A5C223A40700D8C78280914663972E
:1018CC00D700B747024023A2C780C9B70946638532
:1018DC00C7001546639EC700B747024013060007B2
:1018EC0023A2C780230ED734B7070020C1466DB79B
:1018FC008D46639CD700B74702409306000323A292
:10190C00D7809147230EF734C5B79946E385D7FEA8
:10191C0071B723A6070098C78280B367B6008D8B7A
:10192C00A1EFEFF25F8B9377F60FAE9713070010D2
:10193C001171AE843284636EF702137904F0AA89B4
:10194C00EF00F05113060010CA850A85EFF05F8D89
:10195C001374C40F2686CE8533058100EFF05F8C9F
:10196C004A85EF0090528A854A85EF00F054EF00CB
:10197C00F05011616FF07F8982806FF07F8A8280D6
:10198C00EFF27F85011137140140930400024C00E3
:10199C001305048064822313010023140100231512
:1019AC000100231601002317010002C802CA02CC51
:1019BC0002CEEF00B056F577938707C04C001305A5
:1019CC0004C07C8202C6EF007055E14711494C00FF
:1019DC00130504807C824AC6EF0050544C0013055A
:1019EC000480231221014AC6EF0050530547B74724
:1019FC00024023A2E7808D450145EF003072A147DC
:101A0C00414908083EC84ACC02CA02CEEF00503EFB
:101A1C002145EF00104437E400E0E547A308F40447
:101A2C0085679387877893E717007CD0A30C944045
:101A3C00B70700022320F41091450145EF00106E0A
:101A4C0008084AC84ACC02CA02CEEF00703A414597
:101A5C00EF003040E9472309F40485679387677CDE
:101A6C0093E717003CD4230D9440B70700042320C0
:101A7C00F4109309041005616FF02FF9EFF24FF792
:101A8C001567B73700401307575598C30D47D8C390
:101A9C000567130707FA98C7EF00106BEF00B06BE0
:101AAC006FF04FF7EFF2CFF40565397185451305EB
:101ABC00158002C402C62318010002D802DA02DC27
:101ACC0002DE02D002D202D42316010202CA02CCD8
:101ADC0002CEEF00D06C37051600854513050504C2
:101AEC0037340140EF0070529307F07C2C00130543
:101AFC0004C03EC602C4EF10E000130504C08545C7
:101B0C00EF10C02C130504C0A145EF10C02D930796
:101B1C0000060C18130504C03ED802DA02DC02DE03
:101B2C00EF10E004130504C08145EF10403013059D
:101B3C0004C0A145EF10002C0C18130504C0231988
:101B4C000102231A0102EF102009130504C081457C
:101B5C00EF10C02E130504C0A145EF10002B0C187C
:101B6C00130504C023190102231A0102EF100010FF
:101B7C00130504C08145EF10C02D130504C0A14509
:101B8C00EF1080290C18130504C023190102231A25
:101B9C000102EF10C016130504C08145EF10402C54
:101BAC00B7074B003ED20C10B7070020130504C03A
:101BBC003ED43714014002D023160102EF10A01AB4
:101BCC0061498D4489474C08130504C0FC824ACEF8
:101BDC0026CCEF00B03485474C08130504C0FC82BA
:101BEC004ACE26CCEF009033930700084C0813051F
:101BFC000480FC824ACE26CCEF0050329307004082
:101C0C004C0813050480FC824ACE26CCEF00103120
:101C1C00930700204C0813050480FC824ACE26CC86
:101C2C00EF00D02F930700104C0813050480FC82A2
:101C3C004ACE26CCEF00902E21616FF0AFDDEFF293
:101C4C002FDB85451145EF007057B71700407D57C6
:101C5C002396E7825D472394E7826FF0AFDBB7F7FB
:101C6C0000E023A0070023A20700814694C7014788
:101C7C00D8C783A581801567130707E233D6E50221
:101C8C0081463D4790CBD4CB98C3B7E700E00157D2
:101C9C002386E740056723A0E7108280EFF24FD53B
:101CAC0085450945EF009051B70700405D472394E7
:101CBC00E7420567130707FA2396E742B7E700E008
:101CCC00A3860742096723A2E7106FF0AFD4EFF2A7
:101CDC002FD285450545EF00B04A37E700E0930762
:101CEC0000FCA30FF740B70700802320F710FD4737
:101CFC002308F70485679387876693E717003CD31F
:101D0C006FF04FD1854535456F007049EFF24FCEDE
:101D1C0079718545054502D202D402D602C602C8A5
:101D2C00231A010002CC02CE23100102EF0010494D
:101D3C0085451145EF00B0469147371501400544E4
:101D4C003ED64C108D4713050580231281023ED4DC
:101D5C00EF00D01CC167FD176C00370500403EC872
:101D6C0002C6EF00305A854537050040EF100006DB
:101D7C00814537050040EF1000142C083705004052
:101D8C0022CE02CC23100102EF10601A05469305F7
:101D9C00002037050040EF10400345616FF08FC7FE
:101DAC00EFF20FC5A123B93F1D37ED39493D453D34
:101DBC00C13EED35A13F6FF0EFC5B7370140239A17
:101DCC00A7C28280B7370140239CA7C28280B73755
:101DDC000140239EA7C28280B737014003D747C179
:101DEC0013671700239AE7C08280B7070040239639
:101DFC000702239207028280EFF28FBF3734014033
:101E0C00130504C005468145EF10E006130504C018
:101E1C0005469145EF102006130504C00546A14563
:101E2C00EF106005130504C011468145EF10A006A4
:101E3C00130504C011469145EF10E005114613053A
:101E4C0004C0A145EF102005130504C08545EF0023
:101E5C009073130504C08545EF007074130504C01E
:101E6C008545EF0050763704004013050440854546
:101E7C00EF007071130504408545EF00D074835753
:101E8C00C4408545C207C183F99BC207C183231691
:101E9C00F4403714004013050480EF00D06E130596
:101EAC0004808545EF003072EFF04FC40546814544
:101EBC0037050040EF00307C854537050040EF00CA
:101ECC00906C6FF02FB53717014093070780D44300
:101EDC007D761306F60FF18ED4C3D443130707C0D7
:101EEC0093E60630D4C393060040D4CBD44393F688
:101EFC00F6F0D4C3D44393E60603D4C39306002070
:101F0C00D4CBD443C19AD4C3D44393E63600D4C3C0
:101F1C0093060010D4CB144393F6F6F014C3144379
:101F2C0093E6060B14C31443C19A14C3144393E6EB
:101F3C00B60014C39843B70600B01207118398C3B8
:101F4C009843558F98C3828003C701C5B7170140CA
:101F5C00938707C01DE79843419B98C39843136729
:101F6C00370098C30547D8CBB71701409387078034
:101F7C00D8431377F7F0D8C3D8431367070BD8C3EC
:101F8C0082809843419B98C398431367B70098C3CA
:101F9C00E1BFB7170140138707C01443938707802D
:101FAC00C19A14C3144393E6360014C3854654CB2C
:101FBC00D8431377F7F0D8C3D84313670703D8C3B4
:101FCC0013070020D8CB8280B7170140138707C0B6
:101FDC00144393870780C19A14C3144393E63600C5
:101FEC0014C3854614CBD8431377F7F0D8C3D84322
:101FFC0013670703D8C313070020D8CB828003C70D
:10200C0001C5B7170140938707800DEB9843B706BE
:10201C0000301207118398C39843558F98C3130748
:10202C000008D8CBB717014093870780D843419B52
:10203C00D8C3D8431367B700D8C382809843B70678
:10204C0000B01207118398C39843558F98C3D9BF1A
:10205C00B7170140938707809843B70600301207E3
:10206C00118398C39843558F98C313070008D8CB96
:10207C00D843419BD8C3D84313673700D8C3130741
:10208C000010D8CB8280B717014093870780984304
:10209C00B70600301207118398C39843558F98C325
:1020AC001307000898CBD843419BD8C3D843136778
:1020BC003700D8C313070010D8CB828003C701C5E3
:1020CC00B7170140938707C005EF98431377F7F0D4
:1020DC0098C398431367070398C30947D8CBB7171E
:1020EC00014093870780D843FD769386F60F758F52
:1020FC00D8C3D8438566938606B0558FD8C38280E3
:10210C0098431377F7F098C398431367070B98C35A
:10211C00F9B7B7170140138707C01443938707809B
:10212C0093F6F6F014C3144393E6060314C38946DE
:10213C0054CBD843FD769386F60F758FD8C3D8430E
:10214C0013670730D8C313070040D8CB8280B7176A
:10215C000140138707C014439387078093F6F6F06A
:10216C0014C3144393E6060314C3894614CBD84313
:10217C00FD769386F60F758FD8C3D8431367073057
:10218C00D8C313070040D8CB8280EFF26F8651374B
:10219C0009357D3D6FF00F887D15954763E1A704E8
:1021AC00EFF20F859967938707980A053E951C41B6
:1021BC008287793D113D193721A0A13F31358135F9
:1021CC006FF04F85F9336137DDBF59354937AD3B7A
:1021DC00C5BF81374D3DE5BF6D3B7535E9BF82808D
:1021EC00EFF20F81AD37CD33793D6FF0AF82EFF267
:1021FC002F80E935913B21356FF0CF81EFE25FFF06
:10220C00B74700402A87138507405E2537040240F4
:10221C0013040408C207C183CD9B93E787005EA516
:10222C0058C0938741B35CC4054693050008EF0082
:10223C00506785452285AD2E6FE0DFFDB717024054
:10224C009843B706FFF01367170098C3D843758FF0
:10225C00D8C39843B706F7FEFD16758F98C39843FD
:10226C00B706FCFFFD16758F98C3D843B70601FF60
:10227C00FD16758FD8C337079F0098C737470240A4
:10228C0013070780144393E6060114C3D8438D66E5
:10229C0093860680D8C3D843558FD8C3D843B70686
:1022AC00C1FFFD1613670750D8C3D843758FD8C329
:1022BC00D843B7062800558FD8C39843B7060001FA
:1022CC00558F98C3B70600029843758F75DFD843B6
:1022DC00B7160240719BD8C3D84313672700D8C3E5
:1022EC002147DC42B18BE39EE7FE82803717024028
:1022FC005C43A146B18B6396D7065C435843C166D9
:10230C00C983BD8B758F8907C5466393D700C947B1
:10231C0001EF3747024003270780418B09CF37175E
:10232C007A001307072021A8371702405843B70635
:10233C000200758F6DD737173D0013070790B387D1
:10234C00E7023717024054433707002013070700F2
:10235C009182BD8A36971823B3D7E70023A4F18066
:10236C008280B7177A0093870720E1BFEFE25FE81E
:10237C00B727014093870740631CF500854513057B
:10238C000020A12D814513050020812D6FE09FE8D1
:10239C00B737014093870780E31AF5FE854513058F
:1023AC000040252D814513050040C5B75841B7079E
:1023BC00F1E09387F7EF944D7D8F9C41D58FD44DF1
:1023CC00D58FD441A206D58FD98F5CC11845B7F7EC
:1023DC00F1FF9387D77FD4457D8F9C49D58F94454A
:1023EC008606D58FD98F1CC55855B70710FFFD171A
:1023FC007D8FDC29FD1793F7F70FD207D98F5CD5AA
:10240C0082801C4589C593E717001CC58280F99B07
:10241C00EDBF1C4589C593E707101CC5828093F757
:10242C00F7EFE5BF1C4593E787001CC58280084584
:10243C000D81058982801C4593E747001CC582806D
:10244C0008450981058982801C4591C537075000D4
:10245C00D98F1CC582803707B0FF7D17F98FD5BF88
:10246C00A54763F7B7048D47138765FF3307F7025A
:10247C000328C5009D47B397E70093C7F7FFB3F751
:10248C000701B396E600DD8E54C5994763E3C70494
:10249C0095477D163306F6025859FD47B397C7008A
:1024AC0093C7F7FFF98F3396C5005D8E50D98280A4
:1024BC000D473387E502032805019D47B397E700D5
:1024CC0093C7F7FFB3F70701B396E600DD8E14C987
:1024DC006DBFB14763E2C702954765163306F60236
:1024EC001859FD47B397C70093C7F7FFF98F339679
:1024FC00C5005D8E10D9828095474D163306F602C5
:10250C005855FD47B397C70093C7F7FFF98FB3959D
:10251C00C500DD8D4CD58280B727014093870740DD
:10252C00984711C5B7068000558F98C78280B706AB
:10253C0080FFFD16758FD5BFB7F7FF1F83A70772F6
:10254C0013D70701C207C1831D8DA9473305F502B7
:10255C009307B00255053345F5023305A740828039
:10256C005C4191C537070004D98F5CC18280370765
:10257C0000FC7D17F98FD5BF1841E177BD07945149
:10258C007D8F9C45D58F9449D58FD449D58F944D4B
:10259C00D58FD44DD58FD451D58F9455D58FD98F08
:1025AC001CC1DC455CC19C411CC5DC415CC5828006
:1025BC001C4189C593E717001CC1828041677917BC
:1025CC00F98FDDBF1C4101C6CD8F1CC1828093C524
:1025DC00F5FFFD8D0CC18280B70702409C437D8DB9
:1025EC003335A0008280B7070240C8C38280EDB7A4
:1025FC0058410C415045B7070140938707403E971F
:10260C0093C6F5FF39C29043758E90C3D043F18EBB
:10261C00D4C31443CD8E14C3184190479346F7FF8F
:10262C00758E90C7D047F18ED4C714454146639937
:10263C00C6009447D98E94C7D447558FD8C782808B
:10264C00B6979443558F98C382801C43F58F1CC357
:10265C008280B707014093870740C8CB8280B706BA
:10266C006745B7270240938636123797EFCDD4C310
:10267C001307B79AD8C3D4D3D8D382803727024054
:10268C001C4BA166D58F1CCB8280B7270240984B80
:10269C00B7060200137505F0558F98CBC8CB984B35
:1026AC001367070498CBD847058B75FF984B817639
:1026BC00FD16758F98CB8280372702401C4BC16664
:1026CC00137505F0D58F1CCB5C47858BF5FF372731
:1026DC0002405C47898BF5FF372702401306001038
:1026EC00B386F50003A80600B386A70023A0060155
:1026FC005447898AF5FE9107E394C7FE1C4BB70635
:10270C002000D58F1CCBB7270240D847058B75FF0F
:10271C00984BC176FD16758F98CB82809C4513F72C
:10272C00070113F8F70001C7D8413368E8003727D1
:10273C000240145B3707000F758F45EB8546A3806D
:10274C00D188371701406315E5009A2135839AA18A
:10275C008E2113F7F50F31C318418146054E930EA8
:10276C0080023D4F930F800421433316DE00B3F8F3
:10277C00C500631016036392D70950C9139626003F
:10278C00B318CF0093C8F8FF33F7E8003316C8002E
:10279C00518F8506E39B66FC18C11307F00F637518
:1027AC00B70454410146054E930E8002130F80046A
:1027BC002143130786003317EE00B3F8E5006311CD
:1027CC0017036390D70558C9931826003D47331754
:1027DC0017011347F7FFF98EB3181801B3E6D800A9
:1027EC000506E31866FC54C1828037170140E311DB
:1027FC00E5F603C7118829DF89BFE391F7F910C902
:10280C00B5BFE393E7FD18C9C1B7B706300013563F
:10281C000501131705013378D5003D8A4183B707AD
:10282C00014063510502DC4F6317D80641068D4603
:10283C00B396C60093C6F6FFF58FF1E93707014052
:10284C005CCF8280D443B727024083A80703B70725
:10285C00000FB3F7170189EB93D71600F978CE0662
:10286C00B3F71701CD82DD8EB70730006314F8067D
:10287C00370600F17D1637080140B3F7C6008326F2
:10288C004800F18E2322D800BDCD55811205331599
:10289C00A700C98F8DA8B7061000E98E85C28D469A
:1028AC00B396C60093C6F6FFF58FC9D9558113753B
:1028BC00F53F12053315A700C98F49B7558113751C
:1028CC00F53F12053317A7009346F7FFF58FBDD5DB
:1028DC00D98FADB7B7071000E98F99CB8D47B39758
:1028EC00C70093C7F7FFF58FB706000FD58F69BFE9
:1028FC00558112053315A7009347F5FFF58F370760
:10290C00000FD98FD9F5370701405CC38280558100
:10291C001375F53F12053317A7005DBF93F635000D
:10292C003707014093F5C50F2E9710478A06BD4710
:10293C00B397D70093C7F7FFF18F1CC71C4733150C
:10294C00D5005D8D08C78280AD673737004093870F
:10295C00A7AA1CC38280B567373700409387C7CCC2
:10296C001CC3371702405C53898BF5DF8280B71686
:10297C000240DC4251777D17F98FC98FDCC282800F
:10298C0099C5371702405C4BC98F5CCB8280B71757
:10299C000240D84B1345F5FF798DC8CB828099C581
:1029AC00371702401C4FC98F1CCF8280B7170240CB
:1029BC00984F1345F5FF798D88CF828099C53717CD
:1029CC0002405C4FC98F5CCF8280B7170240D84F52
:1029DC001345F5FF798DC8CF828099C53717024012
:1029EC005C47C98F5CC78280B7170240D847134534
:1029FC00F5FF798DC8C7828099C5371702401C4BEB
:102A0C00C98F1CCB8280B7170240984B1345F5FF3A
:102A1C00798D88CB82801E319206558EC207C18378
:102A2C00F99BC207C1831EB11A2D1E31B736014066
:102A3C00420741831377C7F0518FC2074207938631
:102A4C0006C0C18341836304D502B706004063000E
:102A5C00D50293860640630CD500B716004013864A
:102A6C0006806306C500938606C06319D500F59BE6
:102A7C00DD8D93E515001AAD0EB18280D59BCDBFCF
:102A8C001E3185689388F8CFC207C183BD9BC207EE
:102A9C00C1831EB11A2DB2061E312206D18E337798
:102AAC001701558F13984500B7360140C2074208ED
:102ABC004207938606C0C1831358080141836304FF
:102ACC00D502B70600406300D50293860640630C1E
:102ADC00D500B7160040138606806306C5009386A2
:102AEC0006C0631BD50093F7F7FD3368F8009365B8
:102AFC0008011AAD0EB1828093F7F7F5DD8D93E5E1
:102B0C000501C5BF1E2137370140130707C0C20797
:102B1C00C1836304E502370700406300E502130735
:102B2C000740630CE50037170040930607806306E7
:102B3C00D500130707C06316E500BA2193F7F7F821
:102B4C00D98FFA2193F7F7CFC207C183D98F1EA172
:102B5C00DE215EB59E211EB5B7370140938707C0B5
:102B6C006314F5009C251EB985475EA982801E3131
:102B7C00922103D82500C207C183F99BC207C183E8
:102B8C001EB11E3156211A2DC207C1834207418343
:102B9C001377C7F8518F9225F59BC2063366060151
:102BAC00D18F37360140130606C0C1826310C502AF
:102BBC00B225DD9B03D8E500D18FD221ED9B93F696
:102BCC00F6CFD18FD22533660601D18E56A11AAD20
:102BDC00FA215AB91EB182801E31E5769386F6CF62
:102BEC00C207C183BD9BC207C1831EB11E315221D6
:102BFC001A2D03D88500C207758F9621C18393F7D0
:102C0C00F7FDA206558FB62142064207B3E6060130
:102C1C009206D58FB7360140C207938606C0418213
:102C2C004183C183631ED502B62593F7F7F703D80A
:102C3C00C5009206D58FD621C207C183920693F7A1
:102C4C00F7FBD58FFD769386F63FF18EF225C20702
:102C5C00C183336606010A06D18E139606014182A2
:102C6C0052A11AADFA211ABD1EB182801E319621D5
:102C7C0003D88500C207C18393F7F7EFC207C1835E
:102C8C001EB11E3152215A2DC207C1834207418306
:102C9C001377C7F8558FB62193F7F7DF4206B3E6E3
:102CAC000601A206D58FB7360140C207938606C02F
:102CBC004182C183631FD502FD769386F67FF58F23
:102CCC00B62503D8C500A206D58FD621C207C1836D
:102CDC00A20693F7F7BFD58FF576FD16F18EF22588
:102CEC00C207C183336606011206D18E1396060104
:102CFC00418252A15AADFA215ABD1EB182801E31B9
:102D0C007D777D17F98F1EB11A315E21562D6576B0
:102D1C001306F6CFF18E922103D88500C207220646
:102D2C00D18E79767D16718FB221C206C18333663E
:102D3C0006013206518F373601404207130606C092
:102D4C00C1824183631AC50071767D16F18FD2253D
:102D5C001A06D18FC207C1835EA1FE2156AD231086
:102D6C00F5041AB18280BA219E21D98FDA21D98F2C
:102D7C00FA21D98F9A25D98FBA25D98FDA25D98FEF
:102D8C002312F50482801E2189C593E717001EA12A
:102D9C008280C207C183F99BC207C183CDBF835711
:102DAC00450491C52167D98F2312F5048280C6078B
:102DBC00C583DDBF5E2501C6CD8F5EA5828093C520
:102DCC00F5FFED8FDDBF4EA98280EDB71E2189C5C1
:102DDC0093E707081EA18280C207C18393F7F7F718
:102DEC00C207C183C5BF1E2DC207C183DD9BCD8F1A
:102DFC001EAD82801E2D7D771307F77FF98FA205FC
:102E0C00CD8FC207C1831EAD82805E2DC207C183E8
:102E1C00DD9BCD8F5EAD82805E2D7D771307F77FB6
:102E2C00F98FA205CD8FC207C1835EAD82801E2DA6
:102E3C00C207C183ED9BCD8F1EAD82801E2DA205D6
:102E4C00C207C18393F7F7BFCD8FC207C1831EADF5
:102E5C0082805E2DC207C183ED9BCD8F5EAD8280DB
:102E6C005E2DA205C207C18393F7F7BFCD8FC207B2
:102E7C00C1835EAD82801A318547B397B70093C783
:102E8C00F7FFF98F1EB11E313316B600D18FC20772
:102E9C00C1831EB182801A319147B397B70093C793
:102EAC00F7FFF98F1EB11E313316B600D18FC20752
:102EBC00C1831EB182805E21C207C18393F7F7F8EC
:102ECC00C207C1835EA15E21CD8F5EA182801E2DC3
:102EDC00C207C183CD9BC207C1831EAD1E2DCD8FF2
:102EEC001EAD82801E2D7D771307F73FF98F1EAD27
:102EFC001E2DA205CD8FC207C1831EAD82805E2D13
:102F0C00C207C183CD9BC207C1835EAD5E2DCD8F41
:102F1C005EAD82805E2D7D771307F73FF98F5EAD36
:102F2C005E2DA205CD8FC207C1835EAD8280EFE21C
:102F3C002FAC9A21BE21D22196252A84AE8409EB8E
:102F4C00BE85EFF05FADEE20228551376FE08FAC80
:102F5C0091456319B700BE85EFF09FB2EE20228534
:102F6C005137EDB72145EE206317A7081A309206AA
:102F7C0013988700420741831377F7EF4207418389
:102F8C001AB04A2C1A304208420541811375C5F01B
:102F9C00518D558DB736014042074205938606C0C8
:102FAC0041831358080141816304D402B7060040E1
:102FBC006300D40293860640630CD400B71600401D
:102FCC00138606806306C400938606C0631DD40076
:102FDC001377F7DF3368E800136708104AAC1AB0B0
:102FEC002285313FA5B7FD769386F65F758F5D8F91
:102FFC0013670710E5B71A307D757D15698F1AB008
:10300C004A2C8568B2061A309388F8CF2206558E62
:10301C00337515011398C700518DB736014042071F
:10302C0042084205938606C041831358080141812A
:10303C006304D402B70600406300D40293860640B2
:10304C00630CD400B7160040138606806306C400D8
:10305C00938606C0631FD400F977FD177D8F336804
:10306C00E8008567B367F8004AAC1EB022855D3571
:10307C00F1BD1377F7DFD98F0567D98FF5B71E2907
:10308C004A25ED8F4205418189C76D8D3335A000EE
:10309C0082800145828093C5F5FFC205C1810EA9CE
:1030AC0082805E2901C6CD8F5EA9828093C5F5FF13
:1030BC00ED8FDDBF93860196F85E9442158F420723
:1030CC0041832399E188135657002394C18883D6F2
:1030DC00E19363FFE62E83D68186637BD72EEFE2E6
:1030EC008F8F93870196938641AF2394018A9385A2
:1030FC000708138441AFD8438843A107098F4207BF
:10310C0041833337E60098C29106E396F5FE1C48DE
:10311C000440584803290403BD8C1C500E09BD8C77
:10312C005C408E04B98F5850B98F8A07584CDD8C8F
:10313C005C44B98F5854B98FDD8C184C1C44B98F32
:10314C001854B98F8607DD8C5C580387218C93F457
:10315C00F40F8A073369F9005C5C3369F9001C5C75
:10316C0086073369F9001379F90F8387318E0DEBDC
:10317C0095E3EFE0AFC90DC583C74189850793F788
:10318C00F70F238AF18813074006637BF700854706
:10319C00A381F18EBD47B387274113F9F70F21A007
:1031AC008387318EE5FB1C40832E4400032E840064
:1031BC000323C4008328040103284401084C4C4C0D
:1031CC001050545083228402631E991E03DF018920
:1031DC002394018A050F2398E189032FC402854F9C
:1031EC006314FF01A382E18FAA07A60EB3E7D701F0
:1031FC00B3E75700220EB3E7C7011E03B3E767001E
:10320C009A08B3E717011608B3E707011205C98F2F
:10321C008E05CD8F0A068606D18FD58F83C6618821
:10322C00A1C605466399C6002392F188894723837A
:10323C00F1886FD09FFD09466396C6002381F18803
:10324C008D47F5B70D46E396C6FE93065002E39202
:10325C00D7FE83D641889387C1C3B69783C621888E
:10326C0094A323830188F1B79306F00263DCF60084
:10327C008386418A95C2239EF18AA381018C238B7C
:10328C00018845BF9386F7FF1306E0026368D604F6
:10329C00239E018AA381F18C83C7318CD9DB83C631
:1032AC00618DC1FA8386218CC9D683C55189638609
:1032BC00F500A38AF188238B0188914663E5F6001B
:1032CC009946238BD18883C661899545850693F6EB
:1032DC00F60F63E4D502238BD188A1BFD5FF83867B
:1032EC00518A85476394F6002382018A239E018AC2
:1032FC00A381018C238B018845B7FD17238B018893
:10330C0093F7F70F9306300263ECF60099668A0781
:10331C0093868699B6979C4382870547A380E19054
:10332C0003C7318CA381018C2381E18E19B7094726
:10333C00F5B70D47E5B71147D5B71547C5B70547DD
:10334C00238EE192F1BFA38601C40547238BE18054
:10335C00C1BF0547A386E1C4238B0180D1B7238766
:10336C0001C47DBF05472387E1C45DBFF12383C73B
:10337C00D1C48507A380F19065B705472386E18802
:10338C008567938707E02395F1888387518AE399B2
:10339C00E7F82382F18A69B72386018885679387CA
:1033AC00F7EF2395F188ADBF03C7D1C48547998F3B
:1033BC00238BF180B5B703C7D1C449BF854723839D
:1033CC00F188B9BF83D7E18885072397F18851BD70
:1033DC00828003D7A18869C323ACE1882395018837
:1033EC0083A78189130500040543139707014183C3
:1033FC009355870093564700AD8E358F1347F7FFD3
:10340C003D8B9207D98F9966938686A213D7C740B6
:10341C0023ACF188369713F6F700369603070700AE
:10342C0003060600FD583E07518F13D687403D8A90
:10343C0091873696BD8BBE960306060083870600E1
:10344C002A06518F9607D98F23AEF18837070020B3
:10345C0083458735938601A6138615000A06369692
:10346C008A0508C2AE964D45138601A603A84600F0
:10347C003317A3007D8F3357A700135868003347C9
:10348C0007011A0798C67D159106E31115FF33073E
:10349C00B60023200700828083C7618D95CB13571C
:1034AC00F540BD4711EBA1460546FD176388D700D3
:1034BC00B355F540E39BC5FE138787FF23A0E18A34
:1034CC003355E54093179700C98F23ACF18809BF9A
:1034DC0041657D15BD47CDB72A88368519A036873D
:1034EC003E866353C80263D405036302A702B30785
:1034FC00B600B306A700858785866389B700E3D03D
:10350C0007FF93851700D1BF3A858280368582806C
:10351C00AA870D8D635405003385F54082803717DB
:10352C0000408356478242051307078085824181FC
:10353C005E338583958FC207C183E3EBA7FE828040
:10354C00EFD21FCB2A8419E06FD0DFCC1305803E5D
:10355C00F9377D14CDBF2D8DA14793168501131717
:10356C001500E1861375F70F63D606001347770035
:10357C001375F70FFD1793F7F70FE5F38280EFD272
:10358C003FC72A84B304B5000145631494006FD07F
:10359C007FC8AA85082005047D3FC5BFEFD25FC553
:1035AC00130600039385C1C3138541B3EFD05FC7E6
:1035BC0093050003138541B3D937938441B3238812
:1035CC00A4026FD03FC51845918D10493387E50291
:1035DC0014510CC1AA87329763D3E6003687B30621
:1035EC00D0406353D7003687904FD447C8433386B7
:1035FC00C5403306D6028CCFD45398CBB385A502E5
:10360C00D0CBB2953385E50063D3A6003685B306DF
:10361C00D0406353D5003685C8CF8280EFD2BFBB74
:10362C0083A5C1851385C1C31306000CEFE0EFB46D
:10363C009387C1C3F83B8D471384C1C363F4E70080
:10364C0089477CB8082C13078002930785FF93F7F2
:10365C00F70F6368F722930785FE93F7F70F61471F
:10366C00636CF7001307703E9306F07C130600039F
:10367C00E1459D352396A182082C2D47930745FFE4
:10368C0093F7F70F636CF70085661307F07C93864E
:10369C00E6F96146B14589352396A182082C0D4780
:1036AC00930785FF93F7F70F636CF7008566138715
:1036BC0056BB41469386D6769D45393D2396A182CD
:1036CC0003D7C182B73701402396E7C21C3C93064F
:1036DC0040061387E7FC1377F70F63EDE61A5028C3
:1036EC0093962700239DD1826312061A8583239912
:1036FC00F182A9072398F1823C2C13078002B3872F
:10370C00E7020945D107239AF184EF1010641C30AD
:10371C00638B071C682CAD4763F3A7001545EF10AE
:10372C00D06283470402A3030402938777178607AA
:10373C002396F184834714029387B7368607239523
:10374C00F184834724029387E7552394F18403473C
:10375C0034022383E18483474402FD1793B7170097
:10376C00A388F192834754029387A70F2392F18485
:10377C00834784025147ED1793F7F70F6375F700F2
:10378C0095472304F402834794022547FD1793F7CA
:10379C00F70F6375F700A947A304F4028347A4024B
:1037AC002147FD1793F7F70F6375F700A94723051A
:1037BC00F4028347A4022547636EF704D956B387F6
:1037CC00D7021306800C8517BE8693F7F70F637428
:1037DC00F600930680FC2389D18403D7A18393F749
:1037EC00F60F3E97239DE18203D721833E972399C1
:1037FC00E18203D741823E972392E18203D7418332
:10380C003E97239AE18237370140835647C4D58FC0
:10381C002312F7C48347B402130760049387A7FBF2
:10382C0093F7F70F6375F700FD57A305F402834771
:10383C00C40213072006FD1793F7F70F6365F70013
:10384C0005472382E1928347D4022547FD1793F75E
:10385C00F70F6375F7009547A306F4028347E4025C
:10386C0025476363F70C09476384E70A636DF70226
:10387C00C1EF238C018AA38C018A85472382F18AAC
:10388C0035A01307F07C2397E1822DBD8D46B387BD
:10389C00D702B1BD93076009239DF18293075005B0
:1038AC002399F18291BD11476388E70683D741853F
:1038BC001307B0126364F700238F0182383C930620
:1038CC000002B3C6E6021307001933D7E7023347E9
:1038DC00D7022394E18213070003B3D7E702B3C7DF
:1038EC00D7022393F18203D5418505661307401F48
:1038FC009306803E130686BB9305C012EFF0DFBD26
:10390C002390A1846FD07F908547A38CF18ABDB79B
:10391C000547238CE18A59BF8547A382F18A23820C
:10392C00018AA38CF18A59B7A38C018A238C018A52
:10393C0005472382E18A9DBF03C781859387C1C355
:10394C0098B303A6C1859305000C1385C1C36FD032
:10395C00DFFC83C7C18D03D8818E938681B6939883
:10396C00170003A5818DC696962242958507158D65
:10397C0093F7F70F93063006138781B663F3F600BF
:10398C008147238EF18C9307400623ACA18C3355D1
:10399C00F50246972310070142054181239FA18C14
:1039AC008280EFD2FF84EFD01FE88387A18189CB7F
:1039BC0009E983C7218B85072389F18A6FD09F85FD
:1039CC006DF983C7418C850793F7F70F2382F18C30
:1039DC0003C73181E374F7FE2389018AC5B7EFD29F
:1039EC003F8103876181854683C701816313D708B3
:1039FC008507E207E187994663C8F6062388F180BC
:103A0C00838701810947B3E7E702238DF18089673A
:103A1C0093870780739007808387418E89E703859E
:103A2C000181EFE06FF78967938787887390078030
:103A3C00EFD07FE403A7C18F85679387479C63F51D
:103A4C00E7000547A38EE180038701812389018A62
:103A5C00A389018A7D170607938701C3BA9703A729
:103A6C00C1809AA36FD00FFB2388E1802380E19063
:103A7C0041BFFD17E207E187635AF0002388F1800C
:103A8C0083C7018193C7F7FF858B41B7994723887B
:103A9C00F1802380D190EDB7EFD28FF5370700403E
:103AAC008357C740C207C183F99BC207C183231642
:103ABC00F740353703D7018B83D7E18A3E9783A62E
:103ACC00C180058736979356170023A6D18083C7EC
:103ADC00B1C6A1E38386618593574700B387D702AC
:103AEC00C207C18309831D8F239AF18C2395E18A28
:103AFC008387D18199E3EFD0FFD583A7418B0967E9
:103B0C001307F7706365F700850723AAF18A6FD056
:103B1C006FF083C72193B387D7029983D1B7EFD2C4
:103B2C002FED03A7C18F9307D00763E2E70601448B
:103B3C0083C7B1816342F40A0964930704807390CC
:103B4C000780EFD0FFCF83D6E18A130484882398B3
:103B5C00D18AB717004083D647822397D18A239204
:103B6C000782B70700402392074203D7A18A0507B3
:103B7C00420741832396E7422398074003D7C74067
:103B8C00136717002396E74073100480A1A0B717A2
:103B9C00004003D747829307C00763EEE70003D7C3
:103BAC00C18A9307702563E8E70003A7418B93074D
:103BBC00301F63F1E70283C7C18C850793F7F70FBA
:103BCC002386F18C13074006E373F7F6EFD05FC73B
:103BDC0023AA018A6FD00FE4EFD0FFC48387A181A1
:103BEC00E30AF5FE0504A9B7EFD28FE083C7618D18
:103BFC0095E3EFF0DFDE89679387077123A6F180E9
:103C0C000567B7170040130787382392E78285476B
:103C1C00238BF18CEFD01FC46FD0CFDFEFD2CFDA74
:103C2C009387C1C3BC2B03D5C18B1384C1C36388D9
:103C3C00073E8387918BD1CB03D7C18B9307704100
:103C4C0063EBE73683D7C18B1307703E938707FD71
:103C5C00C207C1836360F706143803866181854708
:103C6C00958F631DF60203D6018483A7C180637808
:103C7C00F60003D6C18A9307700C63F6C7008387DE
:103C8C00D18C638B073823AA018A0546A38EC18089
:103C9C00238BD180EFD0DFBA2389019083D7C18BDE
:103CAC0003878183938707FD8607998F9387F70294
:103CBC002390F18E03D7C18B9307F00263EDE70ECF
:103CCC002390018E23890190FDA083C561848347D5
:103CDC00640286059385853E6381071C63D5A50424
:103CEC00183803866181631DE6022390018E054717
:103CFC002382E18E038701931DC70547118F238B08
:103D0C00E1802382018E1307F07F9306F0021306E5
:103D1C00007D23880192EFF02FFC2390A18E21A02F
:103D2C008387418EEDD383C7618403D5C18B130682
:103D3C00803E86071D8E6354C504143883886181C8
:103D4C0085453388D540639908032382B18E8385DA
:103D5C0001932390018E85C5238BD1802382018E04
:103D6C001307F0029306F07F814523880192EFF050
:103D7C00AFF62390A18E21A08387418EF5D383C704
:103D8C00618483D6C18B1307803E86071D8F63C069
:103D9C00E6029387873E63CCD7002390018E03877E
:103DAC00418E11C72382018E05472388E1928387B8
:103DBC00918BE39307E803C7718D8387918363D35A
:103DCC00E7267C2863800726EFE02FBCEFD05FA7A7
:103DDC00239F018A93076006A38BF18C8387D18C78
:103DEC006397073E8387218C6383073E3C38130718
:103DFC000005B387E70203D7E18B9387E70263CF14
:103E0C00E73083871190639B073C582883C7618DEB
:103E1C00631F07422391019099EB0547A38EE18024
:103E2C0023AA018A5C2C6386073EEFE06FBB034735
:103E3C0064028387418E630807386393073E03D778
:103E4C00E18B9307E00283D6219063EDE74A83D799
:103E5C00A18283D6219063F4D7002391F1908387BC
:103E6C00419289CB8397218483D6219063D4D70048
:103E7C002391F19083A70192635BF0349306F002D7
:103E8C0063F7E634096713070771B3C7E70203D773
:103E9C002190BA972391F1901DAE63D5A5061438E5
:103EAC0083876181639FD70203D6018483A7C18076
:103EBC006378F60003D6C18A9307700C63F6C700CB
:103ECC008387D18C638F070C8547958F238BF1806B
:103EDC0023AA018A0547A38EE180EFD07F96238920
:103EEC00019083C5618403D5C18B1307F07F8605D0
:103EFC009306F0021306007D9385853EEFF0CFDD2F
:103F0C002390A18E03C7618483D6C18B9307803E17
:103F1C000607998F63D4F6061438038661818547AA
:103F2C00958F631CF60203D6018483A7C180637846
:103F3C00F60003D6C18A9307700C63F5C70083871C
:103F4C00D18CADC723AA018A0546A38EC180238BD1
:103F5C00D180EFD0FF8E2389019083C7618403D574
:103F6C00C18B1306803E86071D8E1307F002930645
:103F7C00F07F8145EFF04FD62390A18E83C76184EB
:103F8C0083D6C18B1307803E86071D8FE3C1E6E203
:103F9C009387873EE3CDD7E02390018E2389019050
:103FAC0039B59307803E239EF18A25BF9307803E47
:103FBC00239EF18A5DB7143883876181639ED70293
:103FCC0003D6018483A7C1806378F60003D6C18A27
:103FDC009307700C63F5C7008387D18C9DCB854705
:103FEC00958F238BF18023AA018A0547A38EE1804C
:103FFC00EFD01F852389019083D7C18B03878183E1
:10400C00938787BE8607998F9387F7022390F18E4B
:10401C0015B9239E018ACDB7239E018A41B1239005
:10402C00A18E51BB3C38A5C303D5018EF547034681
:10403C00840263E8A702239F018A83458402D14747
:10404C0003D5018EB385F502E34AB5D81307F07F8B
:10405C009306000A1306F07FEFF00FC8239FA18A86
:10406C00B5BBF947E30BF5FCD1473306F602E35633
:10407C00C5FC1307000A9306F002F945EFF0CFC513
:10408C00239FA18A5DBF8387C192D1C783C7D19378
:10409C00A1CB03A7418683A6018603D5018E130607
:1040AC00F07F9305F002EFF02FC3B787930393874C
:1040BC000770B3C7A702383C0583B3C7E702239741
:1040CC00F19203D7018E9307E00263EBE700B70789
:1040DC000020239F018A23A8073223A40192FDB953
:1040EC0083A78192096713070771B3C7E702130708
:1040FC00F07FC207C183239FF18A6377F700930790
:10410C00F07F239FF18AD9B91307F002E368F7CC4B
:10411C0093070003FDB783D7018EE5B783C7618D85
:10412C0099EFEFE08F868387D18199E3EFF0DFABD6
:10413C008547238BF18C03D7A1832392E19083D6FF
:10414C0021833C3803D5E18B1307007DD9C39386BB
:10415C0086021306F07F93059008EFF0EFB7420547
:10416C009307201741813305F50203D7419193063C
:10417C00201CBA8763F4E6009307201C13970701F1
:10418C0041839306C0126374D7009307C012C20711
:10419C00C1833355F5029307007D63F4A700130523
:1041AC00007D834764022391A19099E32382018EC1
:1041BC003C3813070005B387E70203D7E18B9387DD
:1041CC00E702E3D0E7C48387418EE38A07C66FD04A
:1041DC002F831306F07F9305F00241B7FD1793F779
:1041EC00F70F1147636BF70019678A07130787A34B
:1041FC00BA979C438287EF100064A380019031B181
:10420C00EF104069DDBFEF10E06EC5BFEF108052BC
:10421C00EDB78387418EE39C07C0EFD01FF701B940
:10422C0083D5C18B1305803EEFF08FAE1305853E11
:10423C0042054181239DA19283D7C182FD1763451D
:10424C00F500EFD0FFF941B7EFD0FFC7ADBF9DE749
:10425C00854AA38E518123AA018A2382018C5C2C6E
:10426C00D9CF3C3881EF834794029387E73D86078B
:10427C00239DF192EFD03FC52382518F838701811B
:10428C001307C00393067016FD17B387E70203D715
:10429C00E184BA9713970701C207C187418363D69C
:1042AC00F600930787E9C207C1872399F18CC207EF
:1042BC00C18313877707420741879306701663D62D
:1042CC00E6001387F7F0420741872398E18C1387A8
:1042DC00F70E420741879306701663D7E600938763
:1042EC0077F81397070141872397E18C3C380547F2
:1042FC006394E700A386F18C23910190E9B5EFD08C
:10430C00DFE8ADBF503CF947B3D7C74003A6418B9C
:10431C00E37FF6B283D7A18363F4F6002391F19087
:10432C0083D7418383D62190E3F3D7B22391F190C5
:10433C0039BEEFC2FFEB83C7419305476399E70092
:10434C00EFE05FD7238A0192EFF05F8D11A8094748
:10435C00E39CE7FE03D5418FEFF0AF87238A0192F0
:10436C006FC05FEBEFC25FE68386618183D7218DDF
:10437C00639C060E8507C207C1879306701663D32C
:10438C00F60081472399F18C83D7018D9306701623
:10439C008507C207C18763D3F60081472398F18C48
:1043AC0083D7E18C930670168507C207C18763C556
:1043BC00F6002397F18C19A02397018C8397218DFC
:1043CC0037040020130404018607A2970395070005
:1043DC0083D74181930A007D3E9583D7C18213898F
:1043EC00C1C33305F5028347D902294A3345550326
:1043FC003305F5023345450342054181EFD0FF9B60
:10440C008397018D8607A2970395070083D7418177
:10441C003E9583D7C1823305F5028347D9023345D4
:10442C0055033305F5023345450342054181EFD071
:10443C007F998397E18C86073E940315040083D7FC
:10444C0041813E9583D7C1823305F5028347D9025A
:10445C00334555033305F502334545034205418188
:10446C00EFD0FF966FC0DFD9FD17C207C18763D4A9
:10447C000700930770162399F18C83D7018DFD17D4
:10448C00C207C18763D40700930770162398F18C79
:10449C0083D7E18CFD17C207C187E3DC07F09307D4
:1044AC00701601BFEFC2DFD4B716004003D74682A7
:1044BC00420741832397E18A2392068203A6C18097
:1044CC008D47B387C702938606809145BA9713D759
:1044DC00270023A6E18013D7570006074207418324
:1044EC008D83998F239AE18CC20703A6418BC183DC
:1044FC002395F18ADA326374F700E3EDC5FEEFF031
:10450C000FCE2389018A1387C1C32382018C83A711
:10451C00418B543F03476702850723AAF18A558FC5
:10452C0005C34D47637CF70003A7C1809307007D4B
:10453C0063E6E700A38E0180EFD0CFB16FC09FCDB3
:10454C0003A7C1809307F07CE5B7EFC2DFC883D720
:10455C0021902396F18A83D7019185072398F190B6
:10456C0083D781938507239CF19283D7619303C7EB
:10457C0031918507239BF19283C7218CD98FBDE79D
:10458C008387A18BA5C783D7018E6398072A83D70E
:10459C00C1919566938606E28507C207C183239E67
:1045AC00F19063F5F60483D6018CF94763F5D728AF
:1045BC0085472381F18C83871193638B072683D7DF
:1045CC00419113072017AD6AB3D7E7020144373B7B
:1045DC000040938AAAAAA389F19083873191634FF3
:1045EC00F4228387818B99E3238101C69387C1C30E
:1045FC00F03F1384C1C315C683C7718503D761917E
:10460C00FD17B2975146B387C7020507420741838E
:10461C00239BE19063D7E7000547A382E18E239BA0
:10462C0001908387D18C6394071E8387D18195CBAE
:10463C0083C7618D9DC7EFD0AFA0EFF08FB683C756
:10464C00318B85E38386A18183C7218B638A061E08
:10465C0083C6218163F7F6008547A389F18AEFF0C1
:10466C007FE403D76193D14763F5E70E83874192CB
:10467C00239B0192A1CF83C7618DA9CB0346C402B2
:10468C009307800C370500203306F6028395619062
:10469C0013058530EFE03FF3896793870771334546
:1046AC00F50283D7218483D62183898FC207C187E2
:1046BC002391F18463D4D7002391D18483962184F0
:1046CC009307007D63D4D7002391F1845C3C8DCBA0
:1046DC0083C7618D95C703D6018583A5C180370536
:1046EC0000201305052EEFE01FEE03A701923A956B
:1046FC0037E71600130707366357A71423A0E19278
:10470C008387C192B9C783C7618DA1C703D6E192D4
:10471C0083A5418FB709002013850933EFE0BFEA69
:10472C0083A781923E95635305000145B767380115
:10473C009387078F63D3A7003E8523A4A19203A779
:10474C00418B9307300663E6E7009389093323A86E
:10475C0009008387F183B9CB03A6418B93065009DB
:10476C0003D74190854763FCC60063FAE60003A6B5
:10477C00C18F9306401F994763E3C600C14703D618
:10478C00C18AA38BF1823305E64063D6A70CBA9796
:10479C002396F18A03A7C1809307401F63FDE70CA2
:1047AC0078388547238BF182238BE18403D7E18210
:1047BC008387218C83D6C18AF1C383C7618DDDCFFA
:1047CC0003D6E18B9307F00263FAC70AB387E602BC
:1047DC001306007DB3C7C702130617009387C704DF
:1047EC00C207C1836355F60093170601C183239357
:1047FC00F18C2392D190B73701402396E7C203D7AF
:10480C00618C239AE7C2239CE7C2239EE7C283D71D
:10481C00818A85072394F18A6FC03F9FEF009079BE
:10482C0013054006EFE0DFD1050423205B0175B3CF
:10483C00EF0050787DB3238D018A239E01907DB3C8
:10484C0083C6118101BD6355A00023A0A1924DBD6B
:10485C0023A0019275B53306C7400308740163DACF
:10486C00C7001D8F2396E18A238B0182238B018540
:10487C0035BF238B0185238B01820DBF8387418E2E
:10488C0099CF83D7A19313060083B387E702B3C7ED
:10489C00C70203D6C1820506B297C20781BFB38790
:1048AC00E6021306007DB3C7C702C5BFEFC25F9116
:1048BC00EFD0EF8C85678117944337E725591307A1
:1048CC00A73D639BE602D4433767B84E1307973D69
:1048DC006394E602DC271307B002638BE7581307D7
:1048EC0050036382E7587D476398E700B787000859
:1048FC00938707C023AEF184EFD08FCAEFD0CFCF10
:10490C00EFE0DFD19387C1C3B83389471384C1C3A8
:10491C00631BF7005820C9476317F700038781858D
:10492C001C3063D4E70289473CB0B7575242938797
:10493C0027F15CC0B7675632938747F51CC48D6767
:10494C00938707335EA4EFE03FFF1C38FD17B337A6
:10495C00F000238BF18083D7C1822397F1825C28EE
:10496C0099E3A3090400834764029DCF1307803E9B
:10497C002392E1828547238FF1823EA883D721833E
:10498C00231A0400230B0400938727032399F18235
:10499C0083D70183938727032398F18283D7A1833D
:1049AC0093872703239DF182EF00304F2390018CD6
:1049BC00EFD0CF8CAD679387A7AA373700401CC3C5
:1049CC00EFC03FB983C7D19381C705472386E192D6
:1049DC00EFC0BFC48967938401C3138C8732BA209C
:1049EC009E20BA97DA20BA97FA20BA979A24BA97E7
:1049FC00BA24BA979107858723AAF18E83C7618A57
:104A0C0089C7EFF01F932383018A83A6418B11473B
:104A1C0099476373D7008D472389F180A388F18070
:104A2C00AD67373700409387A7AA1CC35838854712
:104A3C006310F70203D7C18203A5C1801306800C53
:104A4C009356170093050006EFE01FA92397A18248
:104A5C0058388947631FF70083A7C18F1307400994
:104A6C009386B7F96369D7401547B387E702239755
:104A7C00F18203D7818A89679387077163F0E70A0C
:104A8C008387218CB9C3EFD04FF0239F018A238DEC
:104A9C00018A2381018CB73701402390018C239A22
:104AAC0007C2239C07C2239E07C2EFD00FB4130684
:104ABC000010814513850196EFC0EFF7B707EFBEE5
:104ACC0037E700E0938707083CC703D7818AA967BB
:104ADC00938707C463F4E704EFD02FEB239F018A7D
:104AEC00238D018A2381018CB73701402390018CDF
:104AFC00239A07C2239C07C2239E07C2EFD0EFAEB6
:104B0C0013060010814513850196EFC0CFF2B7074D
:104B1C00EFBE37E700E0938707083CC703D7019146
:104B2C009567938707E263F4E70483976190930595
:104B3C008016139707013347B70283A5C1902E97B0
:104B4C0023A6E1900387C18809466305C7348D47C6
:104B5C006300F7368547631AF70083C7018F2386F6
:104B6C00C18893E707202395F1882398019083A6A9
:104B7C00418B1306803E03D7018E6378D634A38B0A
:104B8C00018C1306700C637EE6348387A1916389D4
:104B9C0007389307F01863E4E700A38B018C83A517
:104BAC00418F8D47B3C5F5028387019023AEB18E3B
:104BBC00ADC7A94763F3D70603A5818FEFE05F95D7
:104BCC0083A7C18F13D717006375A7041307F07C55
:104BDC006361F70403C7B19123AA018A0507A38D6A
:104BEC00E190382819E783D6E18B1307F00263684C
:104BFC00D70083A6C1801307803E6374D700238B34
:104C0C00018C8546A38ED18003D7A1830583239283
:104C1C00E1902380019023ACF18E8387518E81EF3C
:104C2C008387C19389CBEFE07F9713051003EFD0F7
:104C3C00EFDC238E019283C7618E1307800C8507EE
:104C4C0093F7F70F2383F18E6378F710EFC0BF80D3
:104C5C0003D5C18EEFC01F812397A18E2388A18E0F
:104C6C0083D601821307E04A938776C1C207C183BA
:104C7C006361F70283D7E1811D47B387E7023707EA
:104C8C004B00130707B53357D702BA978D87239F6D
:104C9C00F18003D7E18183D7A18E9D45B387E702CD
:104CAC0005671306F7FFB3C7C70203D6C183B387E3
:104CBC00C70213064006B3C7C70203D64191330699
:104CCC00B602B2978D87239AF190EFE09FC80567E3
:104CDC00130747CE23A4A190B307E5021307403373
:104CEC00B3C7E7022393F190C207C1833E87C20783
:104CFC00C18763D307000147838711932393E19006
:104D0C000387D18CA1CB03D6419183D64184838771
:104D1C003191B387D702635EF62083D781918507E3
:104D2C00C207C183239CF1909306C0C73307D702F7
:104D3C009566938606E23697635EF700239F018A99
:104D4C00EFD0AFC4EFC0DFAF238B018C2390018C6D
:104D5C002381018C2383018E2386018C8387D18C44
:104D6C006390072083A7418F372509001305057C25
:104D7C003345F50283C7618D3305F5024205418148
:104D8C002394A18CA9473355F5022395A18C038755
:104D9C00E1839307007D11CF03D7218283D6418213
:104DAC0003D6618283D58182EFE00FF3931705015F
:104DBC00C1832395F1828345B40203C5018F63FD42
:104DCC00A50083D621821386A50005478582D915B7
:104DDC00EFE08FF02395A18203A7418B9307300658
:104DEC0063ECE71403A7C1809307401F63F6E71435
:104DFC00B147A38DF1808347F40289CF03D5C18AD3
:104E0C005D47B5461306007D93054006EFE0CFECF9
:104E1C002389A192B717004003D74782AD679387C8
:104E2C0087FCE3FEE7BA83CA618D8547E399FABA3A
:104E3C0083C7718D8507A38BF18CEFC07FA0A38EE8
:104E4C00518103D7E18B9307F00263E9E700856793
:104E5C0093878738238B018C23A6F18023AA018AA0
:104E6C00EFF04FE4ADBEB70701089387078059B444
:104E7C00B7070208DDBFFD17130720066365F700AF
:104E8C009307401FEDB61307800FE374F7BE93072B
:104E9C00204EF1BE1307200393F7F70FB3D7E702A9
:104EAC0093E707602395F1888D472386F18875B9C0
:104EBC0083D741916547B3D7E70293F7F70F93E791
:104ECC0007402395F1888547CDB70DEB8387A191DA
:104EDC00A38B018CE39307CC13074006A38CE182D0
:104EEC007DB9A38B018C303805E68387A191E396BD
:104EFC0007CA93075009E3F1E7FE1DA0130640060D
:104F0C00E361D6C8303819EE8387A191FDD351B136
:104F1C001306F009637CE6008387A191E39F07C623
:104F2C0029476DBF1306F009E361E6C6A38B018C1C
:104F3C006DBF239C019039BD03A5C18F31478D46B0
:104F4C001306401F93054006EFE00FD903A7C1805D
:104F5C00A38DA18093071003E3EFE7E8894751BDC8
:104F6C0083D7E18B9306000363FCF6108386218CB8
:104F7C00638806109387F7FCC207C18393067005FC
:104F8C0063E1F6088387319395CBB706004083D74E
:104F9C00C640C207C183F99BC207C1832396F64062
:104FAC00EFC01F8AB7370140239A07C2239C07C260
:104FBC00239E07C2EFD0AFA3A3890192EFF08FBA63
:104FCC003C3C0967930687B51307A0323347F702B9
:104FDC0003D5E18B1306800793050003B3C6F602D5
:104FEC00EFE08FCF239CA18042054181EFE02FD3CE
:104FFC0003D7818193078025B3C7E7022394F18CF3
:10500C00F9BA8547A389F192EFF0CFB503D7E18BBD
:10501C009307800C63F8E700930700052399018C34
:10502C00239CF18003D58181EFE06FCF8397218D95
:10503C00E397079A8547238BF18CA38EF18023ACE1
:10504C00818FA386018CB717004023A6818123AEE4
:10505C00818F23928783D14723AAF18A2382018EE1
:10506C0003C7C1812388E1805C3C89C703D70183D6
:10507C002392E190EFE0BF96EFC01FD66FF03F9602
:10508C005C2C054AA3894193B9CB03D6C1828347D3
:10509C0094021307D6FE8607BA97C207C1832396DC
:1050AC00F18A03D7E18293061600B307F702B3C760
:1050BC00C702B387F6402393F18CEFC0DFE003D730
:1050CC00618CB7370140239AE7C2239CE7C2239E29
:1050DC00E7C22382418F2394018C6FF05F90B73726
:1050EC000140239A07C2239C07C2239E07C2EFD01C
:1050FC00CF89D5B7EFC24F8D93870196C8439C4398
:10510C001D8D1307F5CD9307605763E1E71883C72F
:10511C0061952394018A6380071283C74195138993
:10512C000196B9C783270900032749001D8F9307F0
:10513C00104E63F3E70E03C701959307B00463F4B5
:10514C00E70683D7C184238B0194E507C207C1838B
:10515C002396F1840947938727D1B3C7E702238E9F
:10516C00F1C4EFE06FFD23880194EF00A07225A835
:10517C0083C7519599E32399A19483D5A18403D531
:10518C0021958507A38AF194EFE08FB8930620034D
:10519C0063FEA602238B019483D7A1842399F194F7
:1051AC0083C74195C1F32394018A03A7819583D7C3
:1051BC00C18B83A60187B305F74063DCB60CB697A9
:1051CC00C207C183239EF18A6FC08F830327090016
:1051DC00832749001D46998F03D7A1843307C70243
:1051EC00BA978D83C20703C75195C1832395F18468
:1051FC00E3F4E6FA9D17C207C1832395F1840947AE
:10520C009387A792B3C7E702A38EF1C48547238A7D
:10521C00F194EF00406249B783C701951D4685079D
:10522C002388F19483D7C184B387C702BA978D833F
:10523C002396F18409B783C7E1C485CB83D58184D8
:10524C0063EDA5002E8683D5C1841307803E81466D
:10525C00EFE08FA823ACA194B9B703D6A1841307B0
:10526C00007D9306903E8505E5B703D6A18483D5D2
:10527C00C1841307F07F9306F002EFE0EFA59307CC
:10528C000003E3C9A7FC23AC019431BF2390018C2C
:10529C0029BFB385E74063D4B600958F15B7931734
:1052AC00070105B783D7C18689461387F7FF4207E5
:1052BC00418363EDE60203A781949307B00363E691
:1052CC00E702B7070020A38C073423860194854797
:1052DC00A38CF18AB94637070020230CD7349306E8
:1052EC0000022385D186238DF18A8280F117C207B3
:1052FC00C1831147E36BF7FE03A781949307300634
:10530C00E3E5E7FE8547A38CF18A37070020A30C61
:10531C00F7342386F1949D46370700207DBF83D751
:10532C00C1861567130767D5938777F3C207C183C7
:10533C006360F70285479306F002238CF18A3707E6
:10534C000020A30CD73489462385D186238DF18A7E
:10535C008280EFB2FFE9938601969567944293871A
:10536C0007E2138701962396F18623A40194130E6A
:10537C0087070143814581484843630CD500B30638
:10538C00D54063F6F60093970601C1838548B69520
:10539C0005431107AA86E311C7FF6304030023A486
:1053AC00B194638408002396F18683A781940387C4
:1053BC00918B958323A4F19485476314F700EFF048
:1053CC007FEE0387818B85476314F700EFF03FF581
:1053DC0083C7918B03C7818BD98F89E7EFF09FEC43
:1053EC00EFF0FFF36FB01FE3EFB29FE08387218CE8
:1053FC0095C38387318E99CF8387018881CBEFC08A
:10540C004F958947238AF1926FB0DFE0EFC00F9B75
:10541C008547CDBF8387A18B91E7EFF09FF3EFC05A
:10542C004F93DDB70547E391E7FE0387318E11CF2C
:10543C008387018881CB03D5418FEFD09FF9EFD0C3
:10544C007FC7F1BFEFC08F97C1B70387918B6316EE
:10545C00F700EFD03FC6EFC0CF8F0387818B854716
:10546C00631AF700EFC08F9A51C10D472385E1866F
:10547C00EFC02F8E8387218CC1FB8387918BB9CB97
:10548C0003C741941D466367E60483D5018C15461A
:10549C006372B6040507138601961377F70F03A5FD
:1054AC0001942382E1947C5E1042AA97918F23A0F1
:1054BC00F19421466310C70213D737009D8342072E
:1054CC00C207C1834183B305F7001D8F2394B186B6
:1054DC00239FE19203D5018E1DE183C7619589EF6E
:1054EC0083D7018C85072390F18C39BF094723851D
:1054FC00E186EFF03FC0ADBF2390018C31B7239014
:10550C00018C9307C05DE3F1A7F083D5E194EFE044
:10551C002F80130720036379A700A38B019483D7F3
:10552C00018E2397F194CDB583C77195850793F7B9
:10553C00F70FA38BF194E374F7FE83C74195E5F362
:10554C00552E0547238BE194C9BF2D47AA8763735A
:10555C00A700AD478607238EF194828003C7C195BF
:10556C00B7370140239AE7C2239CE7C2239EE7C2C8
:10557C00828037474900130707E03347A702B73645
:10558C000140A9472394F6C22E8593170701C183C6
:10559C002396F6C283C7C19542074183B387E702BE
:1055AC001307F07CB3C7E702C207C183239AF6C284
:1055BC00239CF6C2239EF6C26FD09FF8EFB2DFC0D9
:1055CC000D45EFC07FBD938BC1C32D64856437E956
:1055DC00A700138ACB078147B73A00401304A4AA4B
:1055EC00130BF00F938404FA1309098C83C64B0335
:1055FC0023A08A002394018A639C6603850793F792
:10560C00F70F890BE3944BFFEFC03FB8B73701405E
:10561C00239407C203D7C1822396E7C2AD672394B4
:10562C00018A373700409387A7AA1CC36FB05FBDB0
:10563C0003C75B030DE737370140231A07C2231C4E
:10564C0007C2231E07C21307E00FB387E702338597
:10565C00F60042054181EFD0BFEE81475DB71306DE
:10566C00700F3305C7021307E00F26953345A902C7
:10567C00B385E702E1679387076AB3C7A702B695BC
:10568C0042054181B385F50293074006B3C5F50287
:10569C00C205C181EFF0FFEDC9B7EFB27FB58967E5
:1056AC00938707807390078003C7C1C69307900345
:1056BC006301F702EFF09FF003D7C182B7370140C7
:1056CC002396E7C2896793878788739007806FB0AA
:1056DC007FB4373401409307F07C2316F4C2EFF00B
:1056EC00FFE70D45EFC05FAB930770032314F4C2C3
:1056FC001305800CEFD0DFE41545EFC0FFA993072D
:10570C0080022314F4C21305800CEFD07FE31945FB
:10571C00EFC09FA8E5472314F4C21305800CEFD00B
:10572C003FE2EFC09FA6231404C22394018A130402
:10573C0004C059B7EFB23FAA37340140130404C078
:10574C009307F07C89645EB4938704807390078020
:10575C002D69B73900401309A9AA9307C00323A0E8
:10576C0029011EB4EFF09FDF0545EFC0FFA2130522
:10577C00B004EFD0FFDC930700051EB41305B00492
:10578C00EFD01FDC9307A0051EB41305B00423A0B3
:10579C002901EFD0FFDAEFC05F9F2314040223949A
:1057AC00018A83D7C182938484885EB47390048009
:1057BC006FB0BFA5EFB2DFA38964938704807390A9
:1057CC000780373401409307F07C2316F4C2AD6791
:1057DC00373700409387A7AA1CC3930700052314EF
:1057EC00F4C2EFF0BFD70D45EFC01F9B1305400669
:1057FC00EFD01FD5930760042314F4C213054006A1
:10580C00EFD01FD4930780022314F4C21305400673
:10581C00EFD01FD3EFC07F97231404C22394018AC7
:10582C0083D7C182130404C0938484885EB47390BC
:10583C0004806FB03F9EEFB2BF9B3734014093079B
:10584C00F07C2316F4C2930720032314F4C2EFF068
:10585C00FFD00945EFC05F9413056009EFD05FCE10
:10586C00AD67373700409387A7AA1CC3F9472314A9
:10587C00F4C213056009EFD0BFCCEFC01F91231405
:10588C0004C22394018A83D7C182130404C05EB47A
:10589C006FB05F98EFB2DF95373401409307F07C1F
:1058AC002316F4C2930780022314F4C2EFF01FCB2B
:1058BC000945EFC07F8E13056009EFD07FC8AD6737
:1058CC00373700409387A7AA1CC3930700052314FE
:1058DC00F4C213056009EFD0BFC6EFC01F8B2314B1
:1058EC0004C22394018A83D7C182130404C05EB41A
:1058FC006FB05F92EFB23F8EB73701401307F07C69
:10590C002396E7C2896793870780739007802D6978
:10591C00EFF0DFC413047007373B00401309A9AA4A
:10592C00D14A373A0140FD593345540323202B010A
:10593C0093040AC0EFC05F8693571440A907C207AF
:10594C00C1832314FAC229457914EFD07FBFE31D1C
:10595C0034FDEFC09F8323140AC22394018A83D79A
:10596C00C1822316FAC28967938787887390078050
:10597C006FB0BF89BE210000C6210000D0210000FD
:10598C00D6210000DE210000E421000026330000B7
:10599C003A3300003E33000042330000463300002F
:1059AC004A330000523300005E3300006A330000BB
:1059BC00703300002C330000783300008633000075
:1059CC00A43300002C3300002C3300002C330000D7
:1059DC002C3300002C330000B4330000C233000021
:1059EC002C3300002C3300002C3300002C3300002F
:1059FC002C3300002C3300002C3300002C3300001F
:105A0C002C3300002C3300002C3300002C3300000E
:105A1C002C3300002C330000C8330000191B121368
:105A2C001D1516171A090A0B1E0D0E0F0242000047
:105A3C000C4200001242000018420000024200001A
:105A4C000000000000000000010203040607080922
:105A5C00B400B700BA00BD00C100C400C700CA0042
:105A6C00CD00D000D300D600D900DC00E000E3006C
:105A7C00E600E900EC00EF00F200F500F700FA0098
:105A8C00FD0000010301060109010B010E011101CA
:105A9C001301160119011B011E012001230125010F
:105AAC0028012A012C012F01310133013501380164
:105ABC003A013C013E0140014201440146014701CB
:105ACC0049014B014D014E0150015101530154014B
:105ADC005601570158015A015B015C015D015E01E1
:105AEC005F01600161016201630163016401650191
:105AFC00650166016601670167016701680168015C
:105B0C006801680168016801680168016801670142
:105B1C006701670166016601650165016401630146
:105B2C0063016201610160015F015E015D015C0165
:105B3C005B015A015801570156015401530151019F
:105B4C0050014E014D014B014901470146014401F1
:105B5C00420140013E013C013A013801350133015B
:105B6C0031012F012C012A012801250123012001DB
:105B7C001E011B0119011601130111010E010B016C
:105B8C000901060103010001FD00FA00F700F50010
:105B9C00F200EF00EC00E900E600E300E000DC00BE
:105BAC00D900D600D300D000CD00CA00C700C40075
:105BBC00C100BD00BA00B700B400B100AE00AB002C
:105BCC00A700A400A1009E009B00980095009200E5
:105BDC008F008C008800850082007F007C0079009B
:105BEC007600730071006E006B0068006500620047
:105BFC005F005D005A005700550052004F004D00E9
:105C0C004A0048004500430040003E003C0039007B
:105C1C0037003500330030002E002C002A002800FD
:105C2C0026002400220021001F001D001B001A006A
:105C3C0018001700150014001200110010000E00BF
:105C4C000D000C000B000A000900080007000600FC
:105C5C00050005000400030003000200020001001F
:105C6C000100010000000000000000000000000026
:105C7C000000000000000100010001000200020011
:105C8C0003000300040005000500060007000800DF
:105C9C0009000A000B000C000D000E001000110092
:105CAC00120014001500170018001A001B001D002C
:105CBC001F00210022002400260028002A002C00AE
:105CCC002E00300033003500370039003C003E0018
:105CDC0040004300450048004A004D004F00520070
:105CEC00550057005A005D005F00620065006800B7
:105CFC006B006E0071007300760079007C007F00F1
:105D0C008200850088008C008F009200950098001E
:105D1C009B009E00A100A400A700AB00AE00B10048
:105D2C000000000001000000000000003200000034
:105D3C000000000000000000000000000000000057
:105D4C001027000050C3000000000000900100006C
:105D5C0000000000E803000000000000000000004C
:105D6C000000000000000000204E0000A086010092
:105D7C00000000000A0000000000000064000000A9
:105D8C000000000000000000000000000000000007
:105D9C001027000050C30000070608000300000095
:105DAC0000D8B805D4300000010303024B000100F9
:105DBC00640001050501E40CD105D0078403320011
:105DCC000A00D007CF07CF074B004B00200301017F
:105DDC00011E780014000101DC05D0074A016400A3
:105DEC00DC056C074C04B40064194B00D007011E91
:105DFC000200000000F80008E8030000B0360000C4
:105E0C0050C32000204E0000FA00000000000000EB
:10F7E0004F5242545F563230330000000000000098
:10F7F0000000000000000000000000000000000009
:0400000300001000E9
:00000001FF
