:100000006F00E05313000000130000001300000015
:100010001300000013000000130000001300000094
:100020001300000013000000130000001300000084
:08003000130000007300100032
:100038000000000000000000D0050000D20500000C
:1000480000000000D60400000000000000000000CE
:10005800D8040000DA0400000000000000000000DE
:10006800D405000000000000DE04000000000000CD
:10007800E0040000E2040000E4040000E6040000DC
:10008800E8040000EA040000EC040000EE040000AC
:10009800F0040000F2040000F4040000F60400007C
:1000A800F8040000FA040000FC040000FE0400004C
:1000B8000005000002050000040500000605000018
:1000C800080500000A0500000C0500000E050000E8
:1000D80010050000120500001405000016050000B8
:1000E800180500001A0500001C0500001E05000088
:1000F8002005000022050000240500002605000058
:10010800280500002A0500002C0500002E05000027
:1001180030050000320500003405000036050000F7
:10012800380500003A0500003C050000000000000A
:080138000000000000000000BF
:10014000397101436EC619A0397141536AC866CA34
:1001500062CC5ECE19A0397101535AD056D252D416
:100160004ED64AD826DA22DC06DE3301614082828E
:1001700041114AC026C222C406C68282B24D410144
:10018000024D924C224CB24B4101024B924A224A00
:10019000B2494101024992442244B2404101828065
:1001A0003D432A876373C3029377F700BDEFADE544
:1001B000937606FF3D8ABA960CC34CC30CC74CC756
:1001C0004107E36BD7FE11E28280B306C3408A0683
:1001D0009702000096966780A6002307B700A30643
:1001E000B7002306B700A305B7002305B700A30493
:1001F000B7002304B700A303B7002303B700A3028B
:10020000B7002302B700A301B7002301B700A30082
:10021000B7002300B700828093F5F50F9396850011
:10022000D58D93960501D58D61B7939627009702DA
:10023000000096968682E78086FA9680C1171D8F09
:100240003E96E374C3F8A5B7B7066745B7270240E3
:10025000938636123797EFCDD4C31307B79AD8C316
:10026000D4D3D8D38280372702401C4BA166D58FC8
:100270001CCB8280B7270240984BB706020013754B
:1002800005F0558F98CBC8CB984B1367070498CBD4
:10029000D847058B75FF984B8176FD16758F98CBE7
:1002A0008280372702401C4BC166137505F0D58F3D
:1002B0001CCB5C47858BF5FF372702405C47898B59
:1002C000F5FF3727024013060010B386F50003A898
:1002D0000600B306F50023A006015447898AF5FEFF
:1002E0009107E394C7FE1C4BB7062000D58F1CCBAB
:1002F000B7270240D847058B75FF984BC176FD168E
:10030000758F98CB82809C4513F7070113F8F7008F
:1003100001C7D8413368E80037270240145B37072C
:10032000000F758F55EF3707002085462300D70053
:10033000371701406317E50003D705003583239085
:10034000E50083D5050013F7F50F39C31841814641
:10035000854E3D4F930F800293028004214E3396C9
:10036000DE00B3F8C500631116039398260033131B
:100370001F011343F3FF3377E300B318180133E78A
:10038000E8006399F70750C98506E39AC6FD18C1CE
:100390001307F00F6375B70454412146854E3D4F56
:1003A000930F800293028004414EB398CE0033F73E
:1003B00015016392E8021317260001173313EF00AB
:1003C0001343F3FFB376D3003317E800D98E639756
:1003D000F703232A15010506E319C6FD54C18280DF
:1003E00037170140E31FE5F43707002003470700F4
:1003F00029DB99B7E39A57F810C979B7E39D57FC01
:1004000023281501C9BFFD572310F50089475CC19A
:1004100091471CC5828099C5371702401C4F5D8DDE
:1004200008CF8280B7170240984F1345F5FF798DAA
:1004300088CF82808357050037370140130707C0F4
:10044000C207C1836304E502370700406300E50289
:1004500013070740630CE500371700409306078039
:100460006306D500130707C06317E50003D725000F
:1004700093F7F7F8D98F03D7650093F7F7CFC20743
:10048000C183D98F2310F50083D745002316F502C9
:1004900083D705002314F502B7370140938707C0BF
:1004A0006316F50083C785002318F5028547231AD4
:1004B000F5008280FD572312F50023100500231359
:1004C0000500231105002304050082802312B502D4
:1004D000828001A001A001A001A001A001A001A0B3
:1004E00001A001A001A001A001A001A001A001A004
:1004F00001A001A001A001A001A001A001A001A0F4
:1005000001A001A001A001A001A001A001A001A0E3
:1005100001A001A001A001A001A001A001A001A0D3
:1005200001A001A001A001A001A001A001A001A0C3
:1005300001A001A001A001A001A001A001A09701BC
:1005400000209381212C175100201301A1AB171516
:1005500000001305A5A7970500209385A5AA1706F7
:100560000020130626AA63FAC5008322050023A0F3
:10057000550011059105E3EAC5FE17050020130596
:1005800065A89385C1A16377B500232005001105F7
:10059000E36DB5FEFD42739002BC8D4273904280C4
:1005A000B72200009382828873A002309702000075
:1005B0009382C2A893E2320073905230EF00C009D8
:1005C000970200009382023A739012347300203035
:1005D00001A001A08280372702405C47858BF5FF90
:1005E0008280B367B6008D8BADE3EFF2DFB6937711
:1005F000F60FAE97130700102A8911710145636445
:10060000F7043284AE84937904F0F1373539130658
:100610000010CE850A85EF00900E1375C40F268654
:10062000CA850A95EF00B00D4E85A9316D378A85D0
:100630004E8585394D3705392686A2854A85EF00D6
:10064000B00913351500116189B601458280EFF2BA
:100650003FB2EF00D00A3DBEB71702409843B7063D
:10066000FFF01367170098C3D843758FD8C398431A
:10067000B706F7FEFD16758F98C39843B706FCFFC3
:10068000FD16758F98C3D843B70601FFFD16758F09
:10069000D8C337079F0098C7B746024003A7068014
:1006A0001367070123A0E680D843B706C1FFFD16F4
:1006B000D8C3D843D8C3D84313670740D8C3D84357
:1006C000758FD8C3D843B7063C00558FD8C398431D
:1006D000B7060001558F98C3984393166700E3DD72
:1006E00006FED843B7160240719BD8C3D8431367A0
:1006F0002700D8C32147DC42B18BE39EE7FE82800E
:10070000B707010803C7078085476305F7002397EC
:1007100001808280896793870780739007803717ED
:1007200002405C4FF99B5CCFB757002005673E81C4
:10073000028782803717014083270780054693068A
:100740000780C19B630AC5000946630EC50093E795
:1007500047002320F7808280D04613661600D0C65B
:1007600093E78700FDB7D046799AD5BFEFF25FA037
:100770000545C93705B4B7170240DC531397370056
:10078000635F0704EFF2DF9E370901088347298082
:10079000B944130101C063819704FD1793F7F70F64
:1007A0001307D00F636AF702130409801306004091
:1007B000A2850A85EF00A074130909C023019100E6
:1007C0008A84228626859305001013040410113DA7
:1007D00093840410E31724FF1301014065BA82805B
:1007E000B707004003D74702B706004042074183DE
:1007F000239BE18083D74602998FC207C183E3EB35
:10080000A7FE8280EFF2DF96371701408546232846
:10081000D7808327078013054003C19B93E72700F8
:100820002320F780753FBDB2EFF2FF92B71701406A
:100830000547AA8423AAE7801305400355372144BE
:10084000B7190140054993F71400138709808DC338
:10085000232827017D14130540031374F40F8580AA
:10086000413775F0B7170140054723A8E78031BA33
:10087000232A2701C5B7EFF2BF8F41112AC6593786
:1008800032455D37E535410131B2EFF27F8E130518
:100890000003D53723970180F5B8EFF27F8D13055C
:1008A000200CD13F9387E18003D7070005072390F1
:1008B000E700CDB0EFF2DF8B1305100C6D3F93878F
:1008C000E18003D7070005072390E7006FF09F8CB6
:1008D000EFF21F8A2A84AE84A2942D3703450400C8
:1008E0000504993713054003E53DE31994FEBD3D2A
:1008F0006FF05F8A697681468147050663C4B6005A
:100900003E8582803307D500034807002147B3485E
:10091000F80093F81800858363850800B18FC2073B
:10092000C1837D171377F70F135818006DF38506F1
:10093000F1B7EFF2FF83AA8413848191A685138512
:1009400081914D3FB305940083C7150003C705008F
:10095000A207D98F3385A740133515006FF09F8309
:100960001D7186CEA2CCA6CA8010CAC8CEC6D2C47B
:10097000D6C2DAC05EDE62DC66DA6AD86ED6E939E3
:10098000371702405C4F130544FB856993E7170056
:100990005CCF0D369307F008232AF4FAC167FD17E0
:1009A000930544FB37050040232CF4FA613481455C
:1009B00037050040213EB707004003D707008545B3
:1009C0001145136707082390E70003D70700014983
:1009D0008144136717002390E700353C8545214586
:1009E0001D3C130544FB232A04FA232C04FA232E6E
:1009F00004FA113C8547231AF4FA37150140914750
:100A0000930544FB232EF4FA130505808D47232C10
:100A1000F4FAEFF05F8F0945313B1305401FC933EE
:100A2000B71A0140130B201C138AF9F983A78A8097
:100A3000858B81E78504C204C180294555336374E1
:100A40009B00138909FA0509E3522AFF9307201C2A
:100A500063FA9700B7170240DC53139737006343DC
:100A6000070079390545F9311305401F953B1309F6
:100A7000401FB719014083A78980858B81E78504D2
:100A8000C204C18029457D19A13BE31609FE8DC82A
:100A900001454D311305401FA1331309401F814407
:100AA000B719014083A78980858B81E78504C2043B
:100AB000C18029457D192D33E31609FE91C0893186
:100AC00001458D394D3985679387C7FB2326F4FA95
:100AD0001306201081451385819123880180156BB1
:100AE000EFF00FEC138A8191513181498144938A4F
:100AF0000181938B8191370C0040130B0BE2238A09
:100B0000018003564C02938D4181138D6181420611
:100B10004182239BC180B715014003A78580058BC7
:100B20005DC703564C0203C80A0037150140420650
:100B300041822310CD009308401003278580058B48
:100B40004DEF69457139B717014003A78780058BC1
:100B500051EB0146130540032324C4FA5131B71861
:100B6000014003A78880032684FA03C50D00058B86
:100B70003317C700498F1377F70F2380ED00050661
:100B80002148E31906FD130540032324E4FA8939BB
:100B9000B717014003A68780058A29C6054623802A
:100BA000CA0003C6C180032784FA59C603D621812F
:100BB00009066380C4068504C2042300EA00C180DC
:100BC000850913072010050AE39BE9F281A003576A
:100BD0004C02118F42074183E371EBF493065006F8
:100BE0002397D18003C70A0015E303D7E180930759
:100BF0004006E3FFE7EC2936E1BD03574C02118FB5
:100C000042074183E3FBE8F2E30908F203C7C1802E
:100C10003DCB83D421812685293B25C513060010B1
:100C2000814513858181EFF0AFD70147634F97026C
:100C3000A9392386018055BF83550D0003564C0208
:100C40000D8E420641829305A00F63EEC50223007C
:100C5000EA0013071010E395E9F61387E1800356C5
:100C6000070051062310C700A1BF3386EB000346DF
:100C7000060093878181B386E7002380C6000507BD
:100C800075B721399DB703C60B019306D00703C77B
:100C90000B006314D60283C68B003547E397E6F456
:100CA00083C69B0013072004E391E6F40325C4FAEE
:100CB000A5453939238A0B000DBF03C64B01631DBF
:100CC000D60003C6CB00B5466318D60003C6DB00CA
:100CD00093062004E30CD6FC03C68B029306D007D0
:100CE000631DD60003C60B02B5466318D60003C6C3
:100CF0001B0293062004E30BD6FA9384E1801DE7E0
:100D000003C71B0083C62B0083C73B00558FD98FB9
:100D100089E7930750062390F4001305100CA13EB9
:100D200083D7040085072390F400C1B58549631675
:100D300037050945FD3E31D5B707002003A647001A
:100D4000B71700086374F600B53645B583D5218121
:100D5000B707010893870780631AF600894763F78E
:100D6000B7009387818139472381E700138581810B
:100D7000EFF03F8771D9113E8DBD9306F00F6317D9
:100D8000D70611457D36E30E05EE03D72B002390E1
:100D9000040093060002931787002183D98FC207AE
:100DA00037070020C183130747001CC36398D7008F
:100DB000B7070108938707801CC375BF930610020D
:100DC0006397D700B7F700089387077EF5B79306B8
:100DD00020026395D70083A78180F9BF9306F03F77
:100DE000E3F4F6F6B7060008B697F9B79306E00FF6
:100DF0006315D7021145353EE30505E883C62B0090
:100E0000130700106384360103C73B002399E18078
:100E100005472386E180993AC9BB9306D00F631A30
:100E2000D70009453936E30E05E41305100CA1344B
:100E30006DBB8946631FD7000945E53CE30305E424
:100E4000B707002003A74700B7170008E36EF7EEC7
:100E50001DB78D46E313D7EC09450A8AD93C01E555
:100E60002D3C528159B3B709002003AB4900938947
:100E7000490063140B003D3CEDB783C41B0099E0AF
:100E80009304001093872401C19B3301F140938A9E
:100E90003400568681450A85EFF08FB02686DA85C4
:100EA0000A85EFF0CFFAA6850A85A934B307910029
:100EB0002380A700130700032181A380A7002381BB
:100EC000E700D6850A85293483A7090023A00900F5
:100ED000BE9423A4918071B701476314E6000145D5
:100EE0008280B307E5000507B386E50083C70700E6
:100EF00083C6F6FFE383D7FE3385D7408280B3C72E
:100F0000A5008D8B3307C50081E78D4763EEC700D1
:100F1000AA876370E50A83C6050085078505A38F48
:100F2000D7FEE3EAE7FE828093763500AA8791CA6E
:100F300083C6050085078505A38FD7FE93F6370086
:100F4000FDB79376C7FF138606FE63F0C70683A33B
:100F5000050083A2450083AF850003AFC50083AEC3
:100F6000050103AE450103A3850183A8C50193854F
:100F7000450223A0770003A8C5FF23A2570023A49E
:100F8000F70123A6E70123A8D70123AAC70123ACB1
:100F9000670023AE17019387470223AE07FF75B79B
:100FA00090419107910523AEC7FEE3EBD7FEE3E442
:040FB000E7F682805E
:100FB400DAE32559D963B84E3437310035060602D1
:040FC40030000000F9
:00000001FF
