:041000006F00402518
:1010D00000100000000000005A1600005C1600001E
:1010E000000000005212000000000000000000009C
:1010F0005212000052120000000000000000000028
:1011000086170000000000003C18000000000000EE
:10111000521200005212000052120000521200003F
:10112000521200005212000052120000521200002F
:101130005212000096170000D41700005E1600003F
:1011400052120000521200005212000080160000DD
:1011500052120000F216000052120000521200005B
:1011600052120000521200005212000052120000EF
:1011700052120000521200005212000052120000DF
:101180005212000012180000521200005212000009
:1011900052120000521200005212000052120000BF
:1011A00052120000521200005212000052120000AF
:1011B000521200005212000052120000521200009F
:0C11C000521200005212000052120000F7
:1011CC00397101436EC619A0397141536AC866CA98
:1011DC0062CC5ECE19A0397101535AD056D252D47A
:1011EC004ED64AD826DA22DC06DE330161408282F2
:1011FC0041114AC026C222C406C68282B24D4101A8
:10120C00024D924C224CB24B4101024B924A224A63
:10121C00B2494101024992442244B24041018280C8
:10122C002A8309CA83830500230073007D160503F6
:10123C0085056DFA82802A8311C62300B3007D16C2
:10124C00050365FE828001A09701002093814190E7
:10125C0017410020130141CA17550000130585B032
:10126C0097F5FF1F938545D91386818763FAC500CF
:10127C008322050023A0550011059105E3EAC5FE64
:10128C0013858187938501D06377B50023200500F2
:10129C001105E36DB5FEFD42739002BC8D42739057
:1012AC004280930280087390023097020000938270
:1012BC00A2E193E2320073905230EF10A0009742FB
:1012CC000000938262AE73901234730020309387C7
:1012DC008187D6232399D18EF6232391D18296230D
:1012EC002398D18EBA232397E18E8280EFF25FF0A0
:1012FC001D711306400281456818353F1306000224
:10130C00814548080D3F372401409307C4443EDA19
:10131C00938781873EDC93070008BEC493070010B7
:10132C00BEC693070040B7040240BEC89307000234
:10133C00138584001149BECA4C188567BECC02C403
:10134C0002C602C8CAC0EF10A02B05461385840044
:10135C00A945EF10A02F138584008545EF10C02DF3
:10136C00B7E700E0130700FCA38DE7403707000840
:10137C0023A0E710854513050020EF10C06A014536
:10138C00EF10606737150140930720042C001305FC
:10139C0005807C8402C8EF10E04013050440EF1078
:1013AC00600585473ECC4C08B7070E00130504407A
:1013BC003ED002CA02CE02D223042103EF108007D2
:1013CC0085460546854513050440EF10E01185461A
:1013DC000946994513050440EF10001185460D464A
:1013EC00C14513050440EF1020109D461146C5451C
:1013FC0013050440EF10400F854513050440EF1012
:10140C00C009854513050440EF10200881451305DC
:10141C000440EF10601D13050440EF1020099304E5
:10142C0004402685EF1020096DFD13050440372478
:10143C000140EF10C008930404402685EF10C0084B
:10144C006DFD854513050440EF10001A0545EF109E
:10145C0020152561C1B3372501408545130505408D
:10146C006F100007EFF2DFD803D5218F85679387C4
:10147C0047CE3305F5023185EF10801442054185C6
:10148C0051BBEFF2FFD6B717014093870780054495
:10149C0080CB13078008733707809443C19A94C399
:1014AC00944393E6360094C3944393E6860094C326
:1014BC007310078085450545EF10805C8145054517
:1014CC00EF10005CB7070040130700069AAF0D47FA
:1014DC009AB3038701958545370500409AB71307E2
:1014EC00F003DAB723808188EF10701625B3EFF282
:1014FC003FD085450545EF10A05881450545EF10B7
:10150C00205837070040B717014023100702938774
:10151C00078085458CCB93068008F3B606809043F4
:10152C00419A90C390431366460090C37390068013
:10153C008387C18B8DC70EAFB70700200387973504
:10154C00B707004085459AB77D57DAB7239807004F
:10155C0037050040EF10B00F2380018865B98D4727
:10156C001EAF930700041EA7C1BFEFF27FC803870D
:10157C00C18B8547631BF700370700401E33C2073A
:10158C00C183F19B93E717001EB3953737070240D1
:10159C00938741967CD3B70700401386470330D31B
:1015AC0003C6A18685669386B69870CF34CF2392F6
:1015BC000702D62793E60620D6A7963393E61600A5
:1015CC0096B3962393E6160096A33C4F93E74700F9
:1015DC003CCF89B1EFF2DFC16D358567370702402B
:1015EC009387A7993CCF938741A67CD3B70700403C
:1015FC001386470330D337060020034686355D0635
:10160C0070CFD62793E60620D6A7963393E616001E
:10161C0096B3962393E6160096A33C4F93E71700D8
:10162C003CCFCDBEB717014093870780884705890B
:10163C008280B7170140938707809843D447419B1A
:10164C0093E61600D4C71367870098C3828001A065
:10165C0001A00945EF10200209C51945EF10200122
:10166C00BD312145EF10200101C52145EF102000AF
:10167C0073002030370702401C434111B7060800A5
:10168C0022C626C4FD8E85C23C4FF99B3CCFC16758
:10169C005CC3EF10B02A2385018AC13D3244A244B9
:1016AC00410173002030370704007D8F09CF038779
:1016BC00C18B09C7370700408D4616B33707024068
:1016CC00B706040054C3B7040200E58FE1DB37040E
:1016DC0002403C4CF99B3CCCEF40A02644C0054753
:1016EC002385E18A65BF41113705000222C6EF0050
:1016FC00907815CD3744004001469305000813053A
:10170C000440EF109022370502401305050881456F
:10171C00EF0090728357C44037050002C207C183A3
:10172C00CD9BC207C1832316F440EF0050743705DC
:10173C000008EF00507415CD374400400146930566
:10174C00000813050440EF10501E8357C4403705A2
:10175C00024013050508C207C183CD9BC207C18394
:10176C002316F4408145EF00306D37050008EF007B
:10177C0010703244410173002030B7F700E023A20F
:10178C000700EF30402973002030B717004003D713
:10179C00478283A70190858363FCE700B70701406C
:1017AC00938707402147D8CBEF208055730020301A
:1017BC0051208387A181E31BF5FEB7070140938776
:1017CC0007402147D8CBDDB7B717004003D7478276
:1017DC0083A70190858363FCE700B70701409387DB
:1017EC0007404147D8CBEF20A051730020309920FF
:1017FC008387A181E31BF5FEB70701409387074060
:10180C004147D8CBDDB7411122C63704004085458E
:10181C0013050440EF10300F01C9EF20E04585455A
:10182C0013050440EF10B00F324441017300203017
:10183C0073002030B71701403707002093870780CB
:10184C009C470355A7357D8D1375F50F8280B7071F
:10185C0001409387074098431D9B98C36147D8CBA1
:10186C008280B7070140938707406147D8CB370781
:10187C0000200346C735944305473317C700558FDF
:10188C0098C3828083870181054637070020639EB9
:10189C00C702B746024023A2F6808D47230EF734C9
:1018AC00A146B7070020239DD7348347C73505478A
:1018BC003317F7008386A181B70701409387074050
:1018CC00A5C223A40700D8C7828091466397D7008E
:1018DC00B747024023A2C780C9B709466385C70032
:1018EC001546639EC700B74702401306000723A2A4
:1018FC00C780230ED734B7070020C1466DB78D467D
:10190C00639CD700B74702409306000323A2D780FD
:10191C009147230EF734C5B79946E385D7FE71B7C7
:10192C0023A6070098C78280B367B6008D8BA1EF02
:10193C00EFF27F8A9377F60FAE97130700101171B1
:10194C00AE843284636EF702137904F0AA89EF0037
:10195C00905913060010CA850A85EFF07F8C13741A
:10196C00C40F2686CE8533058100EFF07F8B4A8528
:10197C00EF00305A8A854A85EF00905CEF00905852
:10198C0011616FF09F8882806FF09F898280EFF2E7
:10199C009F84011137140140930400024C0013057D
:1019AC000480648223130100231401002315010019
:1019BC00231601002317010002C802CA02CC02CE72
:1019CC00EF00505EF577938707C04C00130504C0F9
:1019DC007C8202C6EF00105DE14711494C001305F3
:1019EC0004807C824AC6EF00F05B4C001305048037
:1019FC00231221014AC6EF00F05A0547B7470240AF
:101A0C0023A2E7808D450145EF00D079A1474149DC
:101A1C0008083EC84ACC02CA02CEEF00F045214568
:101A2C00EF00B04B37E400E0E547A308F40485670A
:101A3C009387677993E717007CD0A30C9440B70782
:101A4C0000022320F41091450145EF00B075080801
:101A5C004AC84ACC02CA02CEEF0010424145EF0000
:101A6C00D047E9472309F40485679387477D93E7BB
:101A7C0017003CD4230D9440B70700042320F41026
:101A8C009309041005616FF04FF8EFF26FF61567CC
:101A9C00B73700401307575598C30D47D8C3056790
:101AAC00130707FA98C7EF00B072EF0050736FF08E
:101ABC006FF6EFF2EFF30565397185451305158067
:101ACC0002C402C62318010002D802DA02DC02DECC
:101ADC0002D002D202D42316010202CA02CC02CED8
:101AEC00EF0070743705160085451305050437346F
:101AFC000140EF00105A9307F07C2C00130504C032
:101B0C003EC602C4EF108008130504C08545EF10D3
:101B1C006034130504C0A145EF106035930700062F
:101B2C000C18130504C03ED802DA02DC02DEEF10FA
:101B3C00800C130504C08145EF10E037130504C079
:101B4C00A145EF10A0330C18130504C02319010292
:101B5C00231A0102EF10C010130504C08145EF10C9
:101B6C006036130504C0A145EF10A0320C18130504
:101B7C0004C023190102231A0102EF10A017130548
:101B8C0004C08145EF106035130504C0A145EF106A
:101B9C0020310C18130504C023190102231A010269
:101BAC00EF10601E130504C08145EF10E033B7073A
:101BBC004B003ED20C10B7070020130504C03ED4D6
:101BCC003714014002D023160102EF104022614964
:101BDC008D4489474C08130504C0FC824ACE26CCA0
:101BEC00EF00503C85474C08130504C0FC824ACEDC
:101BFC0026CCEF00303B930700084C0813050480FB
:101C0C00FC824ACE26CCEF00F039930700404C08FA
:101C1C0013050480FC824ACE26CCEF00B038930723
:101C2C0000204C0813050480FC824ACE26CCEF0021
:101C3C007037930700104C0813050480FC824ACEC1
:101C4C0026CCEF00303621616FF0CFDCEFF24FDAAB
:101C5C0085451145EF00105FB71700407D5723965F
:101C6C00E7825D472394E7826FF0CFDAB7F700E0A5
:101C7C0023A0070023A20700814694C70147D8C7B9
:101C8C0083A581801567130707E233D6E5028146E9
:101C9C003D4790CBD4CB98C3B7E700E001572386E0
:101CAC00E740056723A0E7108280EFF26FD48545EB
:101CBC000945EF003059B70700405D472394E742D0
:101CCC000567130707FA2396E742B7E700E0A386F8
:101CDC000742096723A2E7106FF0CFD3EFF24FD181
:101CEC0085450545EF00505237E700E0930700FCAF
:101CFC00A30FF740B70700802320F710FD472308F8
:101D0C00F70485679387076893E717003CD36FF058
:101D1C006FD0854535456F001051EFF26FCD79715D
:101D2C008545054502D202D402D602C602C8231A42
:101D3C00010002CC02CE23100102EF00B050854509
:101D4C001145EF00504E91473715014005443ED6E2
:101D5C004C108D4713050580231281023ED4EF00F1
:101D6C007024C167FD176C00370500403EC802C6E1
:101D7C00EF00D061854537050040EF10A00D81457F
:101D8C0037050040EF10A01B2C083705004022CE71
:101D9C0002CC23100102EF1000220546930500200F
:101DAC0037050040EF10E00A45616FF0AFC6EFF267
:101DBC002FC4C923B93F1D37ED39493D453DC13EBF
:101DCC00ED35A13F6FF00FC5B7370140239AA7C27D
:101DDC008280B7370140239CA7C28280B73701406D
:101DEC00239EA7C28280B737014003D747C1136730
:101DFC001700239AE7C08280B7070040239607029A
:101E0C00239207028280EFF2AFBE373401401305F4
:101E1C0004C005468145EF10800E130504C005462D
:101E2C009145EF10C00D130504C00546A145EF10F8
:101E3C00000D130504C011468145EF10400E13052B
:101E4C0004C011469145EF10800D1146130504C0D6
:101E5C00A145EF10C00C130504C08545EF00307B85
:101E6C00130504C08545EF00107C130504C085459F
:101E7C00EF00F07D37040040130504408545EF006A
:101E8C001079130504408545EF00707C8357C440DE
:101E9C008545C207C183F99BC207C1832316F44051
:101EAC003714004013050480EF007076130504808E
:101EBC008545EF00D079EFF06FC3054681453705B6
:101ECC000040EF10C003854537050040EF0030742B
:101EDC006FF04FB493078008F3B7078003C7E18115
:101EEC001CC101EB03C7918E09E70387618C054583
:101EFC0001E7739007800145828003C741C5B7177E
:101F0C000140938707C01DE79843419B98C39843B2
:101F1C001367370098C30547D8CBB7170140938791
:101F2C000780D8431377F7F0D8C3D8431367070B50
:101F3C00D8C382809843419B98C398431367B700DA
:101F4C0098C3E1BFB7170140138707C0854654CB30
:101F5C00144393870780C19A14C3144393E6360045
:101F6C0014C313070020D8CBD8431377F7F0D8C38A
:101F7C00D84313670703D8C38280B7170140138770
:101F8C0007C0144393870780C19A14C3144393E684
:101F9C00360014C3854614CBD8431377F7F0D8C357
:101FAC00D84313670703D8C313070020D8CB82800C
:101FBC0003C741C5B7170140938707800DEB9843C2
:101FCC00B70600301207118398C39843558F98C3F6
:101FDC0013070008D8CBB717014093870780D84365
:101FEC00419BD8C3D8431367B700D8C382809843AA
:101FFC00B70600B01207118398C39843558F98C346
:10200C00D9BFB71701409387078013070008D8CBB7
:10201C009843B70600301207118398C39843558F25
:10202C0098C313070010D8CBD843419BD8C3D843CF
:10203C0013673700D8C38280B71701409387078096
:10204C009843B70600301207118398C39843558FF5
:10205C0098C31307000898CBD843419BD8C3D843E7
:10206C0013673700D8C313070010D8CB828003C77F
:10207C0041C5B7170140938707C005EF9843137705
:10208C00F7F098C398431367070398C30947D8CB55
:10209C00B717014093870780D843FD769386F60FD8
:1020AC00758FD8C3D8438566938606B0558FD8C331
:1020BC00828098431377F7F098C398431367070B04
:1020CC0098C3F9B7B7170140138707C0894654CB9B
:1020DC0014439387078093F6F6F014C3144393E6E6
:1020EC00060314C313070040D8CBD843FD76938660
:1020FC00F60F758FD8C3D84313670730D8C38280C7
:10210C00B7170140138707C014439387078093F6D2
:10211C00F6F014C3144393E6060314C3894614CB98
:10212C00D843FD769386F60F758FD8C3D8431367C3
:10213C000730D8C313070040D8CB8280EFF24F8B07
:10214C0041116800413B41C5371701409307078097
:10215C00D4437D761306F60FF18ED4C3D443130704
:10216C0007C093E60630D4C393060040D4CBD443C7
:10217C0093F6F6F0D4C3D44393E60603D4C3930684
:10218C000020D4CBD443C19AD4C3D44393E63600B5
:10219C00D4C393060010D4CB144393F6F6F014C3B7
:1021AC00144393E6060B14C31443C19A14C314438B
:1021BC0093E6B60014C39843B70600B01207118318
:1021CC0098C39843558F98C3B247739007804101C9
:1021DC006FF04F84EFF2CF811304800873340480C6
:1021EC00D5358D33393D731004806FF0AF82EFF22B
:1021FC002F8041112A846800F1391DC51305F4FFA5
:10220C00954763E0A7029967938707CA0A053E952D
:10221C001C418287FD339533993D21A06535B13B37
:10222C00413BB2477390078041016FE0BFFE193B01
:10223C00C13DFDB7F933E935C931E5B76135ED3B42
:10224C00E5BF0933D53BC9BFEFE29FFA41116800E6
:10225C00513119C575351533C533B24773900780A5
:10226C0041016FE03FFBEFE2BFF8411168009D3187
:10227C0019C5F53B59312D3BB2477390078041018D
:10228C006FE05FF9EFE2DFF6B74700402A8713856E
:10229C0007405E253704024013040408C207C183BB
:1022AC00CD9B93E787005EA558C0938781B35CC430
:1022BC00054693050008EF00506785452285AD2E35
:1022CC006FE05FF5B71702409843B706FFF013674E
:1022DC00170098C3D843758FD8C39843B706F7FE39
:1022EC00FD16758F98C39843B706FCFFFD16758FC6
:1022FC0098C3D843B70601FFFD16758FD8C33707AF
:10230C009F0098C73747024013070780144393E692
:10231C00060114C3D8438D6693860680D8C3D84370
:10232C00558FD8C3D843B706C1FFFD1613670750A6
:10233C00D8C3D843758FD8C3D843B7062800558F58
:10234C00D8C39843B7060001558F98C3B70600024F
:10235C009843758F75DFD843B7160240719BD8C36D
:10236C00D84313672700D8C32147DC42B18BE39EC7
:10237C00E7FE8280371702405C43A146B18B63961F
:10238C00D7065C435843C166C983BD8B758F8907DB
:10239C00C5466393D700C94701EF3747024003276F
:1023AC000780418B09CF37177A001307072021A824
:1023BC00371702405843B7060200758F6DD7371791
:1023CC003D0013070790B387E702371702405443C9
:1023DC0037070020130707009182BD8A3697182310
:1023EC00B3D7E70023A4F1808280B7177A009387D4
:1023FC000720E1BFEFE2DFDFB727014093870740FB
:10240C00631CF500854513050020A12D814513059E
:10241C000020812D6FE01FE0B737014093870780C4
:10242C00E31AF5FE854513050040252D814513055E
:10243C000040C5B75841B707F1E09387F7EF944DCB
:10244C007D8F9C41D58FD44DD58FD441A206D58F8D
:10245C00D98F5CC11845B7F7F1FF9387D77FD44567
:10246C007D8F9C49D58F94458606D58FD98F1CC5F9
:10247C005855B70710FFFD177D8FDC29FD1793F713
:10248C00F70FD207D98F5CD582801C4589C593E79D
:10249C0017001CC58280F99BEDBF1C4589C593E7CD
:1024AC0007101CC5828093F7F7EFE5BF1C4593E737
:1024BC0087001CC5828008450D81058982801C45DA
:1024CC0093E747001CC582800845098105898280F5
:1024DC001C4591C537075000D98F1CC58280370722
:1024EC00B0FF7D17F98FD5BFA54763F7B7048D47AC
:1024FC00138765FF3307F7020328C5009D47B39781
:10250C00E70093C7F7FFB3F70701B396E600DD8E3C
:10251C0054C5994763E3C70495477D163306F60205
:10252C005859FD47B397C70093C7F7FFF98F3396F8
:10253C00C5005D8E50D982800D473387E502032894
:10254C0005019D47B397E70093C7F7FFB3F7070162
:10255C00B396E600DD8E14C96DBFB14763E2C702C6
:10256C00954765163306F6021859FD47B397C70011
:10257C0093C7F7FFF98F3396C5005D8E10D9828013
:10258C0095474D163306F6025855FD47B397C700CD
:10259C0093C7F7FFF98FB395C500DD8D4CD58280BD
:1025AC00B727014093870740984711C5B7068000AD
:1025BC00558F98C78280B70680FFFD16758FD5BFE3
:1025CC00B7F7FF1F83A7077213D70701C207C18391
:1025DC001D8DA9473305F5029307B0025505334508
:1025EC00F5023305A74082805C4191C53707000492
:1025FC00D98F5CC18280370700FC7D17F98FD5BF5E
:10260C001841E177BD0794517D8F9C45D58F944936
:10261C00D58FD449D58F944DD58FD44DD58FD451DA
:10262C00D58F9455D58FD98F1CC1DC455CC19C418D
:10263C001CC5DC415CC582801C4189C593E7170031
:10264C001CC1828041677917F98FDDBF1C4101C61F
:10265C00CD8F1CC1828093C5F5FFFD8D0CC182808E
:10266C00B70702409C437D8D3335A0008280B707AD
:10267C000240C8C38280EDB758410C415045B707A2
:10268C000140938707403E9793C6F5FF39C29043AC
:10269C00758E90C3D043F18ED4C31443CD8E14C326
:1026AC00184190479346F7FF758E90C7D047F18E2F
:1026BC00D4C7144541466399C6009447D98E94C734
:1026CC00D447558FD8C78280B6979443558F98C3FB
:1026DC0082801C43F58F1CC38280B707014093870F
:1026EC000740C8CB8280B7066745B7270240938660
:1026FC0036123797EFCDD4C31307B79AD8C3D4D3B8
:10270C00D8D38280372702401C4BA166D58F1CCBB7
:10271C008280B7270240984BB7060200137505F06C
:10272C00558F98CBC8CB984B1367070498CBD847D9
:10273C00058B75FF984B8176FD16758F98CB828033
:10274C00372702401C4BC166137505F0D58F1CCB87
:10275C005C47858BF5FF372702405C47898BF5FF7B
:10276C003727024013060010B386F50003A80600B5
:10277C00B386A70023A006015447898AF5FE91076A
:10278C00E394C7FE1C4BB7062000D58F1CCBB72794
:10279C000240D847058B75FF984BC176FD16758F97
:1027AC0098CB82809C4513F7070113F8F70001C7FB
:1027BC00D8413368E80037270240145B3707000F15
:1027CC00758F45EB8546A380D1883717014063157B
:1027DC00E5009A2135839AA18E2113F7F50F31C3A9
:1027EC0018418146054E930E80023D4F930F800495
:1027FC0021433316DE00B3F8C50063101603639251
:10280C00D70950C913962600B318CF0093C8F8FF08
:10281C0033F7E8003316C800518F8506E39B66FC3E
:10282C0018C11307F00F6375B70454410146054EE8
:10283C00930E8002130F8004214313078600331775
:10284C00EE00B3F8E500631117036390D70558C980
:10285C00931826003D47331717011347F7FFF98EDE
:10286C00B3181801B3E6D8000506E31866FC54C18A
:10287C00828037170140E311E5F603C7118829DF81
:10288C0089BFE391F7F910C9B5BFE393E7FD18C908
:10289C00C1B7B7063000135605011317050133787D
:1028AC00D5003D8A4183B707014063510502DC4FD7
:1028BC006317D80641068D46B396C60093C6F6FF3D
:1028CC00F58FF1E9370701405CCF8280D443B727FD
:1028DC00024083A80703B707000FB3F7170189EB72
:1028EC0093D71600F978CE06B3F71701CD82DD8E9B
:1028FC00B70730006314F806370600F17D16370869
:10290C000140B3F7C60083264800F18E2322D8007D
:10291C00BDCD558112053315A700C98F8DA8B706FB
:10292C001000E98E85C28D46B396C60093C6F6FF9D
:10293C00F58FC9D955811375F53F12053315A700CD
:10294C00C98F49B755811375F53F12053317A70089
:10295C009346F7FFF58FBDD5D98FADB7B7071000EC
:10296C00E98F99CB8D47B397C70093C7F7FFF58FC6
:10297C00B706000FD58F69BF558112053315A70017
:10298C009347F5FFF58F3707000FD98FD9F5370728
:10299C0001405CC3828055811375F53F12053317D6
:1029AC00A7005DBF93F635003707014093F5C50FBF
:1029BC002E9710478A06BD47B397D70093C7F7FFEA
:1029CC00F18F1CC71C473315D5005D8D08C782805D
:1029DC00AD67373700409387A7AA1CC38280B567C1
:1029EC00373700409387C7CC1CC3371702405C5362
:1029FC00898BF5DF8280B7160240DC4251777D1758
:102A0C00F98FC98FDCC2828099C5371702405C4BA5
:102A1C00C98F5CCB8280B7170240D84B1345F5FFAA
:102A2C00798DC8CB828099C5371702401C4FC98F4E
:102A3C001CCF8280B7170240984F1345F5FF798D54
:102A4C0088CF828099C5371702405C4FC98F5CCF05
:102A5C008280B7170240D84F1345F5FF798DC8CF48
:102A6C00828099C5371702405C47C98F5CC782804A
:102A7C00B7170240D8471345F5FF798DC8C7828038
:102A8C0099C5371702401C4BC98F1CCB8280B717D6
:102A9C000240984B1345F5FF798D88CB82801E310F
:102AAC009206558EC207C183F99BC207C1831EB122
:102ABC001A2D1E31B7360140420741831377C7F0F8
:102ACC00518FC2074207938606C0C18341836304BA
:102ADC00D502B70600406300D50293860640630C0E
:102AEC00D500B7160040138606806306C500938692
:102AFC0006C06319D500F59BDD8D93E515001AAD65
:102B0C000EB18280D59BCDBF1E3185689388F8CFDE
:102B1C00C207C183BD9BC207C1831EB11A2DB20669
:102B2C001E312206D18E33771701558F139845002D
:102B3C00B7360140C20742084207938606C0C183DC
:102B4C001358080141836304D502B70600406300A3
:102B5C00D50293860640630CD500B7160040138649
:102B6C0006806306C500938606C0631BD50093F7E9
:102B7C00F7FD3368F800936508011AAD0EB1828039
:102B8C0093F7F7F5DD8D93E50501C5BF1E213737AA
:102B9C000140130707C0C207C1836304E50237076E
:102BAC0000406300E50213070740630CE50037178C
:102BBC000040930607806306D500130707C0631611
:102BCC00E500BA2193F7F7F8D98FFA2193F7F7CFED
:102BDC00C207C183D98F1EA1DE215EB59E211EB511
:102BEC00B7370140938707C06314F5009C251EB9C5
:102BFC0085475EA982801E31922103D82500C20729
:102C0C00C183F99BC207C1831EB11E3156211A2DF7
:102C1C00C207C183420741831377C7F8518F9225AE
:102C2C00F59BC20633660601D18F37360140130679
:102C3C0006C0C1826310C502B225DD9B03D8E50036
:102C4C00D18FD221ED9B93F6F6CFD18FD22533665F
:102C5C000601D18E56A11AADFA215AB91EB1828045
:102C6C001E31E5769386F6CFC207C183BD9BC207A2
:102C7C00C1831EB11E3152211A2D03D88500C20703
:102C8C00758F9621C18393F7F7FDA206558FB62158
:102C9C0042064207B3E606019206D58FB7360140CD
:102CAC00C207938606C041824183C183631ED5024D
:102CBC00B62593F7F7F703D8C5009206D58FD62122
:102CCC00C207C183920693F7F7FBD58FFD769386E7
:102CDC00F63FF18EF225C207C183336606010A0660
:102CEC00D18E13960601418252A11AADFA211ABD5A
:102CFC001EB182801E31962103D88500C207C18384
:102D0C0093F7F7EFC207C1831EB11E3152215A2D22
:102D1C00C207C183420741831377C7F8558FB62189
:102D2C0093F7F7DF4206B3E60601A206D58FB73656
:102D3C000140C207938606C04182C183631FD5023E
:102D4C00FD769386F67FF58FB62503D8C500A206CF
:102D5C00D58FD621C207C183A20693F7F7BFD58FB3
:102D6C00F576FD16F18EF225C207C1833366060196
:102D7C001206D18E13960601418252A15AADFA2148
:102D8C005ABD1EB182801E317D777D17F98F1EB121
:102D9C001A315E21562D65761306F6CFF18E9221EF
:102DAC0003D88500C2072206D18E79767D16718FE5
:102DBC00B221C206C183336606013206518F373603
:102DCC0001404207130606C0C1824183631AC50045
:102DDC0071767D16F18FD2251A06D18FC207C18369
:102DEC005EA1FE2156AD2310F5041AB18280BA21E2
:102DFC009E21D98FDA21D98FFA21D98F9A25D98F93
:102E0C00BA25D98FDA25D98F2312F50482801E2199
:102E1C0089C593E717001EA18280C207C183F99B65
:102E2C00C207C183CDBF8357450491C52167D98F94
:102E3C002312F5048280C607C583DDBF5E2501C65B
:102E4C00CD8F5EA5828093C5F5FFED8FDDBF4EA9BA
:102E5C008280EDB71E2189C593E707081EA18280E9
:102E6C00C207C18393F7F7F7C207C183C5BF1E2DF5
:102E7C00C207C183DD9BCD8F1EAD82801E2D7D7759
:102E8C001307F77FF98FA205CD8FC207C1831EAD43
:102E9C0082805E2DC207C183DD9BCD8F5EAD8280AB
:102EAC005E2D7D771307F77FF98FA205CD8FC207B3
:102EBC00C1835EAD82801E2DC207C183ED9BCD8F79
:102ECC001EAD82801E2DA205C207C18393F7F7BFEA
:102EDC00CD8FC207C1831EAD82805E2DC207C18318
:102EEC00ED9BCD8F5EAD82805E2DA205C207C183A6
:102EFC0093F7F7BFCD8FC207C1835EAD82801A31C5
:102F0C008547B397B70093C7F7FFF98F1EB11E31F2
:102F1C003316B600D18FC207C1831EB182801A311D
:102F2C009147B397B70093C7F7FFF98F1EB11E31C6
:102F3C003316B600D18FC207C1831EB182805E21C9
:102F4C00C207C18393F7F7F8C207C1835EA15E2164
:102F5C00CD8F5EA182801E2DC207C183CD9BC2077F
:102F6C00C1831EAD1E2DCD8F1EAD82801E2D7D7793
:102F7C001307F73FF98F1EAD1E2DA205CD8FC2078B
:102F8C00C1831EAD82805E2DC207C183CD9BC2075B
:102F9C00C1835EAD5E2DCD8F5EAD82805E2D7D7763
:102FAC001307F73FF98F5EAD5E2DA205CD8FC207DB
:102FBC00C1835EAD8280EFE2AFA39A21BE21D22104
:102FCC0096252A84AE8409EBBE85EFF05FADEE202A
:102FDC00228551376FE00FA491456319B700BE8568
:102FEC00EFF09FB2EE2022855137EDB72145EE2050
:102FFC006317A7081A30920613988700420741837B
:10300C001377F7EF420741831AB04A2C1A30420863
:10301C00420541811375C5F0518D558DB736014070
:10302C0042074205938606C041831358080141812B
:10303C006304D402B70600406300D40293860640B2
:10304C00630CD400B7160040138606806306C400D8
:10305C00938606C0631DD4001377F7DF3368E8004E
:10306C00136708104AAC1AB02285313FA5B7FD761C
:10307C009386F65F758F5D8F13670710E5B71A306F
:10308C007D757D15698F1AB04A2C8568B2061A3089
:10309C009388F8CF2206558E337515011398C70007
:1030AC00518DB7360140420742084205938606C04F
:1030BC0041831358080141816304D402B7060040D0
:1030CC006300D40293860640630CD400B71600400C
:1030DC00138606806306C400938606C0631FD40063
:1030EC00F977FD177D8F3368E8008567B367F800C3
:1030FC004AAC1EB022855D35F1BD1377F7DFD98F51
:10310C000567D98FF5B71E294A25ED8F42054181F8
:10311C0089C76D8D3335A00082800145828093C5AF
:10312C00F5FFC205C1810EA982805E2901C6CD8F33
:10313C005EA9828093C5F5FFED8FDDBFA383018C63
:10314C00238C0188238B01882385018EA38A018817
:10315C00238C019223830188828093864196F85EAA
:10316C009442158F420741832399E18813565700E7
:10317C002394C18883D6219463F6E64083D6818656
:10318C006372D740EFE22F8593874196938681AF88
:10319C0093850708138481AFD8438843A107098F0F
:1031AC00420741833337E60098C29106E396F5FE59
:1031BC001C480440584803290403BD8C1C500E09BC
:1031CC00BD8C5C408E04B98F5850B98F8A07584C0F
:1031DC00DD8C5C44B98F5854B98FDD8C184C1C4471
:1031EC00B98F1854B98F8607DD8C5C580387618CB6
:1031FC0093F4F40F8A073369F9005C5C3369F900C6
:10320C001C5C86073369F9001379F90F8387718E7B
:10321C000DEB95E3EFE00FC10DC583C74189850721
:10322C0093F7F70F238AF18813074006637BF700A7
:10323C008547A383F18EBD47B387274113F9F70F59
:10324C0021A08387718EE5FB1C40032E44000323D1
:10325C0084008328C4000328040148480C4C504CBB
:10326C0014505850832F8402631699302396018A88
:10327C0083DE0189850E2398D189832EC402054FE4
:10328C006394EE012386D18FAA07260EB3E7C701FC
:10329C00B3E7F7012203B3E767009E08B3E7170112
:1032AC001A08B3E7070116059205C98FCD8F0E06D4
:1032BC008A06D18FD58F83C6E1810607D98FA5EEFB
:1032CC00BDEB03C65189F94663E9C60083C6518933
:1032DC00850693F6F60FA38AD1880386618C09E6DE
:1032EC0083C651892392D18C03C7E18125C32390D6
:1032FC00018CA383018C238C0188C1466390D70475
:10330C0083C66189954763E9D70083C761898507BF
:10331C0093F7F70F238BF18883C66189954763FA7E
:10332C00D700238B018805472385E18E41472383F2
:10333C00E18E6FD09FEDA38A018845B7238B01885E
:10334C003D47E398E7FE2385018EE5B783C6618888
:10335C00D1C6BD45639FB70283C57189238301889C
:10336C006386F500A38BF188238C0188A383F18CF1
:10337C0083C7718CDDDFBD46639ED70E83C7818901
:10338C009546850793F7F70F63EDF60C238CF188C0
:10339C004DB74146E38FC7F805466398C6002392A4
:1033AC00F18889472383F18869B709466396C6007B
:1033BC002381F1888D47FDB70D46E39CC6F6930635
:1033CC005002E398D7F683D64188938701C4B69709
:1033DC0083C621882383018894A3A1BF9305F0029F
:1033EC0063D7F502238C01880387818AA383018C20
:1033FC0029D3930600036399D70083C621C589E6B8
:10340C0001C62390018C35B72390F18C1DB79385A1
:10341C00F7FF1305E0026366B50203C8718913F563
:10342C00F70F6306F800A38BA188238C0188938582
:10343C0017FF0548E37CB8F22390018CA383A18C81
:10344C0005BFE39707F28385918A85476394F5005E
:10345C002384018A238C0188A383018C2390018C03
:10346C0001BF238C0188238B01882385018EEF00FB
:10347C001019B1A8E30F06EAC146E38CD7EA83C65C
:10348C00A18DE39806EA914663E5F6009946238CF4
:10349C00D18883C681899545850693F6F60F63E539
:1034AC00D500238CD18871B5FD17238C018893F737
:1034BC00F70F9306300263ECF60099668A07938641
:1034CC0086CBB6979C4382870547A382E19003C7BE
:1034DC00718CA383018C2383E18EA1BD0947F5B7C1
:1034EC000D47E5B71147D5B71547C5B70547238035
:1034FC00E194F1BFA38801C40547238BE180C1BFD0
:10350C000547A388E1C4238B0180D1B7238901C46B
:10351C007DBF05472389E1C45DBFEF00C05E83C753
:10352C0011C58507A382F1905DB705472386E18815
:10353C008567938707E02395F1888387918AE398C1
:10354C00E7F82384F18A61B723860188856793871E
:10355C00F7EF2395F188A5BF03C711C58547998F50
:10356C00238BF180ADB703C711C541BF85472383BA
:10357C00F188B1BF83D7E18885072397F18823832E
:10358C00018845BB828003D7A18869C323AEE1883B
:10359C002395018883A7C18913050004054313975C
:1035AC00070141839355870093564700AD8E358FA5
:1035BC001347F7FF3D8B9207D98F9966938686D474
:1035CC0013D7C74023AEF188369713F6F70036961B
:1035DC000307070003060600FD583E07518F13D65C
:1035EC0087403D8A91873696BD8BBE9603060600B2
:1035FC00838706002A06518F9607D98F23A0F18A5C
:10360C003707002083458735938641A6138615001E
:10361C000A0636968A0508C2AE964D45138641A613
:10362C0003A846003317A3007D8F3357A700135808
:10363C006800334707011A0798C67D159106E311F8
:10364C0015FF3307B60023200700828083C7A18DA6
:10365C0095CB1357F540BD4711EBA1460546FD1719
:10366C006388D700B355F540E39BC5FE138787FFEE
:10367C0023A2E18A3355E54093179700C98F23AEF7
:10368C00F18809BF41657D15BD47CDB72A883685C0
:10369C0019A036873E866353C80263D405036302C0
:1036AC00A702B307B600B306A70085878586638992
:1036BC00B700E3D007FF93851700D1BF3A8582800E
:1036CC0036858280AA870D8D635405003385F540BD
:1036DC0082803717004083564782420513070780C4
:1036EC00858241815E338583958FC207C183E3EB6D
:1036FC00A7FE8280EFD2DFAF2A8419E06FD09FB192
:10370C001305803EF9377D14CDBF2D8DA14793163F
:10371C00850113171500E1861375F70F63D60600A4
:10372C00134777001375F70FFD1793F7F70FE5F3B2
:10373C008280EFD2FFAB2A84B304B5000145631439
:10374C0094006FD03FADAA85082005047D3FC5BF0E
:10375C00EFD21FAA13060003938501C4138581B30E
:10376C00EFD01FAC93050003138581B3D937938435
:10377C0081B32388A4026FD0FFA92320050023283E
:10378C000500232A0500232C0500232E050082802A
:10379C001845918D10493387E50214510CC1AA8745
:1037AC00329763D3E6003687B306D0406353D70015
:1037BC003687904FD447C8433386C5403306D6026C
:1037CC008CCFD45398CBB385A502D0CBB29533858F
:1037DC00E50063D3A6003685B306D0406353D5000D
:1037EC003685C8CF8280EFD21F9F83A5C1851385F4
:1037FC0001C41306000CEFE02F99938701C4F83B2A
:10380C008D47138401C463F4E70089477CB8082C06
:10381C0013078002930785FF93F7F70F636AF7226C
:10382C00930785FE93F7F70F6147636CF700130757
:10383C00703E9306F07C13060003E145813D23970F
:10384C00A182082C2D47930745FF93F7F70F636D63
:10385C00F70085661307F07C9386E6F96146B1455F
:10386C00EFF0DFE22397A182082C0D47930785FF29
:10387C0093F7F70F636DF7008566138756BB4146C8
:10388C009386D6769D45EFF07FE02397A18203D7F0
:10389C00E182B73701402396E7C21C3C93064006F1
:1038AC001387E7FC1377F70F63EDE61A502893960E
:1038BC002700239ED1826312061A8583239AF182F4
:1038CC00A9072399F1823C2C13078002B387E702E6
:1038DC000945D107239BF184EF20601D1C30638BBD
:1038EC00071C682CAD4763F3A7001545EF20201C7F
:1038FC0083470402A3030402938777178607239751
:10390C00F184834714029387B73686072396F18494
:10391C00834724029387E7552395F18403473402A8
:10392C002384E18483474402FD1793B71700A38ACD
:10393C00F192834754029387A70F2393F184834713
:10394C0084025147ED1793F7F70F6375F70095470E
:10395C002304F402834794022547FD1793F7F70FCE
:10396C006375F700A947A304F4028347A402214717
:10397C00FD1793F7F70F6375F700A9472305F402BA
:10398C008347A4022547636EF704D956B387D70241
:10399C001306800C8517BE8693F7F70F6374F60039
:1039AC00930680FC238AD18403D7C18393F7F60F47
:1039BC003E97239EE18203D741833E97239AE1826F
:1039CC0003D761823E972393E18203D761833E97AD
:1039DC00239BE18237370140835647C4D58F23128E
:1039EC00F7C48347B402130760049387A7FB93F7CC
:1039FC00F70F6375F700FD57A305F4028347C40264
:103A0C0013072006FD1793F7F70F6365F7000547BB
:103A1C002384E1928347D4022547FD1793F7F70FD0
:103A2C006375F7009547A306F4028347E402254724
:103A3C006363F70C09476384E70A636DF702C1EF10
:103A4C00238E018AA38E018A85472384F18A35A0AF
:103A5C001307F07C2398E1822DBD8D46B387D702E6
:103A6C00B1BD93076009239EF18293075005239AF9
:103A7C00F18291BD11476388E70683D761851307EF
:103A8C00B0126364F70023800184383C9306000273
:103A9C00B3C6E6021307001933D7E7023347D70240
:103AAC002395E18213070003B3D7E702B3C7D7020C
:103ABC002394F18203D5618505661307401F930695
:103ACC00803E130686BB9305C012EFF03FBC2391DA
:103ADC00A1846FD08FF38547A38EF18ABDB70547BC
:103AEC00238EE18A59BF8547A384F18A2384018AF6
:103AFC00A38EF18A59B7A38E018A238E018A0547BA
:103B0C002384E18A9DBF03C7A185938701C498B321
:103B1C0003A6C1859305000C138501C46FD0DFE0AB
:103B2C0083C7018E03D8E18E9386C1B69398170094
:103B3C0003A5C18DC696962242958507158D93F7E0
:103B4C00F70F930630061387C1B663F3F60081476F
:103B5C002380F18E9307400623AEA18C3355F502DA
:103B6C00469723100701420541812391A18E828043
:103B7C00EFD20FE8EFD01FCC8387A18189CB09E965
:103B8C0083C7618B8507238BF18A6FD0AFE86DF902
:103B9C0083C7818C850793F7F70F2384F18C03C7B8
:103BAC003181E374F7FE238B018AC5B7EFD24FE462
:103BBC0003876181854683C70181631CD70885070C
:103BCC00E207E187994663C1F6082388F180838771
:103BDC0001810947B3E7E702238DF1808967938759
:103BEC000780739007808387618C91CF8387B18E18
:103BFC0099EB83C7E18181EB83C7918E89E70385BC
:103C0C000181EFE0CFDE8967938787887390078007
:103C1C00EFD05FC703A7019085679387479C63F537
:103C2C00E7000547A38EE18003870181238B018A7E
:103C3C00A38B018A7D170607938741C3BA9703A705
:103C4C00C1809AA36FD00FDD2388E1802382E1909D
:103C5C00BDBFFD17E207E187635AF0002388F180AE
:103C6C0083C7018193C7F7FF858BBDB7994723881D
:103C7C00F1802382D190EDB7EFD28FD73707004078
:103C8C008357C740C207C183F99BC207C183231660
:103C9C00F740EFF0BFF103D7418B83D7218B3E97D1
:103CAC0083A6C180058736979356170023A6D1802B
:103CBC0083C7F1C6A1E38386818593574700B387F9
:103CCC00D702C207C18309831D8F239CF18C2397D4
:103CDC00E18A8387D18199E3EFD0BFB883A7818B29
:103CEC0009671307F7706365F700850723ACF18A42
:103CFC006FD04FD283C76193B387D7029983D1B763
:103D0C00EFD20FCF03A701909307D00763E2E7062A
:103D1C00014483C7B1816342F40A096493070480A8
:103D2C0073900780EFD0BFB283D6218B13048488A5
:103D3C00239AD18AB717004083D647822399D18A18
:103D4C0023920782B70700402392074203D7E18AE8
:103D5C000507420741832396E7422398074003D780
:103D6C00C740136717002396E74073100480A1A087
:103D7C00B717004003D747829307C00763EEE700ED
:103D8C0003D7018B9307702563E8E70003A7818BAA
:103D9C009307301F63F1E70283C7018D850793F703
:103DAC00F70F2388F18C13074006E373F7F6EFD077
:103DBC001FAA23AC018A6FD0EFC5EFD0BFA78387B2
:103DCC00A181E30AF5FE0504A9B7EFD26FC283C740
:103DDC00A18D95E3EFF09FDD89679387077123A68B
:103DEC00F1800567B7170040130787382392E782E5
:103DFC008547238DF18CEFD0DFA66FD0AFC1EFD20A
:103E0C002FBF13048008733404800547238FE1808F
:103E1C00A385018EEFE00FBCB7370140239A07C290
:103E2C00239C07C2239E07C2731004806FD08FBEE1
:103E3C00EFD20FBC13048008733404808547238FA2
:103E4C00F180A384F18EA385018EA382019023912E
:103E5C00018C2390018C2392018E23A601923705AD
:103E6C0000201307007D23A2019213050533239232
:103E7C00E184EFF09F90370500201305052EEFF03D
:103E8C00DF8F3705002013058530EFF01F8F23934C
:103E9C0001902398018A239401902395018CA38887
:103EAC00018C2384018EEFE0EFB2B7370140239AE7
:103EBC0007C2239C07C2239E07C2731004806FD0D5
:103ECC006FB5EFD24FB1130480087334048083C7ED
:103EDC00A18E81C783C7E18189E7731004806FD0FD
:103EEC00CFB2A385018EA38201902391018C2390E4
:103EFC00018C2392018E23A6019237050020130713
:103F0C00007D054A23A20192130505332392E18417
:103F1C00A384418FEFF07F86370500201305052E13
:103F2C00EFF0BF853705002013058530EFF0FF84D7
:103F3C00239301902398018A239401902395018C5B
:103F4C00EFE04FA9B7370140239A07C2239C07C261
:103F5C00239E07C2EFD0BF8F370700408357C7405F
:103F6C00C207C183F99BC207C1832316F740238D77
:103F7C00018CA38E418123AC018A85679387873896
:103F8C0023A6F180B717004023920782A388018CE7
:103F9C002384018E2383018C239001922392018C24
:103FAC00A38A0188238B01882385018E238F0180AE
:103FBC00A38B0190A384018E0DB7EFD26FA31304D2
:103FCC008008733404808544238F9180A384918E60
:103FDC00A385018EA38201902391018C2390018CE7
:103FEC002392018E23A60192370500201307007D32
:103FFC0023A20192130505332392E184EFF0EFF72E
:10400C00370500201305052EEFF02FF7370500209C
:10401C0013058530EFF06FF6239301902398018AF6
:10402C00239401902395018CEFE0CF9AB737014090
:10403C00239A07C2239C07C2239E07C2EFD03F815D
:10404C00370700408357C740C207C183F99BC2079B
:10405C00C1832316F740238D018CA38E918023AC52
:10406C00018A85679387873823A6F180A388018C02
:10407C002384018E238B0188731004806FD08F9959
:10408C00EFD28F9483C7A18E89C7EFF09FE36FD0D7
:10409C002F9703C7E18101E703C7918E19C783C727
:1040AC00918EF5F7EFF0DFD8DDB7938701C4BC2B09
:1040BC0003D5018C138401C4638407428387D18B9D
:1040CC00D9CB03D7018C9307704163E0E73803D752
:1040DC00018C9306703E930707FDC207C18363E80A
:1040EC00F63E1438038661818547958F631DF60271
:1040FC0003D6218483A7C1806378F60003D6018B95
:10410C009307700C63F6C7008387118D638E073A93
:10411C0023AC018A0546A38EC180238BD180EFD0BE
:10412C000FF3238B019083D7018C1307F002637478
:10413C00F73A0387A183938707FD8607998F9387A7
:10414C00F702C207C1831307E0026363F7008147DC
:10415C002392F18EFDA083C581848347640286057A
:10416C009385853E6385071C63D5A50418380386A3
:10417C006181631DE6022392018E0547A385E18EC2
:10418C00038741931DC70547118F238BE180A385BE
:10419C00018E1307F07F9306F0021306007D238A2D
:1041AC000192EFF0AFCE2392A18E21A08387B18E26
:1041BC00EDD383C7818403D5018C1306803E86071B
:1041CC001D8E6354C50414388388618185453388FA
:1041DC00D54063990803A385B18E838541932392BF
:1041EC00018E85C5238BD180A385018E1307F00228
:1041FC009306F07F8145238A0192EFF02FC9239219
:10420C00A18E21A08387B18EF5D383C7818483D6F9
:10421C00018C1307803E86071D8F63C0E6029387CF
:10422C00873E63CCD7002392018E0387B18E11C7D2
:10423C00A385018E0547238AE1928387D18BE39274
:10424C0007E803C7B18D8387B18363DEE7287C2839
:10425C00638B0728EFD01FF8EFD06FDF2391018C11
:10426C0093076006A38DF18C8387118DE39107E290
:10427C008387618CE38D07E03C3813070005B38717
:10428C00E70203D7218C9387E70263CAE73483875D
:10429C00519063980740582883C7A18D631C07462B
:1042AC002393019099EF0547A38EE18023AC018AFB
:1042BC005C2C6383074283C7818E638F0740EFD0EA
:1042CC00BFF8034764028387B18E6302073C639C8B
:1042DC00074003D7218C9307E00283D6619063E9F2
:1042EC00E74E83D7C18283D6619063F4D7002393C2
:1042FC00F1908387819289CB8397418483D6619097
:10430C0063D4D7002393F19083A74192E351F0D863
:10431C009306F002E3FDE6D6096713070771B3C7EE
:10432C00E70203D76190BA972393F1908DB363D5CD
:10433C00A506143883876181639FD70203D6218435
:10434C0083A7C1806378F60003D6018B9307700CAA
:10435C0063F6C7008387118D638F070C8547958F94
:10436C00238BF18023AC018A0547A38EE180EFD02B
:10437C000FCE238B019083C5818403D5018C130749
:10438C00F07F86059306F0021306007D9385853E2B
:10439C00EFF0CFAF2392A18E03C7818483D6018C1B
:1043AC009307803E0607998F63D4F606143803866C
:1043BC0061818547958F631CF60203D6218483A700
:1043CC00C1806378F60003D6018B9307700C63F5FC
:1043DC00C7008387118DADC723AC018A0546A38E18
:1043EC00C180238BD180EFD08FC6238B019083C7E4
:1043FC00818403D5018C1306803E86071D8E13071E
:10440C00F0029306F07F8145EFF04FA82392A18E26
:10441C0083C7818483D6018C1307803E86071D8F4A
:10442C00E3CDE6E09387873EE3C9D7E02392018E84
:10443C00238B019019B59307803E2390F18C25BFF7
:10444C009307803E2390F18C5DB71438838761818C
:10445C00639ED70203D6218483A7C1806378F600BC
:10446C0003D6018B9307700C63F5C7008387118DFE
:10447C00B1C78547958F238BF18023AC018A054703
:10448C00A38EE180EFD0AFBC238B019083D7018C3E
:10449C009306704163F7F6028386A183938787BEE8
:1044AC008607958F9387F702C207C1839306E002B4
:1044BC0063E3F60081472392F18E11B92390018CAE
:1044CC00F1B72392018E21B12390018CA9B99307E6
:1044DC00F002E3E8E7D62392018E238B019095B38B
:1044EC002392A18EB9BB3C38A5C303D5418EF547A9
:1044FC000346840263E8A7022391018C834584025E
:10450C00D14703D5418EB385F502E34FB5D41307DC
:10451C00F07F9306000A1306F07FEFF02F9723919C
:10452C00A18C99B3F947E30BF5FCD1473306F6029E
:10453C00E356C5FC1307000A9306F002F945EFF0A9
:10454C00EF942391A18C5DBF83870193D1C783C75F
:10455C001194A1CB03A7418683A6018603D5418E76
:10456C001306F07F9305F002EFF04F92B787930399
:10457C0093870770B3C7A702383C0583B3C7E7021C
:10458C002399F19203D7418E9307E00263EBE70086
:10459C00B70700202391018C23A8073223A6019290
:1045AC00E1B183A7C192096713070771B3C7E7028B
:1045BC001307F07FC207C1832391F18C6377F70057
:1045CC009307F07F2391F18C45B11307F002E36D53
:1045DC00F7C893070003FDB783D7418EE5B70547AE
:1045EC002384E18E83C7A18D99EFEFD0BFBE838763
:1045FC00D18199E3EFF06FFD8547238DF18C03D7C3
:10460C00C1832394E19083D641833C3803D5218C1C
:10461C001307007DD1C3938686021306F07F9305A2
:10462C009008EFF0AF8642059307201741813305C0
:10463C00F50203D781919306201CBA8763F4E60038
:10464C009307201C1397070141839306C0126374D0
:10465C00D7009307C012C207C1833355F5029307E5
:10466C00007D63F4A7001305007D83476402239348
:10467C00A19099E3A385018E3C3813070005B387FD
:10468C00E70203D7218C9387E702E3D2E7C0838745
:10469C00B18EE39E079E35B91306F07F9305F002A9
:1046AC0049B7FD1793F7F70F1147636BF7001967BD
:1046BC008A07130787D5BA979C438287EF10A049C6
:1046CC00A3820190C9BEEF10E04EDDBFEF10805405
:1046DC00C5BFEF104040EDB78387B18EE39307BEA3
:1046EC00EFD05FAFF9BE83D5018C1305803EEFE0B0
:1046FC007FFD1305853E42054181239FA19283D7FF
:10470C00E182FD176345F500EFD01FB449B7EFD038
:10471C00FFA2B5BF95EB854AA38E518123AC018ACC
:10472C002384018C5C2CD5C383C7818ED9CF3C38B4
:10473C0081EF834794029387E73D8607239FF1928D
:10474C00EFD0DF9FA385518F838701811307C003AF
:10475C0093067016FD17B387E70203D70185BA9746
:10476C0013970701C207C187418363D6F6009307ED
:10477C0087E9C207C187239BF18CC207C1831387CA
:10478C007707420741879306701663D6E6001387B6
:10479C00F7F042074187239AE18C1387F70E420703
:1047AC0041879306701663D7E600938777F81397C3
:1047BC00070141872399E18C3C3805476394E70056
:1047CC00A388F18C23930190D9B5EFD0BFA0ADBFD6
:1047DC00503CF947B3D7C74003A6818BE373F6B0BF
:1047EC0083D7C18363F4F6002393F19083D761835D
:1047FC0083D66190E3F7D7AE2393F190DDB4EFC28B
:10480C003F9F83C7819305476399E700EFE0FF94CF
:10481C00238C0192EFF0DF8611A80947E39CE7FE99
:10482C0003D5818FEFE03FD6238C01926FC09F9E02
:10483C00EFC29F998386618183D7618D639C060E3D
:10484C008507C207C1879306701663D3F6008147AC
:10485C00239BF18C83D7418D930670168507C20775
:10486C00C18763D3F6008147239AF18C83D7218DBE
:10487C00930670168507C207C18763C5F600239996
:10488C00F18C19A02399018C8397618D370400203A
:10489C00130404018607A2970395070083D741816F
:1048AC00930A007D3E9583D7E182138901C43305B9
:1048BC00F5028347D902294A334555033305F502DE
:1048CC003345450342054181EFD00FD08397418D8D
:1048DC008607A2970395070083D741813E9583D71E
:1048EC00E1823305F5028347D9023345550333057D
:1048FC00F5023345450342054181EFD08FCD8397B7
:10490C00218D86073E940315040083D741813E9583
:10491C0083D7E1823305F5028347D902334555032A
:10492C003305F5023345450342054181EFD00FCBEA
:10493C006FC01F8DFD17C207C18763D40700930793
:10494C007016239BF18C83D7418DFD17C207C1874D
:10495C0063D4070093077016239AF18C83D7218DAB
:10496C00FD17C207C187E3DC07F09307701601BF80
:10497C00EFC21F88B716004003D746824207418317
:10498C002399E18A2392068203A6C1808D47B387BF
:10499C00C702938606809145BA9713D7270023A6A2
:1049AC00E18013D757000607420741838D83998F07
:1049BC00239CE18CC20703A6818BC1832397F18AC8
:1049CC00DA326374F700E3EDC5FEEFF02F9E238B14
:1049DC00018A138701C42384018C83A7818B543FE4
:1049EC0003476702850723ACF18A558F05C34D47F2
:1049FC00637CF70003A7C1809307007D63E6E700A3
:104A0C00A38E0180EFC0FFE56FC0DF8003A7C180DC
:104A1C009307F07CE5B7EFC20FFC03D761902398A6
:104A2C00E18A03D741910507239AE19003D7C193FB
:104A3C000507239EE19203D7A1938387D18B0507AA
:104A4C00239DE1920387618C938401C445E303C7E2
:104A5C00E18149EF03C7918E51EB93F7F70F99CB97
:104A6C0083D6C18A1307803E6376D700A38A018858
:104A7C00239001920387719135EB0387E18B3DC73E
:104A8C0083D6418E6397062A81CF83C65189F94715
:104A9C0063F1D72A83D6C18A9307803E63EBD7286C
:104AAC0083D701929566938606E28507C207C18378
:104ABC002390F19263FCF60283D6418CF94763F89C
:104ACC00D72685472383F18C2384018E83875193CA
:104ADC0089CB83D7819113072017B3D7E702A38B18
:104AEC00F1908387C18B99E323830402F03C15C6B4
:104AFC0083C7918503D7A191FD17B2975146B38710
:104B0C00C702050742074183239DE19063D7E70065
:104B1C0005472386E18E239D01908387118D639D2C
:104B2C00071E8387D18195CB83C7A18D9DC7EFC00D
:104B3C001FD2EFF0EF8383C7718B85E38386A1814E
:104B4C0083C7618B638A061E83C6218163F7F600D7
:104B5C008547A38BF18AEFF0BFE103D7A193D1472F
:104B6C0063FEE70E83878192239D0192B9CF83C7A1
:104B7C00A18DA1CF83C7918EA9EB03C6C402930765
:104B8C00800C370500203306F6028395A19013059F
:104B9C008530EFE0FFBF8967938707713345F502D6
:104BAC0083D7418483D64183898FC207C1872392DF
:104BBC00F18463D4D7002392D184839641849307E4
:104BCC00007D63D4D7002392F184DC3C85CF83C76E
:104BDC00A18D8DCB83C7918E95E703D6218583A5B7
:104BEC00C180370500201305052EEFE07FBA03A71F
:104BFC0041923A9537E71600130707366351A7140D
:104C0C0023A2E19283870193B1CB83C7A18DB9C74E
:104C1C0083C7918EA1E703D6219383A5818F370A91
:104C2C00002013050A33EFE0BFB683A7C1923E956F
:104C3C00635305000145B76738019387078F63D32A
:104C4C00A7003E8523A6A19203A7818B930730066C
:104C5C0063E6E700130A0A3323280A0083871184CA
:104C6C00B9CB03A6818B9306500903D78190854756
:104C7C0063FCC60063FAE60003A601909306401F8E
:104C8C00994763E3C600C14703D6018BA38CF1821D
:104C9C003305E64063DDA70ABA972398F18A03A788
:104CAC00C1809307401F63F4E70CF8388547238CC9
:104CBC00F182238CE18403D701838387618C83D6B3
:104CCC00018BCDCB83C7A18DD5C703D6218C930780
:104CDC00F00263F1C70AB387E6021306007DB3C77F
:104CEC00C702130617009387C704C207C183635515
:104CFC00F60093170601C1832395F18C2394D19070
:104D0C00B73701402396E7C203D7A18C239AE7C299
:104D1C00239CE7C2239EE7C283D7C18A41677D17D4
:104D2C006385E70085072396F18A6FC00FCE238F2A
:104D3C00018A239001925DBB83C6118101BD63552D
:104D4C00A00023A2A1927DBD23A2019265BD3306D2
:104D5C00C7400388740163DAC7001D8F2398E18A6A
:104D6C00238C0182238C0185B9B7238C0185238C7C
:104D7C00018291B78387B18E99CF83D7E1931306C4
:104D8C000083B387E702B3C7C70203D6E1820506E7
:104D9C00B297C2078DB7B387E6021306007DB3C77F
:104DAC00C702C5BFEFC2CFC1EFC05FBE8567811719
:104DBC00944337E725591307A73D639BE602D44379
:104DCC003767B84E1307973D6394E602DC27130749
:104DDC00B0026389E754130750036380E7547D479F
:104DEC006398E700B7870008938707C023AEF18468
:104DFC00EFC0FFFBEFD00FBEB7370140239A07C2BD
:104E0C00239C07C2239E07C2EFC0FFFFEFE0BF9DAC
:104E1C00938701C4B8338947138401C4631BF7001B
:104E2C005820CD476317F7000387A1851C3063D644
:104E3C00E70289473CB0B7575242938737F15CC0C1
:104E4C00B7675632938747F51CC48D679387073332
:104E5C005CC423080400EFE01FCB1C38FD17B337EC
:104E6C00F000238BF18083D7E1822398F1825C28B8
:104E7C0099E3A3090400834764029DCF1307803E86
:104E8C002393E18285472380F1843EA883D7418315
:104E9C00231A0400230B040093872703239AF1821F
:104EAC0083D72183938727032399F18283D7C183E7
:104EBC0093872703239EF182EFD0CFB12392018CED
:104ECC00EFC0BFBCAD679387A7AA373700401CC3A0
:104EDC00EFC0AFE983C7119481C705472388E192DE
:104EEC00EFC02FF58967938441C3138C873283C736
:104EFC00E18191C783C7918E99E3EFE07FF383C77C
:104F0C00A18E99C3EFE0FFFBBA209E20BA97DA205E
:104F1C00BA97FA20BA979A24BA97BA24BA979107F3
:104F2C00858723ACF18E83C7A18A89C7EFF03F8DAB
:104F3C002385018A83A6818B114799476373D70018
:104F4C008D472389F180A388F180AD673737004006
:104F5C009387A7AA1CC3583885476310F70203D759
:104F6C00E18203A5C1801306800C935617009305AC
:104F7C000006EFE0AFF12398A18258388947631FF0
:104F8C00F70083A70190130740099386B7F9636E66
:104F9C00D7381547B387E7022398F18203D7C18A24
:104FAC0089679387077163F3E70283C7E18189E718
:104FBC0083C7918E638A0738238B018883C7A18DA1
:104FCC0081E783C7918E99E3EFE03FFF03D74191CF
:104FDC009567938707E263F4E7048397A1909305A1
:104FEC008016139707013347B70283A501912E97BB
:104FFC0023A8E1900387C18809466306C73E8D4705
:10500C006301F7408547631AF70083C7618F2386D6
:10501C00C18893E707202395F188239A019083A6F2
:10502C00818B1306803E03D7418E6379D63EA38DC8
:10503C00018C1306700C637FE63E8387E191638AD3
:10504C0007429307F01863E4E700A38D018C83A556
:10505C00818F8D47B3C5F5028387419023A0B19012
:10506C00ADC7A94763F3D70603A5C18FEFE08FE562
:10507C0083A7019013D717006375A7041307F07C5F
:10508C006361F70403C7F19123AC018A0507A38F71
:10509C00E190382819E783D6218C1307F002636856
:1050AC00D70083A6C1801307803E6374D700238D7D
:1050BC00018C8546A38ED18003D7C18305832394AD
:1050CC00E1902382019023AEF18E8387C18E81EF14
:1050DC008387019489CBEFE0AFE713051003EFD082
:1050EC006F9A2380019483C7D18E1307800C850798
:1050FC0093F7F70FA386F18E637AF710EFC0AFB575
:10510C0003D5218FEFC00FB6239AA18E238BA18ECE
:10511C0083D621821307E04A938776C1C207C183E5
:10512C006361F70283D701821D47B387E702370714
:10513C004B00130707B53357D702BA978D872390C7
:10514C00F18203D7018283D7018F9D45B387E70294
:10515C0005671306F7FFB3C7C70203D6E183B3870E
:10516C00C70213064006B3C7C70203D681913306A4
:10517C00B602B2978D87239CF190EFE07F9A05677A
:10518C00130747CE23A6A190B307E50213074033BC
:10519C00B3C7E7022395F190C207C1833E87C207CC
:1051AC00C18763D307000147838751932395E1900F
:1051BC000387118DB1CB03D6819183D6618483870C
:1051CC007191B387D702635FF62A83D7C1918507A4
:1051DC00C207C183239EF1909306C0C73307D70241
:1051EC009566938606E236976350F7022391018CFD
:1051FC00EFC05FFEEFC0AFE5238D018C2383018CE4
:10520C002392018C2384018EA386018E2388018C2A
:10521C008387118D639F072883A7818F372509000A
:10522C001305057C3345F50283C7A18D3305F502C3
:10523C00420541812396A18CA9473355F50223974A
:10524C00A18C038701849307007D11CF03D7418282
:10525C0083D6618203D6818283D5A182EFE00FC30E
:10526C0093170501C1832396F1828345B40203C5CC
:10527C00618F63FDA50083D641821386A500054787
:10528C008582D915EFE08FC02396A18203A7818B6D
:10529C009307300663EBE71E03A7C1809307401FFB
:1052AC0063F5E71EB147A38DF1808347F40289CFE4
:1052BC0003D5018B5D47B5461306007D930540066B
:1052CC00EFE0CFBC238BA192B717004003D74782E6
:1052DC00AD67938787FCE3FCE7C083CAA18D854744
:1052EC00E397FAC083C7B18D8507A38DF18CEFC00E
:1052FC000FD6A38E518103D7218C9307F00263E95B
:10530C00E700856793878738238D018C23A6F1806E
:10531C0023AC018AEFF0CFE5D9BEB707010893871C
:10532C000780E9B4B7070208DDBFFD171307200695
:10533C006365F7009307401F85B11307800FE37F68
:10534C00F7C49307204E89B98387618CB9C3EFC02A
:10535C007FE82391018C238F018A2383018CB7373B
:10536C0001402392018C239A07C2239C07C2239EDF
:10537C0007C2EFC07FA81306001081451385419624
:10538C00EFB07FEBB707EFBE37E700E09387070876
:10539C003CC703D7C18AA967938707C4E3F8E7C260
:1053AC00EFC05FE32391018C238F018A2383018C4F
:1053BC00B73701402392018C239A07C2239C07C262
:1053CC00239E07C2EFC05FA313060010814513850F
:1053DC004196EFB05FE6B707EFBE37E700E0938783
:1053EC0007083CC7E5B61307200393F7F70FB3D7AD
:1053FC00E70293E707602395F1888D472386F188B0
:10540C0029B983D781916547B3D7E70293F7F70F93
:10541C0093E707402395F1888547CDB70DEB83873C
:10542C00E191A38D018CE39207C213074006A38D73
:10543C00E18231B9A38D018C303805E68387E19187
:10544C00E39507C093075009E3F1E7FE1DA013068F
:10545C004006E360D6BE303819EE8387E191FDD368
:10546C00CDB61306F009637CE6008387E191E39ED9
:10547C0007BC29476DBF1306F009E360E6BCA38D9A
:10548C00018C6DBF239E019041B303A50190314760
:10549C008D461306401F93054006EFE02F9F03A790
:1054AC00C180A38DA18093071003E3E0E7E0894757
:1054BC00DDBB83D7218C9306000363FFF610838634
:1054CC00618C638B06109387F7FC8546C207238497
:1054DC00D18EC183130670056362F60883877193BE
:1054EC0095CBB706004083D7C640C207C183F99B52
:1054FC00C207C1832396F640EFC06FB5B7370140A2
:10550C00239A07C2239C07C2239E07C2EFC0BFD5B4
:10551C00A38B0192EFF0CFB13C3C0967930687B5A2
:10552C001307A0323347F70203D5218C13068007EB
:10553C0093050003B3C6F602EFE04F95239CA180C0
:10554C0042054181EFE0EF9803D7818193078025D5
:10555C00B3C7E7022396F18C6FF07F99A38BD1929E
:10556C00EFF00FAD03D7218C9307800C63F8E700A5
:10557C0093070005239B018C239CF18003D581812B
:10558C00EFE02F958397618DE39307968547238DE5
:10559C00F18CA38EF18023AE818FA388018CB71779
:1055AC00004023A6818123A0819123928783D14738
:1055BC0023ACF18AA385018E03C7C1812388E180C6
:1055CC005C3C89C703D721832394E190EFE00FDE85
:1055DC00EFC07F816FF0BF915C2C054AA38B419388
:1055EC00B1CF83C7818EB9CB03D6E18283479402B6
:1055FC001307D6FE8607BA97C207C1832398F18A90
:10560C0003D7018393061600B307F702B3C7C7028B
:10561C00B387F6402395F18CEFC05FB203D7A18C12
:10562C00B7370140239AE7C2239CE7C2239EE7C207
:10563C00A385418F2396018C6FF07F8BEFC09FB9B0
:10564C00B7370140239A07C2239C07C2239E07C287
:10565C00D5B7EFB27FB793874196C8439C431D8D56
:10566C001307F5CD9307605763EFE71683C7A19532
:10567C002396018A638E071083C7819513894196FF
:10568C00B1C783270900032749001D8F9307104ECC
:10569C0063F1E70E03C741959307B00463F3E70684
:1056AC0083D7E184238D0194E507C207C183239737
:1056BC00F1840947938727D1B3C7E7022380F1C64A
:1056CC00EFE06FC4238A0194F52125A883C7919537
:1056DC0099E3239BA19483D5C18403D56195850758
:1056EC00A38CF194EFD01FFE9306200363FEA60259
:1056FC00238D019483D7C184239BF19483C7819517
:10570C00C9F32396018A03A7C19583D7018C83A67D
:10571C000187B305F74063DBB60CB697C207C183AC
:10572C002390F18C6FB0DFAD03270900832749006C
:10573C001D46998F03D7C1843307C702BA978D834F
:10574C00C20703C79195C1832396F184E3F4E6FA6B
:10575C009D17C207C1832396F18409479387A792AB
:10576C00B3C7E702A380F1C68547238CF194E526E5
:10577C0051B783C741951D468507238AF19483D77A
:10578C00E184B387C702BA978D832397F18419B745
:10579C0083C721C585CB83D5A18463EDA5002E8657
:1057AC0083D5E1841307803E8146EFD03FEE23AED4
:1057BC00A19481BF03D6C1841307007D9306903E4C
:1057CC008505E5B703D6C18483D5E1841307F07F43
:1057DC009306F002EFD09FEB93070003E3C9A7FCFD
:1057EC0023AE019439BF2392018C31BFB385E740BE
:1057FC0063D4B600958F1DB7931707010DB783D7E8
:10580C00C18689461387F7FF4207418363EDE602A1
:10581C0003A7C1949307B00363E6E702B707002020
:10582C00A38C0734238801948547A38EF18AB9464B
:10583C0037070020230CD734930600022385D1862A
:10584C00238FF18A8280F117C207C1831147E36B62
:10585C00F7FE03A7C19493073006E3E5E7FE8547FF
:10586C00A38EF18A37070020A30CF7342388F19418
:10587C009D46370700207DBF83D7C1861567130768
:10588C0067D5938777F3C207C1836360F7028547B7
:10589C009306F002238EF18A37070020A30CD7342D
:1058AC0089462385D186238FF18A8280EFB25F945B
:1058BC009386419695679442938707E213874196A6
:1058CC002396F18623A60194130E87070143814585
:1058DC0081484843630CD500B306D54063F6F60007
:1058EC0093970601C1838548B69505431107AA868F
:1058FC00E311C7FF6304030023A6B194638408007B
:10590C002396F18683A7C1940387D18B958323A615
:10591C00F19485476314F700EFF07FEE0387C18B9A
:10592C0085476314F700EFF03FF583C7D18B03C7AE
:10593C00C18BD98F89E7EFF09FECEFF0FFF36FB0DD
:10594C007F8DEFB2FF8A8387E18B85C70387718ECA
:10595C0015CB8387018881CB03D5818FEFD0BFC254
:10596C00EFB0BFC029A0EFB0FFC6EFD00FFF6FB0F4
:10597C007F8A8387618C81C78387718EC9EFEFF033
:10598C00FFF2F9BF0547E394E7FE0387D18B63165B
:10599C00F700EFD08FFCEFB05FBD0387C18B85475D
:1059AC00631AF700EFB01FC841C50D472385E18688
:1059BC00EFB0BFBB8387618CDDFB8387D18BBDCF01
:1059CC0003C781949D46E3E4E6FA03D6418C9546E1
:1059DC00E3FFC6F80507938641961377F70F83A567
:1059EC0041942384E194FC5E9442AE97958F23A25C
:1059FC00F194A146E31DD7F613D737009D834207D8
:105A0C00C207C18341833306F7001D8F2394C186DF
:105A1C002391E194A9BF8387018899C7EFB0FFB4A4
:105A2C008947238CF192A1B7EFB0DFBA8547D5BF78
:105A3C0009472385E186EFF0DFC19DBF03D5418E79
:105A4C0009ED03C7A19519E703D7418C05072392EC
:105A5C00E18C31BF2392018C19BF2392018C838777
:105A6C00C18BE38607F09307C05DE3F2A7F083D503
:105A7C002195EFD03FC5130720036379A700A38DB1
:105A8C00019483D7418E2399F194D5B583C7B195F1
:105A9C00850793F7F70FA38DF194E374F7FE83C793
:105AAC008195E5F3852A0547238DE194C9BF2D47E0
:105ABC00AA876373A700AD4786072380F19682807F
:105ACC0003C70196B7370140239AE7C2239CE7C26C
:105ADC00239EE7C28280EFB20FF0373401401304EB
:105AEC0004C09307F07C89645EB493870480739040
:105AFC0007802D69B73900401309A9AA9307C00381
:105B0C0023A029011EB4EFF0BFFB0545EFC02FEE1B
:105B1C001305B004EFD01FBE930700051EB4130588
:105B2C00B004EFD03FBD9307A0051EB41305B0041D
:105B3C0023A02901EFD01FBCEFC0CFE9231404022E
:105B4C002396018A83D7E182938484885EB4739010
:105B5C0004806FB08FEBEFB2AFE93734014093079D
:105B6C00F07C2316F4C2930720032314F4C2EFF045
:105B7C003FF50945EFC0AFE713056009EFD09FB7BC
:105B8C00AD67373700409387A7AA1CC3F947231486
:105B9C00F4C213056009EFD0FFB5EFC0AFE32314D7
:105BAC0004C22396018A83D7E182130404C05EB435
:105BBC006FB04FE6EFB2CFE3373401409307F07C80
:105BCC002316F4C2930780022314F4C2EFF05FEFA4
:105BDC000945EFC0CFE113056009EFD0BFB1AD6748
:105BEC00373700409387A7AA1CC3930700052314DB
:105BFC00F4C213056009EFD0FFAFEFC0AFDD231483
:105C0C0004C22396018A83D7E182130404C05EB4D4
:105C1C006FB04FE0EFB22FDCB73701401307F07CC9
:105C2C002396E7C2896793870780739007802D6955
:105C3C00EFF01FE913047007373B00401309A9AAC2
:105C4C00D14A373A0140FD593345540323202B01E7
:105C5C0093040AC0EFC0AFD993571440A907C207E9
:105C6C00C1832314FAC229457914EFD0BFA8E31DD0
:105C7C0034FDEFC02FD623140AC22396018A83D792
:105C8C00E1822316FAC2896793878788739007800D
:105C9C006FB0AFD720220000282200003A2200006B
:105CAC0040220000482200004E220000D4340000A4
:105CBC00E8340000EC340000F0340000F434000050
:105CCC00F8340000003500000C35000018350000D9
:105CDC001E350000DA340000263500003635000091
:105CEC005435000072340000DA340000DA3400005D
:105CFC00DA340000DA34000064350000723500003C
:105D0C00DA340000DA340000DA340000DA3400004F
:105D1C00DA340000DA340000DA340000DA3400003F
:105D2C00DA340000DA340000DA340000DA3400002F
:105D3C00DA340000DA34000078350000191B121335
:105D4C001D1516171A090A0B1E0D0E0FC84600005A
:105D5C00D2460000D8460000DE460000C8460000CF
:105D6C0000000000000000000102030406070809FF
:105D7C00B400B700BA00BD00C100C400C700CA001F
:105D8C00CD00D000D300D600D900DC00E000E30049
:105D9C00E600E900EC00EF00F200F500F700FA0075
:105DAC00FD0000010301060109010B010E011101A7
:105DBC001301160119011B011E01200123012501EC
:105DCC0028012A012C012F01310133013501380141
:105DDC003A013C013E0140014201440146014701A8
:105DEC0049014B014D014E01500151015301540128
:105DFC005601570158015A015B015C015D015E01BE
:105E0C005F0160016101620163016301640165016D
:105E1C006501660166016701670167016801680138
:105E2C00680168016801680168016801680167011F
:105E3C006701670166016601650165016401630123
:105E4C0063016201610160015F015E015D015C0142
:105E5C005B015A015801570156015401530151017C
:105E6C0050014E014D014B014901470146014401CE
:105E7C00420140013E013C013A0138013501330138
:105E8C0031012F012C012A012801250123012001B8
:105E9C001E011B0119011601130111010E010B0149
:105EAC000901060103010001FD00FA00F700F500ED
:105EBC00F200EF00EC00E900E600E300E000DC009B
:105ECC00D900D600D300D000CD00CA00C700C40052
:105EDC00C100BD00BA00B700B400B100AE00AB0009
:105EEC00A700A400A1009E009B00980095009200C2
:105EFC008F008C008800850082007F007C00790078
:105F0C007600730071006E006B0068006500620023
:105F1C005F005D005A005700550052004F004D00C5
:105F2C004A0048004500430040003E003C00390058
:105F3C0037003500330030002E002C002A002800DA
:105F4C0026002400220021001F001D001B001A0047
:105F5C0018001700150014001200110010000E009C
:105F6C000D000C000B000A000900080007000600D9
:105F7C0005000500040003000300020002000100FC
:105F8C000100010000000000000000000000000003
:105F9C0000000000000001000100010002000200EE
:105FAC0003000300040005000500060007000800BC
:105FBC0009000A000B000C000D000E00100011006F
:105FCC00120014001500170018001A001B001D0009
:105FDC001F00210022002400260028002A002C008B
:105FEC002E00300033003500370039003C003E00F5
:105FFC0040004300450048004A004D004F0052004D
:10600C00550057005A005D005F0062006500680093
:10601C006B006E0071007300760079007C007F00CD
:10602C008200850088008C008F00920095009800FB
:10603C009B009E00A100A400A700AB00AE00B10025
:10604C000000000001000000000000003200000011
:10605C000000000000000000000000000000000034
:10606C001027000050C30000000000009001000049
:10607C0000000000E8030000000000000000000029
:10608C000000000000000000204E0000A08601006F
:10609C00000000000A000000000000006400000086
:1060AC0000000000000000000000000000000000E4
:1060BC001027000050C30000070608000300000072
:1060CC0000D8B805D4300000010303024B000100D6
:1060DC006400010505010100E40CD105D00784031F
:1060EC0032000A00D007CF07CF074B004B0020032C
:1060FC000101011E780014000101DC05D0074A01E2
:10610C006400DC056C074C04B40064194B00D00728
:10611C00011E020000F80008E8030000B036000081
:10612C0050C32000204E0000FA00000000000000C8
:10F7E0004F5242545F563230330000000000000098
:10F7F0000000000000000000000000000000000009
:0400000300001000E9
:00000001FF
